:020000040020DA
:100000000010002091022000ED0220008D0220004F
:100010008D0220008D0220008D02200000000000D3
:100020000000000000000000000000008D02200021
:100030008D022000000000008D02200041192000E8
:100040004D1E2000251E2000FD1D2000D51D200076
:1000500000000000ED1A20008D0220008D0220001B
:100060008D022000000000000000000000000000E1
:1000700000000000000000008D02200000000000D1
:1000800000000000000000008D0220008D02200012
:100090008D0220008D0220008D0220008D022000A4
:1000A0008D0220008D0220008D0220008D02200094
:1000B0008D0220008D0220008D0220008D02200084
:1000C0008D0220008D0220008D0220008D02200074
:1000D0008D02200000000000000000000000000071
:1000E0000000000000000000000000000000000010
:1000F00000000000000000002D2620003D2620000A
:1001000000000000000000000000000000000000EF
:1001100000000000000000000000000000000000DF
:1001200000000000000000000000000000000000CF
:1001300000000000000000000000000000000000BF
:1001400000000000000000000000000000000000AF
:10015000000000000000000000000000000000009F
:10016000000000000000000000000000000000008F
:10017000000000000000000000000000000000007F
:10018000000000000000000000000000000000006F
:10019000000000000000000000000000000000005F
:1001A000000000000000000000000000000000004F
:1001B000000000000000000000000000000000003F
:1001C000000000000000000000000000000000002F
:1001D000000000000000000000000000000000001F
:1001E000000000000000000000000000000000000F
:1001F00000000000000000000000000000000000FF
:1002000000000000000000000000000000000000EE
:1002100000000000000000000000000000000000DE
:1002200000000000000000000000000000000000CE
:1002300000000000000000000000000000000000BE
:1002400000000000000000000000000000000000AE
:10025000000000000000000000000000000000009E
:10026000000000000000000000000000000000008E
:100270008D02200011222000D52120008D022000B7
:100280008D022000D51920008D022000FEE7C04617
:1002900010B540F2B44040F2000E42F2B403C2F294
:1002A000000EC2F20000FF22C4F20D0386451A6060
:1002B0000CD246F64821FF3AC0F220018B584EF886
:1002C000023004320EEB02038342F7D3054806499D
:1002D0004FF000028842B8BF40F8042BFADB00F070
:1002E00067FBFEE7000800202C34002010B5FFF764
:1002F000CFFFFEE710B501F04FFB42F2DC34C2F253
:100300000004206001F0C8FA41F21C03C2F20003AD
:100310000246186046F2FC002168C0F2200002F09C
:10032000FFFA10BD2DE9F04F038883B0872B834679
:1003300000F0D4800DD9932B00F0FE80A42B00F0A8
:10034000C3804FF00003ABF80030032003B0BDE8DA
:10035000F08F002B00F0AA80662BF2D146F220101D
:10036000C0F2200002F0AEFA46F24C10C0F22000BB
:1003700002F0A8FA46F27810C0F2200041F2000420
:1003800002F0A0FAC2F20004012341F2100641F289
:10039000240941F2140844F240272370C2F20006F7
:1003A000C2F20009C2F2000842F2107AC0F20F074E
:1003B00001F0F2FA237830600AFB03F34FF6F07095
:1003C000C0F2000003EA000001F072FA01F0E4FA62
:1003D00033682178C21A07FB02F3C9F8000046F21D
:1003E000AC10DB0BC0F220000AFB01F1C8F80020C2
:1003F00002F096FA237841F200050133DBB2062BB6
:10040000C2F200052370D3D946F22010C0F22000BA
:1004100002F058FA46F2E410C0F220004FF4004116
:1004200002F07EFA00232B7041F228004FF4807115
:10043000C2F2000000F0F4F946F20C20C0F22000F5
:1004400002F040FA01F028FA41F21C05C2F2000560
:10045000286001F0A1FA42F2DC33C2F2000342F25A
:10046000D83401461860C2F2000400F5004346F299
:10047000242023602A68C0F2200002F051FA0023F1
:10048000216841F20400009340F2F523C2F200001B
:100490000122C0F2200300F0DDF9002840F0B9800D
:1004A0004FF08703ABF8003001204FE741F22800FE
:1004B000C2F200004FF4807100F0B2F94FF0660311
:1004C000ABF80030012041E741F22800C2F2000001
:1004D00000F0A6F8002874D1012037E741F2280087
:1004E000C2F2000000F09CF80028F5D041F20004B0
:1004F000C2F2000423780133DBB2042B237093D9BA
:1005000046F22010C0F2200002F0DCF946F258203A
:10051000C0F22000802102F003FA0023237041F290
:100520002800C2F20000802100F07AF94FF0930316
:10053000ABF80030012009E741F22800C2F20000C8
:1005400000F06EF80028C7D041F22800C2F2000087
:1005500000F05EF901F0A0F941F21803C2F20003C5
:100560001860014646F29020C0F2200041F20004DB
:1005700002F0D6F9C2F20004012000F09BF92378C2
:100580000133DBB2092B2370C9D946F22010C0F227
:10059000200002F097F946F29C20C0F2200002F001
:1005A00091F90023237041F22800C2F200004FF4B9
:1005B000207100F035F94FF0A403ABF800300120B2
:1005C000C4E641F22800C2F2000000F021F901F077
:1005D00069F941F22003C2F200031860014646F2B5
:1005E000B820C0F2200002F09BF9402000F062F930
:1005F00041F20002C2F2000213780133DBB2092B90
:100600001370D0D946F2C820C0F2200002F05AF987
:1006100097E646F24820C0F2200002F053F93FE787
:10062000C068D0F1010038BF0020704741F23803A4
:10063000C2F200031868003818BF01207047C04696
:1006400010B541F23804C2F200042268DAB101F0B8
:1006500023F9236819685A6852189968C0EB020E8A
:1006600049B14B680A6889689B181B1A9E4528BFC8
:100670009E460029F5D141F23C03C2F200030EEB85
:1006800000021A6010BD41F23C03C2F200031A607E
:10069000F8E7C04610B541F23801C2F200010A681D
:1006A000044690420FD02AB19368A34206D01A465E
:1006B000002AF9D10023A360E36010BDA368936012
:1006C000FFF7BEFFF6E783680B60FFF7B9FFF1E7BE
:1006D00040F2104010B5C2F2000004F051F810BD15
:1006E0002DE9F0410646008848B941F23803C2F2CC
:1006F000000318604FF059033380012005E05928AA
:1007000005D04FF0000333800320BDE8F081872936
:1007100024D08229EED141F23807C2F200074FF00F
:1007200000083C68002CE5D0002504E0A3682546BD
:10073000002BDFD01C46204604F05EF90028F5D0DF
:10074000E0688821224603F0B7FF002825D040F258
:100750001040C2F2000004F013F8E7E741F2380756
:10076000C2F2000738680028C4D0C168914203D0A3
:100770000DE0C3688B420ED180680028F9D1386043
:10078000B8E7CB6893420ABF8B68084683608168EC
:100790000029F6D1AEE73860F9E7E06035B1A3682B
:1007A000AB60C4F80880FFF74BFFBAE7A3683B6073
:1007B000F7E7C04610B5044640F21040C2F2000010
:1007C00003F0DEFFE3689BB141F23801C2F20001A1
:1007D0000B6813B910E09B6873B19C42FBD141F6E2
:1007E000FC13C2F200031A68E260FFF729FF0EE073
:1007F00041F23801C2F2000141F6FC13C2F20003DB
:100800001A68E2600B68A3600C60FFF719FF10BD67
:1008100010B5044604F0EAF82046FFF7CBFF10BD00
:1008200010B5044604F0F6F82046FFF7C3FF10BDEC
:1008300010B541F24004C2F20004206848B1002320
:100840002360426881689047206810B1006801F019
:10085000D3F810BD70B541F24002C2F200021C464E
:100860001368049D2BB14460856001601060002016
:1008700070BD4460856001601060084601F0BCF8FE
:10088000F5E7C04610B501F07FF810BD10B541F294
:100890004502C2F20002137880EA030141F24403E8
:1008A000C2F200031878117081EA000000F048F8E5
:1008B00010BDC04610B5FFF7E9FF10BD10B541F2FD
:1008C0004402C2F200021378C143194041F24503C9
:1008D000C2F200031878117081EA000000F030F8CD
:1008E00010BDC04610B541F24402C2F200021378B6
:1008F00040EA030141F24503C2F200031878117087
:1009000081EA000000F01CF810BDC04610B500F0F0
:100910000DF841F2450341F244020021C2F2000306
:10092000C2F200021970117010BDC0464BF20042B5
:10093000C4F20D02136843F0E00313607047C04631
:100940004BF28033C4F20D0318607047F0B50024F9
:1009500083B00646254627463046FFF7C3FF01977A
:10096000019B9C4206DD00BF019B01330193019A6C
:100970009442F8DC3046FFF7A1FF0197019BC4F5D4
:10098000C871994206DD00BF019B01330193019AB2
:100990009142F8DC0135B5F5487F06D0B5F5C87F42
:1009A000D4BF2C46C5F54874D6E703B0F0BDC046A9
:1009B00010B501F073F901F0CFF900F02FFF01F04D
:1009C00073FEFFF75FFF01F0FBF901F053FAFFF749
:1009D0009DFF2020FFF7BAFF03F0A6FD01F044F9C8
:1009E00001F0D0F844F6D500C0F2200001F06AF81A
:1009F00003F05CFF4020FFF7A9FF46F2F020C0F2B1
:100A0000200001F05FFF46F2FC20C0F2200001F060
:100A100059FF46F21030C0F2200001F081FF46F28B
:100A20006463C0F22003186801F04CFF46F21830EE
:100A3000C0F2200001F074FF46F6B803C0F22003B4
:100A4000186801F03FFF46F22030C0F2200001F0AC
:100A500067FF46F2A863C0F22003186801F032FF76
:100A6000002004F013F901F0F1FD00F09DFA00F010
:100A70009FFA00F07BF900F0D1F8441CE4B2204664
:100A800000F096F846F228302146C0F2200001F02E
:100A900047FF40F21040C2F20000002103F044FE84
:100AA00043F2F03404F0C4F843F2E0330022C2F21F
:100AB00000030221C2F2000446F24830198062703D
:100AC0002170C0F2200001F02BFF46F25830C0F236
:100AD000200001F025FF46F278306178C0F2200056
:100AE00001F01EFF46F280302178C0F2200001F0B4
:100AF00017FF04F04BF945F2494001F029FA04F0E0
:100B0000ADF846F2F400C0F2200003F047FE01F019
:100B1000B3F88020FFF71AFF01F0B6F803F022FDCA
:100B200010F0FF0FF8D101F0F9FDF5E710B50388DB
:100B3000044623B94FF064032380012010BD642BC9
:100B400004D04FF0000303800320F7E782290BD184
:100B500041F2480340F23042C2F20003C2F2000206
:100B6000196810788847E5E70120E7E770B54AF291
:100B70000005C4F20D0504460E4600F005FA4021BA
:100B8000284600F089F944F0100000F043F930469F
:100B900000F040F92846402100F078F900F0FCF917
:100BA00070BDC04610B501200021FFF7DFFF10BD6A
:100BB00010B5022104460120FFF7D8FF4CF6CD43C3
:100BC000CCF6CC43A3FB0423DB0819015A00DB005D
:100BD000D218A41A09190920C9B2FFF7C7FF00F0FB
:100BE000DBF910BD70B54AF20005C4F20D050446EC
:100BF00000F0CAF94021284600F04EF944F0900078
:100C000000F008F900F018F940210446284600F0E9
:100C10003DF900F0C1F9204670BDC04610B5032073
:100C2000FFF7E0FF0309DBB25A00DB00D21800F047
:100C30000F001218D0B210BD10B50120FFF7D2FF7F
:100C400000F0D3010120FFF791FF10BD46F288307C
:100C500010B5C0F2200001F035FE4CF20000012179
:100C6000C4F20D0000F0BCFC10F0010F044620D1CE
:100C700010F0020F2AD110F0040F34D110F0080F39
:100C80000FD040F23043C2F20003032246F2943008
:100C90001A70C0F2200001F015FEFFF7CDFFFFF73C
:100CA00081FF4CF20000C4F20D00E1B200F0A0FCA4
:100CB00010BD40F23043C2F20003002240F2204057
:100CC0001A70C2F2000003F05BFDEAE740F2304325
:100CD000C2F20003012240F220401A70C2F200006A
:100CE00003F04EFDDDE740F23043C2F20003022282
:100CF00040F220401A70C2F2000003F041FDD0E73C
:100D000070B50D4640F64D41C0F220010646132055
:100D1000144600F04FFA00F0A3FC00F0DBFCEDB24B
:100D20004CF200002946C4F20D0000F08DFC224672
:100D30004CF200004CF200042946C4F20D04C4F247
:100D40000D0000F08BFB002E0CBF04220022204679
:100D5000294600F0FDFB2046294600F03BFC00F050
:100D600085FA132000F046FA70BDC04646F2A03066
:100D700010B5C0F2200001F0A5FD4AF200004021AC
:100D8000C4F20D0000F08EF800F0FEF80E20FFF720
:100D900029FF712834D000205821FFF7E7FE0E20EC
:100DA0007121FFF7E3FE04201421FFF7DFFE03208B
:100DB0002421FFF7DBFE02200121FFF7D7FE0720E9
:100DC0001121FFF7D3FE05202721FFF7CFFE0620D4
:100DD0000021FFF7CBFE11210820FFF7C7FE0320FB
:100DE000FFF700FF0309DBB25A00DB0000F00F0140
:100DF000D21846F2AC30C0F22000511801F090FD3C
:100E0000FFF71AFF00F0C8F8012008210422FFF7BD
:100E100077FF10BD014648F2000010B5C4F2000093
:100E200000F0A2F948F20000C4F2000000F0B8F9A6
:100E30000028F7D110BDC04610B582B002AC002327
:100E400044F8043D48F200002146C4F2000000F0DE
:100E50009DF901460028F5D1019048F20000C4F246
:100E6000000000F081F948F20000C4F2000000F038
:100E700097F90028F7D148F20000C4F2000021469B
:100E800000F07AF99DF8040002B010BD10B5002200
:100E900000F0B2FB10BDC04610B50A4600F0ACFB36
:100EA00010BDC04630B585B00D46044600F0D8FBF5
:100EB00000F010FC4FF4807000F078FC48F2000065
:100EC000C4F2000000F04AF948F20000C4F2000049
:100ED000012100F06BF94AF200000422C4F20D0077
:100EE000082100F0CBF92046294600F0A1FB20465E
:100EF0002946002200F080FB4AF20000C4F20D00F7
:100F00001021032200F0BAF94AF2000044F2101254
:100F1000C4F20D02C4F20D00202100F003FA4AF2DF
:100F200000003821C4F20D0000F06AFB00F0DEFB87
:100F3000044600F095FB44F6D353C1F26203A3FBD1
:100F40000020800900220090082348F2000021467A
:100F50000193C4F20000134600F0D0F848F20000FC
:100F6000C4F2000000F0F4F804AC002344F8043D9F
:100F700048F20000C4F20000214600F007F9002802
:100F8000F6D105B030BDC04641F24C02C2F20002BB
:100F9000137801331370704741F24C02C2F2000221
:100FA0001378013B1370704710B504F07BF910BD46
:100FB0004AF2000010B50121C4F20D00FFF772FFE4
:100FC000FFF7E2FF4AF200000121C4F20D00FFF733
:100FD00063FF46F2E430C0F2200001F0A1FC4AF2C7
:100FE00000000121C4F20D00FFF750FF0620FFF7BB
:100FF00011FF4AF200000121C4F20D00FFF74CFF7F
:101000004AF200000121C4F20D00FFF73FFF01206A
:10101000FFF700FF0020FFF7FDFE8820FFF7FAFE34
:101020004AF200000121C4F20D00FFF735FF46F23D
:10103000FC30C0F2200001F073FC4AF200000121F4
:10104000C4F20D00FFF722FF3520FFF7E3FEFFF7A4
:10105000F3FE014646F20840C0F2200001F060FCB9
:101060004AF200000121C4F20D00FFF715FF4AF219
:1010700000000121C4F20D00FFF708FF0620FFF772
:10108000C9FE4AF20000C4F20D000121FFF704FF7F
:101090004AF200000121C4F20D00FFF7F7FE4220E2
:1010A000FFF7B8FE0020FFF7B5FE0020FFF7B2FE05
:1010B0000020FFF7AFFE0020FFF7ACFE4AF2000071
:1010C000C4F20D000121FFF7E7FE4AF20000012102
:1010D000C4F20D00FFF7DAFE0520FFF79BFEFFF7D5
:1010E000ABFE04464AF20000C4F20D000121FFF7F6
:1010F000D3FE002CE9D1FFF74FFF10BD022B10B437
:1011000014461CD0FBB94360019B0022B1FBF3F1F4
:101110000232B1FBF2F303F1FF3CBCF1FF0FF7D851
:101120000261A301029A03F0FF0304F030010B43B4
:10113000013A134343EA0C23036010BC70470633A3
:1011400043F00403DFE7002343F00403DBE7C0467A
:10115000436843F0020343607047C046436823F08E
:10116000020343607047C04600F10C02136813F09D
:10117000020FFBD08160704700F10C02136813F07E
:10118000040FFBD083680B607047C046C3680246FB
:1011900013F004001EBF93680B6001207047C04627
:1011A000C068000900F001007047C046C0F8C81FC1
:1011B0007047C04630B44EF60852CEF20002844664
:1011C000136840F20000C2F2000083420C4605465C
:1011D0000CD011680022535883500432B2F5237F9B
:1011E000F9D14EF60853CEF200031D6040F82C40B2
:1011F00030BC7047042815D005281CD0062823D001
:101200000F282AD00DD9A0F1100146F20C43C0F2EC
:1012100020034A0953F8220001F01F0101238B40EB
:10122000036070474EF62452CEF20002136843F476
:1012300080331360F5E74EF62452CEF200021368B5
:1012400043F400331360ECE74EF62452CEF2000272
:10125000136843F480231360E3E74EF21002CEF2EA
:101260000002136843F002031360DAE710B500F0E0
:10127000B1FA003818BF012010BDC0462DE9F00FAB
:1012800046F2604384B08A464FF0000C4AF20001F7
:1012900046F2A04B4BF2000846F2E0494CF2000641
:1012A00046F2404749F20004C0F220030392C4F220
:1012B0000D016246C0F2200BC4F20D08C0F22009F5
:1012C000C4F20D06C0F22007C4F20D0401930DE034
:1012D000A04224D044F20003C4F20D03039D1D601C
:1012E0000CF1010C0432BCF1080F14D04AFA0CF3D3
:1012F00013F0010FF4D0884208BF5BF80230EDD044
:10130000E6D9404508BF59F80230E7D0B04208BFDF
:10131000BB58DFD1E2E704B0BDE8F00F7047019D94
:10132000AB58DBE74AF20003C4F20D03984225D024
:101330000ED94BF20003C4F20D03984226D04CF2B2
:101340000003C4F20D03984210D0002111607047D1
:1013500049F20003C4F20D039842F6D1022923D0CA
:10136000042927D008292DD10539EFE7012919D003
:1013700002291DD0042929D11631E7E701290FD010
:10138000022913D0042925D10631DFE7012905D030
:10139000022911D0042911D10E31D7E71021D5E748
:1013A0000821D3E71821D1E70121CFE70731CDE7A5
:1013B0001731CBE70239C9E70F31C7E708290DD14B
:1013C0001321C3E710292BD10C39BFE708292BD1F2
:1013D0001B21BBE7082905D10B21B7E7102905D14F
:1013E0000431B3E710290ED10439AFE7202901D128
:1013F0000B39ABE7402901D12A39A7E780290CBF77
:1014000017210021A2E7202901D113399EE74029A5
:1014100001D132399AE780290CBF0F21002195E7CD
:10142000202905D11B3991E710290AD10C318DE70C
:10143000402901D13A3989E780290CBF07210021D1
:1014400084E7202901D1033980E7402901D12239DD
:101450007CE780290CBF1F21002177E72DE9F00FE1
:1014600046F2804384B08A464FF0000C4AF20001F5
:1014700046F2204B4BF2000846F2C0494CF20006FF
:1014800046F2005749F20004C0F220030392C4F26E
:101490000D016246C0F2200BC4F20D08C0F2200913
:1014A000C4F20D06C0F22007C4F20D0401930DE052
:1014B000A04224D044F28003C4F20D03039D1D60BA
:1014C0000CF1010C0432BCF1080F14D04AFA0CF3F1
:1014D00013F0010FF4D0884208BF5BF80230EDD062
:1014E000E6D9404508BF59F80230E7D0B04208BFFE
:1014F000BB58DFD1E2E704B0BDE8F00F7047019DB3
:10150000AB58DBE712F0010F10B4944619D0D0F8B5
:10151000003400F580640B431CF0020F23601EBFF3
:10152000D0F8203400F5846443EA010006D1D0F8F5
:101530002024CB4300F5846403EA0200206010BC41
:101540007047D0F80024CB4300F580641340E3E7F4
:1015500012F0010F10B494460C461DD0D0F8083498
:1015600000F5816123431CF0020F0B601ED0D0F800
:10157000043400F58061043123431CF0040F0B6038
:101580001FD1D0F80C2400F58061E3430C3103EA4D
:101590000200086010BC7047D0F80824E3431340F1
:1015A00000F581611CF0020F0B60E0D1D0F804243B
:1015B000E34300F58061043113401CF0040F0B601D
:1015C000DFD0D0F80C3400F580610C3143EA040020
:1015D000DFE7C046D0F810340B43C0F81034704732
:1015E00011B9D0F814047047D0F81804FBE7C046CE
:1015F000C0F81C147047C04640F821207047C04610
:1016000070B5022204460D46FFF77CFF20462946AE
:101610000022FFF723FF70BD70B5022204460D467D
:10162000FFF770FF204629460022FFF717FF70BD25
:1016300070B5012204460D46FFF764FF2046294697
:101640000022FFF70BFF70BD70B5002204460D4667
:10165000FFF758FF204629460022FFF7FFFE70BD26
:1016600042F20402C4F20D02136803F00703072BD1
:1016700005D8DFE803F0060B10151A1F24290020F7
:10168000704744F60000C0F2E810F9E742F200406B
:10169000C0F2F400F4E741F20020C0F27A00EFE774
:1016A00040F60010C0F23D00EAE748F28040C0F288
:1016B0001E00E5E744F24020C0F20F00E0E74AF2E6
:1016C0002010C0F20700DBE74DF29000C0F20300EB
:1016D000D6E7C04642F20002C4F20D02136823F4BA
:1016E000E06343EA002313607047C04642F20402FD
:1016F000C4F20D02136803F4E0631B0A072B05D83C
:10170000DFE803F0060B10151A1F2429002070478C
:1017100044F60000C0F2E810F9E742F20040C0F2DF
:10172000F400F4E741F20020C0F27A00EFE740F65F
:101730000010C0F23D00EAE748F28040C0F21E000F
:10174000E5E744F24020C0F20F00E0E74AF2201043
:10175000C0F20700DBE74DF29000C0F20300D6E7CD
:10176000030A46F22052C0F2200203F00F0310B425
:1017700000F00F0052F82340012313FA00F0216813
:1017800083B00143013B21600193019A0F2A05D8E0
:10179000019B01330193019A0F2AF9D92268C343AF
:1017A0001340236003B010BC7047C046030A46F2E2
:1017B000345203F00F03C0F2200210B400F00F0007
:1017C00052F823400123834021681943216010BC53
:1017D0007047C046EFF3108062B6704710B440F215
:1017E0002002C4F20202136841F2002443F0100305
:1017F000136048F28043C0F21E03C0F27A0400294D
:1018000008BF1C4601380019B0FBF4F040F20C038D
:101810000138C4F20203186010BC704710B441F2E2
:101820005403C2F2000300241C604EF214024EF670
:101830004703CEF20002C0F201034EF21000136023
:10184000CEF20000036842F2080143F00503036092
:101850000268C4F20D0142F0020202600B6840F21D
:101860000C0243F001030B60C4F2030240F20003D8
:101870001460C4F20303042140F204021960C4F2AC
:101880000302033940F238031160C4F203030F224C
:101890001A6010BC7047C04641F25403C2F2000304
:1018A0001868704741F25003C2F20003186870478D
:1018B00040F22803C4F2030340F20C021860C4F2A1
:1018C0000302136843F001031360136813F0010F60
:1018D000FBD1704710B44EF21002CEF20002136832
:1018E00041F2500423F001031360C2F200042368A4
:1018F00041F2540203EBD0132360C2F200021368DA
:1019000040F23141C3181360C2F200010B781B1A78
:10191000DBB20B700A7812B10B78802B06D92368E2
:10192000013323600A7882F080020A704EF21002BE
:10193000CEF20002136843F00103136010BC70473D
:1019400010B541F25402C2F2000213680133136071
:10195000FEF76CFEA0B940F23140C2F200000378FD
:10196000013BDBB2037002784AB941F25003C2F284
:1019700000031A686FF07F0101321A60017010BD18
:10198000FEF7A6FEE7E7C0467047C04641F258039F
:10199000C2F200031868704710B445F24003C4F265
:1019A0000D031C6845F2440245F24803C4F20D02DF
:1019B000C4F20D031168186845F24C02C4F20D021E
:1019C0000004136840EA0120204340EA036010BC91
:1019D0007047C04641F25803C2F20003002210B51E
:1019E00091201A6000F0A2F9912000F091F900F026
:1019F00029FFFEF71DFF10BD45F2500270B5C4F27D
:101A00000D020646136813F0010FFBD000F0A0F999
:101A100045F24003C4F20D031D6845F2440245F24D
:101A20004803C4F20D02C4F20D031468196845F2AC
:101A30004C02C4F20D020904106841EA0421294352
:101A400041EA0062B31A062BD8BFD61D45F24C03FB
:101A5000310EC4F20D031960320C45F2480302F056
:101A6000FF02C4F20D031A60310A45F2440301F08B
:101A7000FF01C4F20D03196045F2400306F0FF02B6
:101A8000C4F20D031A6000F05FF941F25803C2F28C
:101A900000031E60912000F02DF970BD42F2280372
:101AA000C4F20D031A6812F0010F08D04CF21803AB
:101AB000C4F200031A68D20902F001007047012045
:101AC000FCE7C04641F25C03C2F2000318607047B5
:101AD0004CF21802C4F20002136813F0200FFBD17D
:101AE0004CF20003C4F200031860704770B54CF26A
:101AF0004003C4F2000319684CF2440289B211F0A9
:101B00005004C4F200024FF6BF731EBF4CF2180619
:101B100041F25C054CF2000413601EBFC4F20006E3
:101B2000C2F20005C4F200041CD111F4D06F17D02A
:101B30004CF23000C4F200004FF440724CF2040347
:101B40000260C4F20003FF214CF22C021960C4F2BF
:101B50000002116814601160036843F00103036020
:101B600070BD2368336813F0100FF9D12B68002B78
:101B7000F7D02068C0B29847336813F0100FF5D043
:101B8000EEE7C04641F69D2010B5C0F2200000F0FF
:101B900079FD42F22802C4F20D02136842F22C01D0
:101BA00043F001031360C4F20D010B6842F23000F0
:101BB00043F001030B60C4F20D0003684CF6C872D9
:101BC00043F00103036044F200130024C4F20D0348
:101BD000C4F20002146020461C600121224600F07D
:101BE00067F920460121082200F058F949F2204106
:101BF000C4F20D010B684CF2380043F002030B6095
:101C00000A68C4F2000042F001020A605022026039
:101C100003684CF2340243F4D0630360C4F2000260
:101C200002234CF230001360C4F200004FF4407203
:101C30004CF2240302600821C4F200034CF2280293
:101C40001960C4F200022C234CF22C011360C4F280
:101C5000000170220A60036843F00103036005205D
:101C600000F048F810BDC04645F20003C4F20D0371
:101C700000221A607047C04645F20003C4F20D030B
:101C800008221A607047C04645F20003C4F20D03F3
:101C9000A02250211A6019607047C04641F26C03BF
:101CA0004EF20011C2F20003CEF20001196041F2BF
:101CB00060024EF28011C2F20002CEF20001116009
:101CC00041F264034EF20021C2F20003CEF20001A1
:101CD000196041F268024EF28021C2F20002CEF297
:101CE00000014EF608531160CEF200034FF40012CB
:101CF0001A60704741F26C03C2F2000341091A688E
:101D000000F01F000123834042F821307047C04695
:101D100041F26003C2F2000341091A6800F01F009B
:101D20000123834042F821307047C04641F26803E6
:101D3000C2F2000341091A6800F01F00012383402A
:101D400042F821307047C046EFF3108062B670470A
:101D5000EFF3108072B6704742F2000240F20113B6
:101D6000C4F20D02C0F2021342F204011360C4F285
:101D70000D010A6840F20003C0F2011302EA0303F6
:101D8000B3F1807FF5D1704741F27003C2F20003D6
:101D90004A012DE9F04105460F469E18002455FAE8
:101DA00004F313F0010FE1B204D056F824300BB164
:101DB000384698470134082CF1D1BDE8F081C0467F
:101DC00041F2700010B500218022C2F2000004F040
:101DD0004DF910BD10B500F035FD4CF21843C4F2BA
:101DE0000D0318680321C0B2FFF7CEFF4CF21C436D
:101DF000C4F20D03FF221A6010BDC04610B500F0FA
:101E000021FD4BF21843C4F20D0318680221C0B241
:101E1000FFF7BAFF4BF21C43C4F20D03FF221A6016
:101E200010BDC04610B500F00DFD4AF21843C4F2D3
:101E30000D0318680121C0B2FFF7A6FF4AF21C4348
:101E4000C4F20D03FF221A6010BDC04610B500F0A9
:101E5000F9FC49F21843C4F20D0318680021C0B21E
:101E6000FFF792FF49F21C43C4F20D03FF221A60F0
:101E700010BDC04641F2F40344F28001C2F20003F7
:101E8000C4F20D01196041F2F00244F20003C2F203
:101E90000002C4F20D0313607047C04641F2F40320
:101EA000C000C2F200030918186840F821207047EA
:101EB00041F2F003C000C2F200030918186840F8AC
:101EC00021207047A0F10B03DBB20F2B98BF48F223
:101ED0004C6210B4844698BFC4F2080235D8136827
:101EE00013F0020FFBD148F63801ED23C4F20801CC
:101EF00048F22C620B60C4F208020B6013680BBB43
:101F000041F2F804C2F2000420784FEA8C0200F09B
:101F10007F00624448F23C632C3AC4F2080348F65E
:101F200038016FEA40601A60C4F20801ED226FEADE
:101F30005060E3230A600A600B602070604640B284
:101F400010BC7047EF230B60DAE7FF20F7E7C046CD
:101F500048F2C85300F0FF02C4F208031A6048F2C6
:101F6000CC53000AC4F2080343F2F0321860C2F204
:101F70000002517848F2D053C4F208031960107877
:101F800048F2D453C4F208031860704710B448F202
:101F90004863C4F208031A6812F03F0F1CBF41F2F5
:101FA000F800C2F2000019D141F2F800C2F20000BC
:101FB000037843F0100C1CF0800F80F800C00DD1A6
:101FC00048F63802C4F20802ED23136013606FEA8A
:101FD0004C63E3216FEA53631160037048F264625B
:101FE000C4F20802136813F0010FFBD090F800C090
:101FF00048F24C63C4F208031CF0100F1C6814D0A4
:102000001A46136813F0020FFBD148F63801ED238E
:10201000C4F2080148F22C620B60C4F208020B60A3
:1020200013683BB90CF06F030370200900F0010046
:1020300010BC7047EF230B60F4E7C04641F2F80094
:10204000C2F2000090F800C01CF0800F0DD148F6DD
:102050003802C4F20802ED23136013606FEA4C6388
:10206000E3216FEA53631160037001207047C0469B
:1020700048F24C62C4F20802136813F0020FFBD15D
:1020800048F63801ED23C4F2080148F22C620B60D7
:10209000C4F208020B6013680BB1EF230B6041F22E
:1020A000F802C2F200021378012003F07F031370DC
:1020B0007047C04648F24C63C4F20803186800F049
:1020C0002200202814BF00200120704748F24C63F2
:1020D000C4F20803186800F04000704770B548F279
:1020E0004C63C4F208031A68844612F040002CD0F6
:1020F00048F62800C4F208000368DBB213F0800F32
:102100001BD1042B19D9023B8B4216DCDDB2032D07
:102110003CD845B1002201460B680CF80230013270
:10212000D3B29D42F8D848F62803C4F208031968D0
:102130001A68D4B214F0800F08D148F63803C4F2FC
:102140000803ED221A6000201A6070BD493949B2B7
:10215000042089B202F0B8FE032004F07F0102F0EF
:10216000B3FE48F24C62C4F20802136813F0400F49
:102170000AD0136813F0800F24D148F63803C4F254
:102180000803ED221A601A602846DEE76C1E0CEB8D
:102190000401032000F000FA4CF202012401C0F611
:1021A0000141032044EA010100F000FA032000F09D
:1021B00009FA032000F01EFA032000F027FA002895
:1021C000FAD1B0E740F23440C2F2000002F0D8FA8F
:1021D0002846BAE710B548F62C03C4F208031A687B
:1021E00040F23440042A1EBF41F2F802C2F200025B
:1021F0001378C2F200001CBF43F04003137048F68E
:102200002C03C4F2080300221A6002F0B9FA10BDD0
:1022100040F2344010B5C2F2000002F0B1FA48F6C4
:102220003403C4F2080300221A6010BD70B541F2F5
:10223000F805C2F2000595F90030002B20DBFFF70E
:10224000ABFB2C7814F0800F0DD148F63802C4F2A5
:102250000802ED23136013606FEA4463E3216FEA21
:10226000536311602B702B784FF6F67443F0100314
:10227000CFF6FF742B70241AFFF78EFBE042FBD4DD
:10228000FFF784FE002852D048F24C64C4F20804E0
:10229000236813F0200F4AD148F63803E922C4F22C
:1022A00008031A60216811F0020F11D10620FFF710
:1022B000FFFA236813F0020F0AD10620FFF7F8FA9D
:1022C000236813F0020F03D10620FFF7F1FA21680B
:1022D00048F24C62C4F20802136813F0020F28D1CE
:1022E00048F63803C4F20803EE221A6001201A608F
:1022F0002C7814F0100F1BD048F24C62C4F2080284
:10230000136813F0020FFBD148F63801ED23C4F235
:10231000080148F22C620B60C4F208020B601368DB
:102320000BB1EF230B6004F06F032B7000E0022071
:1023300070BD136813F00200DAD0136813F00200C6
:10234000F7D1D5E748F24C6210B584460C46C4F28A
:102350000802136813F0020FFBD141F2F800C2F239
:10236000000090F800E01EF0800F0DD148F6380212
:10237000C4F20802ED23136013606FEA4E63E32199
:102380006FEA53631160037048F63803EE22C4F21B
:1023900008031A601A6048F62803C4F20803A11C57
:1023A000013C196002200CEB040100F0EBF84CF248
:1023B00002012401CCF2010144EA0101022000F0F3
:1023C000F5F8022000F0FEF8022000F013F90020DA
:1023D00010BDC04610B50C46FFF7B4FF2046FFF70E
:1023E00025FF10BD2DE9F04141F2F806C2F20006CA
:1023F000337813F0010702D00020BDE8F08142F2EB
:10240000A8020125C4F20D0242F2AC031560C4F229
:102410000D0342F2B0021D60C4F20D0248F258638F
:102420001560C4F20803F82148F2E8721960C4F29A
:102430000802EF3948F2C8631160C4F2080315229C
:1024400048F224611A60C4F208010B2004232B32E5
:1024500018600A600B6848F2086243F020030B60C2
:10246000C4F2080248F250631760C4F208037F24E4
:1024700048F240621C60C4F20802772313600E30F9
:102480001268FFF71FFD48F28C62C4F2080213685D
:102490008D2043F004031360FFF72CFC48F2946393
:1024A000C4F208031C608E20FFF724FC022000F019
:1024B00095F848F62801C4F20801022000F06CF8F3
:1024C000032000F08BF848F628010320C4F208012D
:1024D00000F058F840F23440C2F20000394602F0F1
:1024E00023F9337828462B43337086E710B50288EA
:1024F000044622B940F29E232380012010BD40F201
:102500009E239A4204D04FF0000303800320F5E796
:10251000822935D102F032FD02F090FC8021FFF7D4
:10252000DDFD002808DD80B202F082FC46F2A863DF
:10253000C0F220031A69904741F2F800C2F200008D
:10254000037813F0400FD5D048F24C62C4F2080271
:10255000136813F0020FFBD148F63801ED23C4F2E3
:10256000080148F22C620B60C4F208020B60136889
:102570000BB1EF230B6000230370FFF733FFB9E7C4
:102580000120BBE7032805D841F20043C2F2000353
:10259000020199507047C046032806D841F2004313
:1025A000C2F2000302019B1859607047032807D844
:1025B00041F200424300C2F20002013342F83310FC
:1025C0007047C046032808D8012282404FF22803F2
:1025D000C4F20F0319680A431A607047032808D829
:1025E000012282404FF22003C4F20F0319680A430C
:1025F0001A607047032808D8012282404FF2140362
:10260000C4F20F0319680A431A60704703280AD8F6
:10261000420041F20043C2F20003013253F832108B
:1026200001F0070070470020FCE7C0464FF204535A
:10263000C4F20F034FF0FF321A6070474FF24C03A1
:10264000C4F20F0301221A607047C04610B541F270
:102650000044C2F2000400214022204603F006FD9F
:102660004FF204024FF20803C4F20F020121C4F238
:102670000F0311602E201C60FFF73CFB2F20FFF79B
:1026800039FB10BD41F60402C2F200021368834216
:1026900004D02BB15368834200D003B1704701339B
:1026A00042F82300FAE7C04642F258030020C4F281
:1026B0000D034EF610511860CEF200010B6841F682
:1026C000000243F004030B6043F2E4310123C2F241
:1026D0000001C2F2000213700B4643F8040B0433EE
:1026E000486018607047C04670B5FFF755F941F66D
:1026F0000C03C2F20003186030BF43F2E435C2F2AB
:1027000000052C68FFF748F941F60C03C2F20003FC
:102710001A68A41A24182C6070BDC04670B548F21F
:102720004863C4F208031A6812F03F0F11D141F652
:102730000404C2F2000423682BB1984748B16368CF
:102740000BB1984728B141F60004C2F20004237887
:1027500013B9FFF7C9FF70BDFFF718F90546FFF77A
:102760001BF9D5F1010338BF0023281A092898BFA7
:1027700043F00103002BECD142F20402C4F20D023B
:10278000136813F4801FFBD142F20002C4F20D0261
:10279000136843F48033136042F20402C4F20D0262
:1027A000136813F4803FFBD0FFF7F6F8281A0928C6
:1027B00030D9632808D92278022A02BF42F258038E
:1027C000C4F20D031A6005D042F25803C4F20D039F
:1027D00001221A60FFF7E0F841F60C03C2F2000391
:1027E000186001F05DFF30B342F20002C4F20D0246
:1027F000136823F48033136042F20402C4F20D0222
:10280000136813F48031FBD142F25803C4F20D0374
:102810001960A0E742F20002C4F20D02136823F42B
:102820008033136042F20402C4F20D02136813F401
:10283000803FFBD18FE7FFF7A9F80028D4D030BF45
:1028400089E7C04670B542F25802C4F20D0213681F
:1028500082B013F0030F01D102B070BD126843F2D1
:10286000E43602F00302C2F2000656F8224001925A
:10287000FFF792F841F60C05C2F200052B68019AA9
:10288000E41A241846F82240FFF786F82B68C01A8D
:10289000000AFFF71FF842F20002C4F20D021368AB
:1028A00023F48033136042F20402C4F20D02136871
:1028B00013F48031FBD142F25803C4F20D031960C6
:1028C000CAE7C04670B50546007870B1002401E043
:1028D000285D28B10134FFF7FBF82B19002BF7D145
:1028E0000A20FFF7F5F8204670BD0446F8E7C04619
:1028F00070B50E46054680B1007870B169B100240C
:1029000003E0285D38B1A64205D90134FFF7E0F8AD
:102910002B19002BF5D1204670BD0024FBE7C046E3
:102920000FB400B583B004AA52F8041B40F244402F
:10293000C2F20000019200F031F803B05DF804EB40
:1029400004B07047084610B511460AB1FFF7D0FF32
:10295000002010BD102970B505460C4603D80FE0C5
:10296000103C102C0CD946F288512B686868C0F2D4
:1029700020011022984703460028F1D0184670BD68
:102980000CB92346FAE746F288512B686868C0F212
:102990002001224698470346F0E7C0462DE9F04F54
:1029A00091B002900FAB914600200DF13F020990CB
:1029B000019200930B78002B00F01181252B00F081
:1029C0004F834B784A1C14462BB1252B03D014F8A7
:1029D000013F002BF9D1A14210D00298651A03687B
:1029E0002A4640689847002840F0D2820999491940
:1029F00009912378002B00F05E84621C1178002975
:102A000000F0ED8010460026A1F120038046102B37
:102A10000AD8DFE803F0C40909BF0909090909094F
:102A200009BA09B50909B000A1F13103DBB2082BDD
:102A300000F22E812F2940F22D81392900F22A81BE
:102A4000002702E0392900F284817B00FA009B18FC
:102A50005B1818F8011FA3F130072F29F2D84C4654
:102A60002E2900F01D814FF0FF32A14604926C29FF
:102A700000F03881682900F07081782900F2968092
:102A8000DFE811F0AD0094009400940094009400ED
:102A90009400940094009400940094009400940096
:102AA0009400940094009400940094009400940086
:102AB0009400940094009400940094009400940076
:102AC0009400940094009400940094009400DA021E
:102AD0009400940094009400940094009400940056
:102AE0009400940094009400940094009400940046
:102AF0009400940094009400940094009400940036
:102B0000940094009400D702940094009400D4029E
:102B1000D102CE029400940094009400940094009A
:102B20009400940094009400940094009400940005
:102B300094009400CB0294009400940094009400BC
:102B4000940094009400C8029400C502C202BF021F
:102B5000BC02B9029400C202940094009400940054
:102B60009200E602E30294009400E0029400DD0289
:102B700094009400E90246F0100610F8011F43E7A4
:102B800046F0010610F8011F3EE746F0060610F871
:102B9000011F39E746F0080610F8011F34E746F038
:102BA000020610F8011F2FE746F4E06606F4E06322
:102BB000B3F5806F00F0048100F29F80B3F5807F51
:102BC00000F03F81B3F5407F0DD0CDF8209008F1A3
:102BD00001010B78DDF82090002B7FF4EFAE09980F
:102BE00011B0BDE8F08F09F10403089346F2B0522A
:102BF00046F29C53D9F800100020C0F22002C0F227
:102C0000200316F4804F14BF15461D46002900F01E
:102C100057830FAC01F00F03EA5C0B0943EA007124
:102C2000000904F8012D51EA0002F3D12146009B6E
:102C30001A1B00F0DA81D41C782301F8013C4A1EEB
:102C4000483B511E02F8013C0D3BBC4201F1FF39EB
:102C500001F8013CC0F00282002516F0010706D100
:102C600002982946FFF776FE002840F091810298ED
:102C700049460368224640689847002840F088810A
:102C8000002F40F0EF81099963185D1909959EE7BF
:102C90002A296DD0017800272E294C467FF4E3AE17
:102CA00018F8010FA0F13003DBB2092B01466DD8F3
:102CB0002F2840F20283392800F2FF82002201E02F
:102CC000392809D85300D2009B181B1818F8010F97
:102CD000A3F130022F28F3D8049201466C29A146B3
:102CE0007FF4C8AE18F8011F6C2906BF46F08006B5
:102CF00018F8011F46F06006BFE6B3F5C06F4FD06D
:102D0000B3F5E06F00F09580B3F5A06F7FF45DAF91
:102D100009F104020892D9F80030012F8DF83F30F4
:102D200040F2B7817C1E16F0010700F05481029832
:102D30000DF13F010368012240689847002840F0E8
:102D40002781002F40F0A7810999631CC9180991B8
:102D50003DE74FF0FF33049389E618F8011F682917
:102D600006BF46F0200618F8011F46F0400684E62C
:102D7000D9F8002009F10404002ABABF46F0010680
:102D80001746174600F10108417869E62A287FF4C2
:102D90006AAE04F104092468049418F8011F66E679
:102DA000029846F298510368C0F22001406801225F
:102DB0009847002840F0EC8009990131099104E717
:102DC00009F104030893D9F80040002C00F0688250
:102DD0002378002B00F0C182224612F8013F002B1D
:102DE000FBD1049B121B9A4294BF0021012104983D
:102DF000C34311EAD373054608BF1546BD422CBF35
:102E00004FF00009C5EB070916F0010700F0D98063
:102E100002992A460B68486821469847002840F0E6
:102E2000B780002F40F02B81099AAB184B440993CF
:102E3000CDE609F104020892D9F80030099818602B
:102E4000C5E6049A002AA8BF26F01006C0F2148135
:102E500016F40050039000F09E8006F0E003402B33
:102E600000F04A8200F22181002B40F02C8209F10F
:102E700004030893D9F800301A464FEAE273002B96
:102E8000C0F20782DDF8209092469B460023CDF8E1
:102E90002090079306F4C053B3F5805F00F0BD8126
:102EA000B3F5C05F00F08F81B3F5006F00F066816D
:102EB00000230DF13F0905930599049A9142C0F052
:102EC0000D8141F608020023C0F20002069306EAD3
:102ED000020241F208039A4200F00F810599069B15
:102EE000581841F608039A4214BF002201225AEAF8
:102EF0000B014FF0000318BF012312EA030104BFC6
:102F00000C4625460DD046F2C85246F2C45316F47C
:102F1000804FC0F22002C0F2200314BF14461C46AA
:102F20000225039A42B1079B002B00F0188146F25C
:102F30004814C0F2200401252918B9422CBF4FF0D3
:102F4000000AC1EB070A16F0010707D116F0100FAF
:102F500000F08081069850440690BA46002D40F05B
:102F6000E980069A102A98BF144640F2CD80069C4C
:102F700003E0103C102C40F2C780029846F2D85172
:102F80000368C0F220014068102298470028F0D062
:102F90004FF0FF3024E606F0E003402B00F0D28132
:102FA00040F28E80602B00F0C281802B00F0B38154
:102FB0000020CDF820904FF0000A4FF0000B079052
:102FC00068E702984946FFF7C5FC00283FF420AFA8
:102FD0004FF0FF3004E602982146FFF7BBFC0028C3
:102FE000D6D1099B1B190993A1E63023611E04F871
:102FF000013C042420E646F48136D7E546F4007609
:10300000D4E546F40246D1E546F42456CEE546F42E
:10301000A066CBE546F4C136C8E546F4B246C5E540
:1030200046F4A136C2E546F48446BFE546F442467E
:10303000BCE546F4E136B9E546F4C066B6E546F4CB
:103040001066B3E546F48066B0E546F44076ADE53B
:1030500046F48856AAE546F4C856A7E53D1BFCE5AC
:103060004A1CCBE402982946FFF774FC00283FF481
:103070000AAE4FF0FF30B3E501230493E8E602986F
:103080004946FFF767FC00283FF4CEAE4FF0FF3013
:10309000A6E5002447E602982146FFF75BFC0028DE
:1030A0003FF452AE4FF0FF309AE5602B00F06281A2
:1030B000802B00F055814FF0000A4FF0000BE5E641
:1030C000002B40F00C8109F104010891D9F800307F
:1030D000039A9A464FF0000B0792DBE641F608028E
:1030E00004980599C0F2000206EA020241F20803C0
:1030F000401A9A4206907FF4F1AE0698002840F0FC
:10310000C28001210691E9E6002C40F0AD80029AD0
:10311000494613685068059A984700287FF438AFED
:10312000A7B909990598069A43185B199B18534447
:1031300009934CE502992A460B684868214698474E
:1031400000283FF40EAF4FF0FF3049E5029851469A
:10315000FFF700FC0028E4D04FF0FF3040E506F018
:103160000602022A00F0D18046F2CC53062AC0F2B1
:10317000200308BF1C4608BF0125DDE65AEA0B0103
:1031800004BF0DF13F020DF13F0918D00DF13F09C9
:1031900054465D46204629460A22002302F058FA8A
:1031A000303209F8012D204629460A22002302F078
:1031B0004FFA50EA010204460D46EBD14A46019B04
:1031C0009A1A059278E646F2B05246F29C53C0F243
:1031D000200216F4804FC0F2200314BF15461D468E
:1031E0005AEA0B0204BF0DF13F040DF13F0910D064
:1031F0000DF13F045146584601F00F03EA5C0B09FC
:1032000043EA0071000951EA000304F8012DF3D1EB
:10321000A1460198041B05944EE65AEA0B0004BF30
:103220000DF13F000DF13F0910D00DF13F00524666
:10323000594602F00703D208303342EA4172C90806
:1032400000F8013D52EA0103F3D181460199081AC1
:10325000059031E602985146FFF77CFB00283FF4C9
:103260007DAE4FF0FF30BBE4029922460B68486800
:1032700046F2D851C0F22001984700283FF447AFEA
:103280004FF0FF30ACE40699059A002488182546D3
:1032900047E6D2F1000A63EB430B01220792F9E5FE
:1032A000049846F2D05405288CBF00210121062243
:1032B000C0F220049BE5084692E4002104910CE54D
:1032C0000FAC0FA9B3E4202B7FF4F5AE09F1040194
:1032D000089199F900301A464FEAE273CFE5202BA6
:1032E0007FF466AE09F10401039A089199F800A0F1
:1032F0004FF0000B0792CDE509F104020892B9F9ED
:1033000000301A464FEAE273B9E546F27434C0F26F
:103310002004012510E609F1070323F0070303F158
:103320000801039A0891D3E900AB0792B2E509F1CD
:1033300004030893D9F8003003989A464FF0000B25
:103340000790A7E509F104030893B9F80030039842
:103350009A464FF0000B07909CE51A46194646E541
:1033600009F1070323F0070303F108010891D3E9EA
:10337000002384E509F104000890D9F800301A46CA
:103380004FEAE2737BE5C04610B5022202F0F2FD7F
:10339000D0F1010038BF002010BDC04610B5022298
:1033A00002F018FE10BDC04670B500F0F9F90546F0
:1033B00041F61000C2F2000001F038FB044640B1B3
:1033C000636803B19847204601F09CFB044600283F
:1033D000F6D115B1284600F0A9F970BD10B501F07D
:1033E0004DFF01F0CBFD00F093F800F0E9F9022069
:1033F0004FF400714FF4F0524FF4E12300F092F8D3
:1034000010BDC04610B5044600F0B8F900B910BDB3
:1034100001F042FE46F6B803C0F2200343F2314009
:10342000C0F220009A68214690470120EFE7C0468D
:1034300001292DE9F04107460D46164631D00229F3
:1034400027D0F1B146F24060C0F22000FFF768FAE1
:1034500041F61000C2F2000001F0E8FA044648B15B
:10346000A3680BB128469847204601F04BFB044661
:103470000028F5D138462946324600F05DF9BDE80E
:10348000F08146F228601146C0F22000FFF748FAAA
:10349000DEE746F20C601146C0F22000FFF740FA6A
:1034A000D6E746F2EC501146C0F22000FFF738FA9A
:1034B000CEE7C04641F61803C2F200031860704719
:1034C00041F6140010B5C2F2000001F0AFFA10BDD1
:1034D0002DE9F041064641F61400C2F200001746FD
:1034E0000C4601F0A3FA024628B90EE0104601F09E
:1034F00009FB024648B19388A342F7D1956825B1EC
:103500001046314622463B46A847BDE8F081C046FA
:1035100041F6140010B5C2F2000001F083FA10BDAC
:103520007047C0462DE9704A41F61C04C2F20004FF
:103530000546914646F270620E4620462946C0F284
:1035400020029B4600F0CAF843F20560C0F220005A
:10355000A665C4F85C90C4F860B0FFF7ABFFBDE8A7
:10356000708AC046F0B583B00F4601F067FC05468F
:10357000022229460DF1060002F02CFDBDF806409E
:1035800001F08CFCA4000234844218D8BDF8063047
:10359000ABB1023500240DF1020629460422304663
:1035A00002F018FD3846BDF80210BDF80420FFF700
:1035B0008FFFBDF8063001340435A342EDDC03B0C3
:1035C000F0BDC04610B541F61C04C2F2000443F23F
:1035D0002562616E002304F13800C0F2200201F080
:1035E000FBFA01F03DFB616E43F24562B0FBF1F383
:1035F00003FB1101C0F2200204F11800002301F0C6
:10360000EBFA10BD10B59DF80830012B00D010BDAD
:1036100041F61C03C2F200039A6D5A66FFF7D2FF0F
:10362000F5E7C04610B541F61C03C2F200035A6E1E
:10363000196E52008A4294BF5A665966FFF7C2FF5C
:1036400010BDC04610B501F099FC01F0F7FB4FF03A
:10365000000202800446FFF733FF014690B914E0F0
:1036600023888A889B00E3185A802288CB8892009E
:10367000A2189380238808460133238001F042FA80
:10368000014610B10B7B002BEAD123884FF6FE7068
:103690009B000233C0F2000003EA000001F0C8FB07
:1036A00023882BB141F61C00C2F2000000F008F89C
:1036B00010BDC04610B543695B6803B1984710BDA3
:1036C00043F2F03110B5C2F200010446182001F0B7
:1036D00015FC204600F036F810BDC04670B5154602
:1036E00046F27C62C0F2200204460E4600F02EF83C
:1036F00046F2786165613046C0F2200100F086F83C
:1037000070BDC04630B5044683B0182001F0ECFB14
:103710000DF1060501462846FFF740FE63691B6868
:1037200013B120462946984703B030BD10B5036950
:103730001B6803B1984710BD10B503695B6803B1FE
:10374000984710BD10B5FFF75DFE10BD70B504467B
:103750000E46154600F04EF846F28461256130466B
:10376000C0F2200100F052F870BDC04646F28863F6
:10377000C0F2200310B59A68904710BD46F28863E6
:10378000C0F2200370B55A6805469047A9880446E0
:10379000012001F099FB201E18BF012070BDC0461A
:1037A00046F28863C0F2200310B51A6890470446B9
:1037B00018B10120A18801F087FB204610BDC0464A
:1037C00010B500F02FF810BD10B5044641F6880082
:1037D000C2F2000001F02AF9024628B907E01046BB
:1037E00001F090F9024610B19388A342F7D1104638
:1037F00010BDC046034610B5818041F68800C2F274
:103800000000194601F014F910BDC04670B50D4610
:10381000FFF7DAFF044620B185602846FFF7A6FFD0
:10382000207370BD41F6880010B5C2F2000001F0AF
:10383000F9F810BD072BF0B40746154608461C469C
:1038400040DDC2B94FEAE30C835CBB5401326245F0
:10385000FADB14F007040CD046F29463C0F22003A4
:1038600010F80C101A5DC4F108031140194107F853
:103870000C10F0BC7047DE104FF0000C00EB0C0297
:1038800010F80C10537843EA0123AB401B1207F8E1
:103890000C300CF1010CB445F0DB14F00704E8D057
:1038A0008319825D597846F2946341EA0221A94066
:1038B000C0F220031A5DC4F1080302EA21221A4172
:1038C000BA55D6E70B78497841EA0321914046F290
:1038D0009463C0F220031A5DC4F1080302EA2122B6
:1038E0001A413A70C5E7C046037843B100214378D6
:1038F00010F8022FC918002AF9D108467047194656
:10390000FBE7C046072B2DE9F00304468946154620
:103910001E4650DD09BB4FEAE30C6B5C635401317A
:103920006145FADB16F0070114D015F80C20C1F13F
:1039300008031A41C1F11003D2B29A4014F80C30B6
:1039400092B243EA122304EB0C0004F80C304178E5
:103950000A434270BDE8F0037047DF10C1F1080868
:1039600000204FF0010C2B5C225C03FA08F39BB2A1
:1039700042EA1322225414F80C1001300B43B842CF
:1039800004F80C300CF1010CEDDB16F00701E1D06E
:10399000EA5D09F108035B1A1A41C1F11003D2B2C2
:1039A0009A40E35D92B243EA1223E019E35541786D
:1039B0000A434270CEE71278C1F110039B1B9A4074
:1039C0004178037892B243EA12230A4303704270AB
:1039D000C0E7C0462DE9F043027B044612F007031E
:1039E00018BF012303EBD20583B0A81C01F0E8F94E
:1039F00010B903B0BDE8F08301F02EFAA28802707E
:103A0000A3881B0A437001F027FA00F10208404620
:103A100000212A4602F02AFBA368187830B31C461E
:103A200000250DF106090DE001F05EFA05F0070131
:103A30000246334608EB0700FFF764FF14F8020F55
:103A4000A0B1AD19EF1017286678EDD801F044FA4F
:103A500005F00701ADF806004A4608EB07003346BB
:103A6000FFF750FF14F8020F0028EAD10120C0E749
:103A70002DE9F04782B001F0E1F90446022001F09F
:103A8000BFF920B90024204602B0BDE8F087607875
:103A900023780002C01880B2FFF796FE0446002883
:103AA000F1D001F0CBF9237B804613F0070018BF5B
:103AB000012000EBD30001F0A3F90028E2D0A268B6
:103AC0001378002BDFD0154600260DF1040A0DF106
:103AD000060910E008EB0201484606F007023B46E3
:103AE000FFF7A8FE2878494601F008FA15F8023FCA
:103AF000002BC8D0F619F210172B6F78EAD84FF0C8
:103B0000000308EB0201ADF80430504606F007024E
:103B10003B46FFF78FFE2878BDF8041001F0D4F97A
:103B2000E4E7C04646F24C53C0F2200310B51A6ACF
:103B3000904710BD10B530B946F24C53C0F2200387
:103B40005A6A904710BD46F24C53C0F220031A6ADD
:103B50009047F7E70020704746F24C53C0F220032D
:103B600010B51A6A904710BD2DE9F04101F096F9A1
:103B700001F064F901F092F9032851D046F2C863CC
:103B8000C0F220035A689047002849DB192001F051
:103B9000ABF943F2F031C2F20001FFF7F5FB002868
:103BA00040D041F68C060027C2F200063C463D4656
:103BB000B04603E001340335082C15D00D2001F088
:103BC0008BF973199A788242F4D1182001F08CF99C
:103BD000610009194144FFF7D7FB0134002818BFE1
:103BE00001270335082CE9D1D7B9144DEC1E28461E
:103BF0000322214602F0EEF9A6422546F6D10D2019
:103C000001F06AF9A070182001F06EF90146204613
:103C1000FFF7C4FB46F6B803C0F22003DA6890470A
:103C2000BDE8F081192001F05FF946F2E851C0F2D9
:103C30002001FFF7A9FB0028B3D1F1E7A11800206C
:103C40002DE9F043884643F2F03183B0C2F200011F
:103C50000746182001F052F901210B2001F034F938
:103C600046F2C863C0F220031A689047002827DB99
:103C700001F0F2F846F24C56C0F22006756890F852
:103C8000029001F0E9F8044601F00EF901462046E1
:103C9000A847192001F028F946F2E851C0F22001A6
:103CA000FFF772FBB36905469847C0B99DB1B46888
:103CB00001F0FAF8A047A0B9BDB10124002201E04B
:103CC0000522002438464146012300F069F82046C9
:103CD00003B0BDE8F083F36998470028E7D00122DC
:103CE000EFE70228FBD00422EBE7FDF755FE044680
:103CF000FDF7CAFF4FF6F375CFF6FF752D1BFDF7E5
:103D00004BFEE842FBD446F24C54B369C0F22004A7
:103D1000984710B9E369984720B3FDF73DFE044684
:103D2000FDF7B2FF4FF6EB75CFF6FF752D1BFDF7D4
:103D300033FEE842FBD446F24C54F369C0F220044F
:103D4000984708B90222BCE7032123690DF1050059
:103D500098470328C3D19DF807304B45BFD10124B4
:103D60000022AFE7636998470028EBD1D5E7C0464A
:103D700070B5134606460D4612B90BE023464CB10A
:103D800058681C6801F0DAF930462946FFF758FFF9
:103D90000028F3D170BDC04610B5FFF751FF10BD2C
:103DA00010B5844618B1084611461A46E04710BDC2
:103DB00030B591B001F072F801AD044601F03EF863
:103DC00021462A4601F0A8FA18B94FF0FF3011B089
:103DD00030BD9DF83C00201A01F012F80028F4D004
:103DE0009DF8090090B90DF11A01182001F086F82C
:103DF0009DF80610122001F067F80D209DF80C10B8
:103E000001F062F89DF83C30E01AE0E7BDF80E30B2
:103E10004FF6FF729A1A18BF012245F249418B42B0
:103E20000CBF002202F00102002ACED102280CBFF2
:103E30000221082101E00029D5DD01396B181A7B28
:103E4000FF2AF8D0192004A901F058F8CBE7C046A2
:103E500030B591B001AD3C222846002102F006F9B0
:103E600041F6A502C2F200021378002B00F0858013
:103E70000123002412208DF804308DF8054001F054
:103E80002BF88DF80600192001F02EF846F2E851C3
:103E9000C0F22001FFF778FA002868D08DF80740BB
:103EA00000230A208DF808308DF80A3001F014F84C
:103EB00000283DD00A2001F00FF88DF80C0045F2E3
:103EC0004943022419208DF80B40ADF80E3001F063
:103ED0000BF846F2E851C0F22001FFF755FA00282E
:103EE0003BD04FF0FF338DF809408DF810308DF83E
:103EF000113043F2F03145F24943C2F200010DF1B5
:103F00001A00ADF81830FFF749FA00F097FF0E904D
:103F100000F0C4FF8DF83C00284601F081FB044608
:103F200000F04EFF88B94FF0FF34204611B030BD8D
:103F300041F6A403C2F2000319780A204A1C1A7041
:103F40008DF80C1000F0C0FFB9E700F085FF2246A5
:103F50000146284601F0D0FAE7E7192000F0C4FF37
:103F6000014604A8FFF71AFA8DF80940C1E70B20B3
:103F700000F0B2FF8DF8070092E70133137000F0F4
:103F80006FFE41F6A403C2F20003187070E7C0464A
:103F900046F26463C0F2200310B59A68904710BDE2
:103FA00046F2A863C0F2200310B55A69904710BDCD
:103FB00046F2A863C0F2200310B59A69904710BD7D
:103FC00046F2A863C0F22003D86910B500B180475B
:103FD00010BDC0462DE9F04107461920884600F083
:103FE00083FF41F67C12C2F200021388054613B922
:103FF0004FF00103138011880A204B1C138000F03E
:1040000063FF41F61810C2F2000000F00FFD0446F5
:1040100030B93DE0204600F075FD0446002837D059
:10402000201D2946FFF7B0F90028F3D040F2644084
:10403000C2F2000000F07AFC0646002864D040F28C
:104040004C40C2F2000000F071FCB06000284ED07D
:1040500001F0DAF8706000283CD00920B56800F063
:104060003BFF002866D103232B720E202F60C5F87A
:10407000048000F031FF012857D0206B314600F05A
:10408000D7FC206B00F0D2FC86426ED0BDE8F081F8
:1040900040F25840C2F2000000F048FC04460028FC
:1040A0005CD02946201DFFF779F9002304F12C008C
:1040B000206384F8283084F8293084F82A30E362B9
:1040C00000F0B0FC41F61810C2F20000214600F0EA
:1040D000AFFCABE740F24C40C2F20000B16800F028
:1040E00041FC46F2D060C0F22000FEF7EBFB40F24C
:1040F0006440C2F20000314600F034FC46F2D06069
:10410000C0F22000FEF7DEFB206B00F0EFFCB0B148
:1041100046F20470C0F22000FEF7D4FB3846414658
:1041200004220123FFF73CFEB0E7206B314600F08C
:10413000A7FCA6E7092000F0CFFE287295E741F61C
:1041400018102146C2F2000000F0BAFC40F25840BC
:104150002146C2F2000000F005FCD9E746F23870B3
:10416000C0F22000FEF7AEFBD8E744F2811204F162
:1041700008000021C0F22002234600F02DFD85E753
:1041800070B50546F0B1006B00F050FC0646C8B1B2
:10419000286B95F8284000F0A9FC034646F26C70A5
:1041A00021463246C0F22000FEF7BAFB46F2A86371
:1041B000C0F2200344F27520DC68C0F220002946DA
:1041C0003246A04770BDC04670B505460C46002972
:1041D0003BD0006B00F074FC606800F0E3FF40F23D
:1041E0004C40A168C2F2000000F0BCFB40F2644009
:1041F0002146C2F2000000F0B5FB286B00F076FC0F
:10420000014646F29870C0F22000FEF789FB286B49
:1042100000F00CFCD0B146F2A8630022C0F22003EB
:1042200085F8282085F8292085F82A20DA69904722
:1042300044F28112002814BF01461021C0F220026E
:1042400005F108002B4600F0C7FC70BD05F1080021
:1042500000F0ACFC41F618102946C2F2000000F054
:104260002FFC40F258402946C2F2000000F07AFBD1
:10427000EBE7C0462DE9F04F0F4683B00646002815
:104280003CD0032908D8DFE801F0423C420290F814
:104290002A30013380F82A30306B00F0C7FB054626
:1042A00028B92BE0284600F02DFC054630B30A2142
:1042B000686800F03DFF04460A2000F00DFE8442CD
:1042C000F0D1AC68D4B1236801937B1E012BD4F8E4
:1042D00004B096F8288029D9FFB946F68000C0F2CC
:1042E00020004146FEF71CFB30462946FFF76CFFD5
:1042F000019859463A464346FFF752FD03B0BDE8E0
:10430000F08F90F82930013380F82930C4E790F815
:104310002830013380F82830BEE746F69400414645
:104320003A46C0F22000FEF7FBFADDE7012F51D03C
:10433000022F47D046F2F870C0F2200039464246BC
:10434000FEF7EEFA46F2A863C0F22003DA6990475E
:1043500096F82890002814BF82464FF0100A00F00B
:104360007FFC96F82820237A934221D909F1010392
:10437000032BA8BF032303FB0AF3B0FBF3F403FBF7
:10438000140446F61400544421462A46C0F2200084
:10439000FEF7C6FA44F2811206F108002146C0F287
:1043A0002002334600F018FC686800F025FFA5E7FE
:1043B00046F63C00394696F82930C0F22000FEF758
:1043C000AFFA91E746F2E0704146C0F22000FEF7F6
:1043D000A7FAB7E746F2C4704146C0F22000FEF7E4
:1043E0009FFAAFE740F2644010B5C2F2000000F05F
:1043F000EDFA40F24C40C2F2000000F0E7FA40F261
:104400005840C2F2000000F0E1FA10BD41F6FA1384
:10441000C2F200031878421C1A70704770B5837B93
:10442000044613F0010F0D4618D08368B3B141F66E
:10443000FC13C2F2000318600220A073A36804F109
:104440000C009847832D14BF002301230238012854
:1044500098BF43F0010313B90123A37370BD204635
:10446000214600F001F8F9E72DE9F04741F6002672
:10447000C2F20006326841F6FC17131E18BF012372
:10448000C2F2000782420CBF002303F0010305467D
:104490008846D7F8009053B11268131E18BF012345
:1044A00095420CBF002303F00103002BF4D1002A36
:1044B00030D0AB7BC3B10023AB7334684CB1A542A1
:1044C00004D0204687212A46FFF7A8FF2468002C45
:1044D000F5D1AA68B5EB080318BF0123002A0CBF69
:1044E000002303F00103BBB9316841F600248D427B
:1044F00008BF2B68C2F2000408BF236008D011B9BE
:1045000006E0194623B10B68AB42FAD12B680B6069
:10451000C7F80090BDE8F0873D60AB6805F10C007E
:10452000832100229847DFE741F6FA13C2F2000325
:104530006FF07501197041F6E81241F6F813763103
:10454000C2F20002C2F200031170197041F600229B
:1045500041F6FC13C2F20002C2F2000311601960BE
:104560007047C0462DE9F84F41F60427C2F2000714
:104570003B78CBB141F60023C2F200031C68002255
:104580003A708CB10126154601E0246864B1E37BE2
:10459000002BFAD0A673E573204682210022FFF794
:1045A0003DFF2468002CF2D141F6F816C2F2000655
:1045B00096F800A0BAF1000F2FD041F6E814C2F22D
:1045C0000004217841F6082288000B011B1AC2F270
:1045D000000212F803C041F6FB19C2F20009D51817
:1045E00089F800C06A6841F6F018C2F20008C8F8FD
:1045F0000020A86841F6EC13C2F2000301311860F4
:1046000001F01F010AF1FF332170337050B1BCF18A
:10461000810F42D06146FFF701FF3B7830781818D0
:10462000BDE8F88F41F6002BC2F2000BDBF800303A
:1046300041F6F415C2F200052B60002BEDD041F6D7
:10464000042AC2F2000A3B78D3B1DBF800404FF0F5
:1046500000038AF8003014B912E0246884B1E37BC7
:10466000002BFAD04FF00103A3734FF00003E37364
:10467000204682210022FFF7D1FE2468002CEED1D3
:10468000D8F80020286899F80010FFF7C7FE2B68BB
:104690001A682A60002AD6D1BFE701238373B9E7DD
:1046A00041F6042341F6F812C2F20003C2F20002FE
:1046B0001978107808187047F0B441F6F814C2F26F
:1046C000000494F800C00746BCF1200F0D461646C2
:1046D0001DD041F6E813C2F200031A7841F6F9132F
:1046E000624402F01F02C2F200031A7041F6082170
:1046F00093001201D21AC2F2000188180CF10103D2
:10470000466087608D5400202370F0BC7047012004
:10471000FBE7C04670B541F6FC14C2F20004256800
:10472000FFF77CFE256070BD10B541F60024C2F293
:10473000000422688C46131E18BF012382420CBF5E
:10474000002303F00103CBB1114609680B1E18BF0B
:10475000012388420CBF002303F00103002BF4D196
:1047600081420AD001230260206083734FF000036E
:10477000838181216246FFF7CDFF10BD1146EFE72F
:1047800058B1837B013BDBB2012B06D841F60423F1
:104790000122C2F20003C2731A70704770B5054659
:1047A000006880B12C1D0021FFF7BEFF2B6846F684
:1047B000FC00C0F220005968FEF7B2F8254654F814
:1047C000040B0028EFD170BD70B504880646672C35
:1047D00013D0792C38D024B14FF00003038003208C
:1047E00070BDFFF713FE43F2F23341F69442C2F27A
:1047F0000003C2F200021870146041F6944441F6BE
:104800000945C2F20004C2F2000541F68C40C2F232
:10481000000000F0A7FAB0F1FF3F10D00A281FD027
:1048200023687E2BF1DCE854013341F68C40236091
:10483000C2F2000000F096FAB0F1FF3FEED14FF067
:10484000670333800230CBE7852904BF41F69445E6
:10485000C2F2000502D100232B60CEE70120BFE7A2
:1048600041F69445C2F20005296841F60942C2F2B8
:104870000002002443F2F2335454C2F20003013127
:10488000296020461978FFF717FF41F6FC13C2F2A2
:104890000003186885212246FFF70EFF0028DAD1B1
:1048A0004FF07903338001309AE7C04641F68C40DF
:1048B00041F6883110B5C2F20000C2F20001802238
:1048C00000F032FA40F27040C2F200000021FFF71F
:1048D0002BFF10BD0D2810B501461AD041F6084433
:1048E000C2F2000423784BB10A2814D040F2704081
:1048F000C2F20000FFF744FF012010BD41F68C40DA
:10490000C2F2000000F018FA0028EFD10123237052
:10491000ECE70020F1E741F68C40C2F2000000F025
:104920000BFA0028E2D000232370DFE730B444887C
:10493000054654B14268137893B1002002E0135C3D
:1049400011182BB10130A042F9DB002030BC7047B8
:104950000A46012313702A88AB6802FB0030F5E792
:104960001846F6E730B40546836840880C4670B1B7
:104970008B4219D02988002203EB010C04E08C44FF
:10498000C1EB0C039C4205D001328242F7DBFF20D1
:1049900030BC704711466A68505C0028F8D0431E4E
:1049A00053546A68505CF3E70021F4E78C46816851
:1049B000614501D9002070470388428802FB031338
:1049C0009C452CBF00200120F5E7C04610B50446E9
:1049D00000216288406801F049FB63882288A06852
:1049E000002102FB03F201F041FB10BD03684268A5
:1049F0009B1803607047C04610B50446FCF74CFF97
:104A00002368C3F101031B18606898422CBF002083
:104A1000012010BD10B541600446FCF73DFF206049
:104A200010BDC046002303607047C0460068704751
:104A300010B40446236808464BB199421A4602D185
:104A40001BE090420ED011461268002AF9D10023D3
:104A5000036023687BB11A461B68002BFBD11060F2
:104A600010BC704703680B600023136000230360D1
:104A70002368002BEFD12060F2E70B682360F3E797
:104A800010B403680446B3B19942184618BF1A46D9
:104A900003D112E0994207D01A461368002BF9D1CE
:104AA0000860216010BC70470B6808461360002343
:104AB00003602068F4E71846F2E70B682360F6E726
:104AC00003684BB18B421A4602D10BE0914204D0ED
:104AD00010461268002AF9D170471368036000235A
:104AE0001360F9E71B680360F9E7C046006830B15E
:104AF0000023006801330028FBD1184670470346A5
:104B0000FBE7C04600B100687047C0462DE9F041A0
:104B1000038806461546CBB941F69840C2F200001C
:104B2000FFF784FF044630B1201DA168FBF778FE33
:104B30002468002CF8D141F69C43C2F20003012204
:104B40001A704FF04A033380012005E04A2B05D04C
:104B50004FF0000303800320BDE8F081882922D1B3
:104B600041F69840C2F20000FFF760FF044618B912
:104B7000E7E72468002CE4D0231D9D42F9D141F6DB
:104B80009840C2F200002146FFF79AFF41F6FC155B
:104B90006369C2F200052F682B60A3690BB1E0695D
:104BA00098472F60CDE70120D6E7C04610B541F603
:104BB0009C43C2F200031B7804464BB9C3600361F7
:104BC00041F69840C2F200002146FFF779FF10BD80
:104BD0000430FBF75FFDF3E770B541F6FC16C2F257
:104BE000000605463068EB6141F69C436861AA61A6
:104BF000C2F200031A780C467AB9A96041F69840CF
:104C00002946C2F20000FFF75BFF41F69840C2F26E
:104C100000002946FFF70CFF70BD346840F2804366
:104C2000C2F20003281D3360FBF7FAFD3460E5E7AC
:104C300041F69C4310B5C2F20003002441F69840AF
:104C40001C70C2F20000FFF7EDFE40F28040C2F29D
:104C500000002146FFF768FD10BDC0467047C04602
:104C600047F20001C4F20D010B6847F2140243F051
:104C700004030B6047F21803C4F20D02C4F20D03E3
:104C800010681A6840EA022080B2704747F20001BB
:104C9000C4F20D010B6842F2A80223F00C030B6072
:104CA000C4F20D02012148F224631160C4F208032A
:104CB000073148F638021960C4F20802E323136092
:104CC00048F26462C4F20802136813F0010FFBD0CB
:104CD00048F29C600021C4F2080048F2030C002254
:104CE0000368013203F0010341EA03035B00102A69
:104CF00099B2F5D1614514BF00230123002908BFF3
:104D000043F00103002BEAD147F214020B0AC4F26C
:104D10000D02136001F0FF0148F638031160C4F280
:104D20000803EF221A6070470023013A0160027104
:104D3000437183717047C04690F805C0837902794A
:104D4000C3EB0C0313409A4209D0036803F80C101C
:104D50004279037901321A404271012070470020E4
:104D6000FCE7C0468279437990F804C09B1A13EAA5
:104D70000C0F08BF4FF0FF3006D00368995C01327A
:104D800002EA0C02827108467047C04646F24C5354
:104D9000C0F2200310B51A68904746F2A863C0F22B
:104DA00020035A68904746F6B803C0F220035A68B9
:104DB000904746F26463C0F220035A68904710BDE2
:104DC00010B4044641F6A440C2F2000090F800C0BE
:104DD000A44511DB41F6A642C2F20002CCF1300339
:104DE0001188DBB25B189BB21B19802B04DCC4EB6F
:104DF0000C030370012000E0002010BC7047C04687
:104E0000014641F6A640C2F20000B0F800C08C4551
:104E10000CDB41F65A52C2F20002138889B2CB1859
:104E2000C1EB0C0101801380012070470020FCE7DA
:104E300041F6A643C2F200031880704741F65A5368
:104E4000C2F2000346F644121888C0F2200213682A
:104E5000303018187047C04646F6441241F6A44355
:104E6000C0F22002C2F2000319781068401870479F
:104E700046F64413C0F220031A6841F6A043C2F27A
:104E8000000318683032801A18BF01207047C046EE
:104E900041F6A043C2F200031868704741F6A643EA
:104EA000C2F200031888704741F6A443C2F200031F
:104EB000187841F6A643C2F200031A88C0F1300008
:104EC000C0B2801880B2704743F2FC33C2F20003D4
:104ED00023F810100120704743F2FC33C2F20003A4
:104EE00033F810007047C046A0F1180343F2F430C5
:104EF0005B00C2F20000C0187047C046A0F1180362
:104F000043F2F4305B00C2F20000C01810B5FEF7A7
:104F100045FA012010BDC04610B543F2FC32002313
:104F2000C2F200024FF00001D1520233302BF9D10E
:104F300043F2F43046F2E851C2F20000C0F2200120
:104F4000FEF72CFA46F2E8510948C0F22001FEF7BC
:104F500025FA46F2E8510748C0F22001FEF71EFA92
:104F600046F2E8510448C0F22001FEF717FA10BDDE
:104F7000F6330020F8330020FA33002041F65A526D
:104F80000021C2F2000241F6A64310B5C2F20003AE
:104F9000118041F6A4421980C2F20002302313703E
:104FA00046F64413C0F220031A6841F6A041C2F24B
:104FB000000130320A60FFF7AFFF10BD034643F235
:104FC000FC3010B530220C46C2F20000194601F048
:104FD00001F843F2F43021460822C2F2000000F04A
:104FE000F9FF10BD10B50C4643F2FC313022C2F27D
:104FF000000100F0EFFF43F2F4312046C2F200015D
:10500000082200F0E7FF10BD2DE9F04141F6A4466B
:10501000C2F2000641F6A6453478C2F200052B889C
:10502000C4F13002D318802B074602DD0020BDE812
:10503000F08146F64413C0F220031968091900F004
:10504000C9FF41F6A04241F65A53C2F2000330783C
:10505000C2F200021C881168C0F130002A8838189A
:10506000091900F0B7FF2B8832783033981ADEE741
:1050700010B546F6441341F6A444C2F20004C0F24F
:105080002003227819688918C2F1300200F0A2FFCB
:105090002078C0F1300010BD70B546F64413C0F260
:1050A000200341F6A0421C68C2F20002116804F11C
:1050B0003000814207D041F6A643C2F200031A88AD
:1050C00000F088FF70BD41F65A55C2F200052988EC
:1050D0000029F7D041F6A643C2F200031A8802F174
:1050E000300042B16118302291F830300131A354C0
:1050F00001329042F8DC4FF000032B80E2E7C0461B
:1051000070B505460C46FFF739FF41F6A043802CE9
:1051100028BF8024C2F2000318682946224600F006
:1051200059FF41F6A643C2F200031C80204670BD21
:105130000368403149005B185888704770B50546D0
:1051400040F29040C2F200002946FFF72FFC40B920
:1051500040F29C40C2F200002946FFF727FC68B9E4
:1051600070BD2D682C4634F8821BA81CFFF7C8FFC1
:10517000204605F1B201FFF721FFF1E7FFF7FEFE40
:1051800029886868FFF7BCFF95F83800FFF718FE1C
:10519000FFF762FE05F1080195F8382000F01AFFCC
:1051A000DEE7C04610B5044640F29040C2F200006F
:1051B0002146FFF7FBFB40B940F29C40C2F20000E1
:1051C0002146FFF7F3FB78B910BD40F2A8402168F3
:1051D000C2F20000FFF7C6FB40F290402146C2F247
:1051E0000000FFF7BFFBEFE740F29C402146C2F210
:1051F0000000FFF7B7FBE7E710B5016801F1820097
:10520000B231FFF7EFFE10BD70B5FFF731FEA8B168
:1052100040F29C40C2F20000FFF788FB044658B100
:10522000FFF73CFE2080FFF733FE606004F10800CA
:10523000FFF71EFF84F83800204670BD40F2904012
:10524000C2F20000FFF772FB04460028F4D040F2DF
:10525000A840C2F20000FFF769FB0546206058B184
:105260000230FFF7D1FE2B4623F8820B184605F1DA
:10527000B201FFF7B7FEDFE70446DDE740F2A840E2
:1052800010B5C2F20000FFF7A1FB40F29040C2F25D
:105290000000FFF79BFB40F29C40C2F20000FFF7CA
:1052A00095FB10BD10B5FCF7DBF9FCF713FA4CF2D7
:1052B00000044FF44070C4F20D04FCF777FA4FF489
:1052C0004070FCF74DFA20461021FCF7A5F9204666
:1052D0002021FCF7A1F944F2301220461021C4F23B
:1052E0000D02FCF71FF844F22C1220462021C4F2D4
:1052F0000D02FCF717F8204610210C22FBF7BEFF29
:10530000202120460B22FBF7B9FFFCF7A9F9002169
:10531000FCF764FA10BDC0462DE9F041022982B0C5
:1053200007468846164603DC002002B0BDE8F0813F
:105330000178FD1CCB0801F0070203F001038DF892
:1053400000208DF801300A094B09890902F0010299
:1053500003F0010301F001018DF802208DF8033004
:105360008DF8041040788308020903F003038009D4
:1053700002F003028DF805308DF806208DF8070045
:105380006B4693E8030086E803009DF80540BB7870
:1053900033722CB36B78FA781B029B187D1D022C9C
:1053A00073814BD0032C3DD09DF807402CB39DF862
:1053B000043093B96B7815F8022B1B029B18B3824B
:1053C000022C49D0032C22D0E81BC0EB08038045F7
:1053D00086F838307563A8DAA6E77389B382EFE7F9
:1053E00046F2E85106F10C00C0F22001FDF7D6FFAD
:1053F00074819DF80740002CD9D146F2E85106F19E
:105400001600C0F22001FDF7C9FFB482DCE7314687
:105410000722AB5C013A8B750131B2F1FF3FF8D145
:105420000835D1E73A463146A7F10800137B013A27
:105430000B7301318242F9D10835B5E746F2E851E4
:1054400006F10C00C0F22001FDF7A8FF6B78FD1DEE
:1054500033737A797273A7E746F2E85106F11600C2
:10546000C0F22001FDF79AFF6B78B37515F8022B97
:10547000F275A9E700230A4610B402F8013B013295
:105480004B7002F8013B02F8013B13700C46417966
:1054900011F0030F01D002332370C37913F0030F0F
:1054A00001D00223A370417911F0030F03D0C37917
:1054B00013F0030F16D10023037101F00303022B35
:1054C00003D0032B0CBF082300236370C37903F0C0
:1054D0000300022803D003280CBF08200020E0703E
:1054E00010BC7047828A43899A42E4D1012300228A
:1054F0000371A2704179E0E72DE9F04182B00D46D9
:105500000DF1030114460646FFF7B4FF9DF803E0D2
:105510009DF804709DF805800EEB070303339DF89A
:1055200006C043449DF8072063449B18A3425CDCFB
:10553000B1787278337801F0010102F001020901BB
:1055400041EAC20103F00703F2781943337902F00C
:10555000010241EA421103F0010341EA831129707B
:10556000B379707903F00303F2791B0100F00300B3
:1055700043EA800343EA82136B70327ABEF1020F72
:10558000AA7018BF4FF0030E40D08FB1F31903F18A
:105590000C010EEB07037246D8B211F8013DAB5473
:1055A0000132D2B28242F8D10EEB07035FFA83FEDA
:1055B000B8F1020F74461AD0BCF1000F11D006EBFF
:1055C0000C0303F1160004EB0C032246D9B210F8C9
:1055D000013DAB540132D2B28A42F8D104EB0C0344
:1055E000DCB2204602B0BDE8F0810020FAE7B38AC1
:1055F0000EF1010205F80E30B38AD2B21B0AAB5489
:105600000132D4B2BCF1000FD9D1EAE772894FF070
:10561000050EEA7073891B0A2B71002FB6D1C7E7FC
:1056200000B583B00DF10301FFF724FF9DF80430AE
:105630009DF803009DF80620C0189DF80530033042
:10564000C0189DF807308018C01803B000BDC046D0
:105650004BB942B9002908BF002802D04FF0FF31F2
:10566000084600F03BB882B0EC462DE9005000F04F
:1056700005F8DDF804E002B00CBC70472DE970437A
:1056800016461C468046894600F03CFA00FB04F4AE
:1056900006FB0145069CA0FB0623EB18B8EB0208AD
:1056A00069EB0309C4E90089BDE870832DE9704303
:1056B00016461C468046894600F012F800FB04F4AA
:1056C00006FB0145069CA0FB0623EB18B8EB02087D
:1056D00069EB0309C4E90089BDE870837047C046DF
:1056E00000292DE9F04F144687B01D46C0F2F58021
:1056F0000026002B0196C0F2F980834626460F460D
:105700002846002D5CD18C426AD9B4F5803FC0F0A8
:10571000DE81B4F1807FC0F0E6811822082046F6D1
:10572000481336FA02F1C0F220035A5C851A0AD0F7
:10573000C5F1200317FA05F22BFA03F3AE4043EA52
:1057400002070BFA05FB4FEA1649384649464FEA6D
:10575000064800F0C9FB49464FEA1848824608FB54
:1057600000F5384600F0FCFB4FEA1B4343EA0144D6
:10577000A54208D9A4190AF1FF3A04D2A54284BF70
:105780000AF1FF3AA419641B4946204600F0ACFB1D
:10579000494608FB00F70546204600F0E1FB4FEACA
:1057A0000B431B0C43EA0142974205D9013D931973
:1057B00002D29F4288BF013D45EA0A40002103E032
:1057C0008D4267D900200146019E02460B4616B164
:1057D000524263EB43031046194607B0BDE8F08F11
:1057E00024B90120214600F07FFB0646B6F5803F34
:1057F000C0F08380B6F1807FC0F078811822082045
:1058000046F6481336FA02F1C0F220035A5CB0EBB8
:10581000020A40F085804FEA0648BC1B4FF0010A9F
:10582000370C4FEA18482046394600F05DFB3946F0
:1058300008FB00F58146204600F092FB4FEA1B432F
:1058400043EA0144A54208D9A41909F1FF3904D259
:10585000A54284BF09F1FF39A419641B39462046CB
:1058600000F042FB394608FB00F80546204600F0F0
:1058700077FB4FEA0B431B0C43EA0142904505D9E5
:10588000013D931902D2984588BF013D45EA094080
:10589000514699E7B5F5803FC0F09080B5F1807F23
:1058A000C0F01E811822082446F6481330FA02F18F
:1058B000C0F220035A5CB4EB020A40F092805E45CD
:1058C0008CBF00230123B84238BF43F00103002BF3
:1058D0003FF478AF0120514676E7404261EB410149
:1058E000002B4FF0FF360196BFF607AF019CE44353
:1058F0000194544263EB4305FFE6B6F5807F46F61C
:10590000481334BF0022082234BF20201820C0F2E0
:10591000200336FA02F15A5CB0EB020A3FF47BAF87
:1059200006FA0AF6CAF1200337FA03F407FA0AF274
:10593000370C204639462BFA03F31343039300F048
:10594000D3FA4FEA064839464FEA1848029008FB56
:1059500000F5204600F004FB039A130C43EA0144CF
:10596000A54209D9029B013BA419029304D2A54286
:1059700002D9A419591E0291641B3946204600F031
:10598000B3FA394608FB00F90546204600F0E8FA6C
:10599000039A13041B0C43EA0140814506D9013DDB
:1059A000801903D2814501D9013D8019029B0BFA70
:1059B0000AFBC9EB000445EA034A34E7B5F5807FEA
:1059C00046F6481334BF0022082234BF202418248E
:1059D000C0F2200330FA02F15A5CB4EB020A3FF441
:1059E0006EAFCAF1200200FA0AF136FA02F337FA72
:1059F00002F443EA010807FA0AF320462BFA02F2FE
:105A00004FEA18471A43394606FA0AF605920496F1
:105A100000F06AFA4FEA08463946360C814606FB22
:105A200000F5204600F09CFA059C230C43EA014453
:105A3000A54204D914EB080409F1FF395CD3641BB7
:105A40003946204600F050FA394606FB00F6054676
:105A5000204600F085FA059A13041B0C43EA014026
:105A6000864207D9013D10EB080003D2864201D9D6
:105A7000013D4044841B45EA0946049D3204300C34
:105A80002B04120C290C1B0C01FB00F503FB02F785
:105A900003FB00F301FB023202EB1740834288BF95
:105AA00005F5803505EB10439C420DD3BBB214BF06
:105AB000002101210BFA0AF203EB00439A422CBFAA
:105AC000002201F00102A2B1701E00217CE6B4F5B3
:105AD000807F34BF0022082234BF202018201EE619
