:020000040020DA
:100000000010002091022000ED0220008D0220004F
:100010008D0220008D0220008D02200000000000D3
:100020000000000000000000000000008D02200021
:100030008D022000000000008D02200069222000B7
:10004000A127200079272000512720002927200000
:1000500000000000152420008D0220008D022000E9
:100060008D022000000000000000000000000000E1
:1000700000000000000000008D02200000000000D1
:1000800000000000000000008D0220008D02200012
:100090008D0220008D0220008D0220008D022000A4
:1000A0008D0220008D0220008D0220008D02200094
:1000B0008D0220008D0220008D0220008D02200084
:1000C0008D0220008D0220008D0220008D02200074
:1000D0008D02200000000000000000000000000071
:1000E0000000000000000000000000000000000010
:1000F00000000000000000009D322000AD32200012
:1001000000000000000000000000000000000000EF
:1001100000000000000000000000000000000000DF
:1001200000000000000000000000000000000000CF
:1001300000000000000000000000000000000000BF
:1001400000000000000000000000000000000000AF
:10015000000000000000000000000000000000009F
:10016000000000000000000000000000000000008F
:10017000000000000000000000000000000000007F
:10018000000000000000000000000000000000006F
:10019000000000000000000000000000000000005F
:1001A000000000000000000000000000000000004F
:1001B000000000000000000000000000000000003F
:1001C000000000000000000000000000000000002F
:1001D000000000000000000000000000000000001F
:1001E000000000000000000000000000000000000F
:1001F00000000000000000000000000000000000FF
:1002000000000000000000000000000000000000EE
:1002100000000000000000000000000000000000DE
:1002200000000000000000000000000000000000CE
:1002300000000000000000000000000000000000BE
:1002400000000000000000000000000000000000AE
:10025000000000000000000000000000000000009E
:10026000000000000000000000000000000000008E
:100270008D022000152A2000D92920008D0220009F
:100280008D022000FD2220008D022000FEE7C046E6
:1002900010B540F2EC4040F2000E42F2B403C2F25C
:1002A000000EC2F20000FF22C4F20D0386451A6060
:1002B0000CD246F66471FF3AC0F220018B584EF81A
:1002C000023004320EEB02038342F7D3054806499D
:1002D0004FF000028842B8BF40F8042BFADB00F070
:1002E0004FFEFEE700080020622C002010B5FFF74B
:1002F000CFFFFEE770B5832982B006460C4615464F
:100300003DD03288E2B941F23403C2F200031A80D0
:1003100041F21C0046F2C062C2F200008121C0F22C
:10032000200200F0D7F841F20C00C2F20000802158
:1003300000F074FB4FF07D033380012002B070BDEC
:100340007D2A04D04FF0000333800320F6E7882C89
:1003500041D042F64A43C2F200031A78A24215D0B5
:1003600041F60F43C2F200031A78A2425AD041F27A
:100370003404C2F20004238801332380D3E741F21E
:100380001C00C2F2000000F0A1F8BAE746F2987330
:10039000C0F220039D4251D046F2C073C0F2200348
:1003A0009D4243D046F2D073C0F220039D423DD01F
:1003B00046F2E073C0F220039D424ED046F2A8738D
:1003C000C0F220039D42D2D141F2340402F074F90C
:1003D000C2F20004CFE7202041F2340400F06AFDAD
:1003E000C2F2000446F278602188C0F2200003F0D7
:1003F000CFF841F20C008021C2F2000000F00EFBA9
:1004000001F05EFF002300F58041009341F20000FF
:1004100040F299430122C0F22003C2F2000000F032
:1004200017FBA8E7802000F02DFDA0E7012041F296
:10043000340400F027FDC2F200049CE741F23404CA
:10044000C2F200042046022100F0F0FC41F21C0040
:10045000C2F2000000F02CF88DE702F011F941F231
:100460003404E02000F026FDC2F2000402F0AAF8F5
:1004700081E7C04610B5A02000F004FD00F0A4FB09
:10048000044600F071FB028846F28C602146C0F2FF
:10049000200003F07DF810BD10B5202000F0F6FC20
:1004A00010BDC04610B543695B6803B1984710BDE5
:1004B00042F6604110B5C2F200010446182000F077
:1004C000B3FB204600F03AF810BDC04610B500F06E
:1004D00039F810BD70B5154646F2CC62C0F2200264
:1004E00004460E4600F032F846F2C86165613046B7
:1004F000C0F2200100F066F870BDC04630B5044679
:1005000083B0182000F086FB0DF106050146284651
:1005100003F07CFD63691B6813B1204629469847A8
:1005200003B030BD10B503691B6803B1984710BD17
:1005300010B503695B6803B1984710BD10B503F0AF
:1005400099FD10BD10B500F027F810BD70B5044638
:100550000E46154600F02AF846F2D4612561304671
:10056000C0F2200100F02EF870BDC04610B5044660
:1005700041F23800C2F2000000F0EEF8024628B95D
:1005800007E0104600F054F9024610B19388A342E8
:10059000F7D1104610BDC046014641F2380010B5F3
:1005A000C2F2000000F022F910BDC046034610B5AB
:1005B000818041F23800C2F20000194600F0CEF806
:1005C00010BDC04670B50D46FFF7D0FF044620B100
:1005D0008560284603F0A6FE207370BD41F2380006
:1005E00010B5C2F2000000F0B3F810BD70B5048879
:1005F0000646672C13D0792C38D024B14FF0000375
:100600000380032070BD04F0D5FC41F60F4341F296
:100610004812C2F20003C2F200021870146041F2E4
:10062000481441F2BD05C2F20004C2F2000541F2D5
:100630004010C2F2000000F045FAB0F1FF3F10D0C8
:100640000A281FD023687E2BF1DCE854013341F2E5
:1006500040102360C2F2000000F034FAB0F1FF3F16
:10066000EED14FF0670333800230CBE7852904BF1A
:1006700041F24815C2F2000502D100232B60CEE7FB
:100680000120BFE741F24815C2F20005296841F296
:10069000BD02C2F20002002441F60F435454C2F2DC
:1006A0000003013129602046197804F0D9FD41F694
:1006B0004013C2F2000318688521224604F0D0FDE1
:1006C0000028DAD14FF07903338001309AE7C04631
:1006D00041F2401041F23C0110B5C2F20000C2F2FA
:1006E0000001802200F0D0F940F21040C2F2000078
:1006F000002104F0EDFD10BD0D2810B501461AD003
:1007000041F2BC04C2F2000423784BB10A2814D091
:1007100040F21040C2F2000004F006FE012010BDBD
:1007200041F24010C2F2000000F0B6F90028EFD10B
:1007300001232370ECE70020F1E741F24010C2F200
:10074000000000F0A9F90028E2D000232370DFE7C1
:10075000002303607047C0460068704710B4044629
:10076000236808464BB199421A4602D11BE09042D9
:100770000ED011461268002AF9D1002303602368C5
:100780007BB11A461B68002BFBD1106010BC704770
:1007900003680B6000231360002303602368002BB1
:1007A000EFD12060F2E70B682360F3E710B4036831
:1007B0000446B3B19942184618BF1A4603D112E055
:1007C000994207D01A461368002BF9D108602160BE
:1007D00010BC70470B680846136000230360206854
:1007E000F4E71846F2E70B682360F6E703684BB1BD
:1007F0008B421A4602D10BE0914204D01046126897
:10080000002AF9D170471368036000231360F9E7E9
:100810001B680360F9E7C046006830B10023006838
:1008200001330028FBD1184670470346FBE7C0465A
:1008300000B100687047C04641F24C13C2F2000399
:100840001868003818BF01207047C04610B541F243
:100850004C14C2F200042268DAB101F0B7FC23683C
:1008600019685A6852189968C0EB020E49B14B6872
:100870000A6889689B181B1A9E4528BF9E46002956
:10088000F5D141F25013C2F200030EEB00021A60E0
:1008900010BD41F25013C2F200031A60F8E7C046DF
:1008A00010B541F24C11C2F200010A6804469042B0
:1008B0000FD02AB19368A34206D01A46002AF9D174
:1008C0000023A360E36010BDA3689360FFF7BEFF41
:1008D000F6E783680B60FFF7B9FFF1E740F22040CD
:1008E00010B5C2F2000004F01FFD10BD2DE9F0416B
:1008F0000646008848B941F24C13C2F20003186062
:100900004FF059033380012005E0592805D04FF0FE
:10091000000333800320BDE8F081872924D0822999
:10092000EED141F24C17C2F200074FF000083C68CC
:10093000002CE5D0002504E0A3682546002BDFD07D
:100940001C46204604F074FD0028F5D0E06888219C
:10095000224604F085FC002825D040F22040C2F257
:10096000000004F0E1FCE7E741F24C17C2F2000797
:1009700038680028C4D0C168914203D00DE0C36834
:100980008B420ED180680028F9D13860B8E7CB6877
:1009900093420ABF8B680846836081680029F6D1BC
:1009A000AEE73860F9E7E06035B1A368AB60C4F842
:1009B0000880FFF74BFFBAE7A3683B60F7E7C04644
:1009C00010B5044640F22040C2F2000004F0ACFC36
:1009D000E3689BB141F24C11C2F200010B6813B9FC
:1009E00010E09B6873B19C42FBD141F64013C2F208
:1009F00000031A68E260FFF729FF0EE041F24C1194
:100A0000C2F2000141F64013C2F200031A68E2602C
:100A10000B68A3600C60FFF719FF10BD10B504460A
:100A200004F014FD2046FFF7CBFF10BD10B541F2D6
:100A30005414C2F20004206848B1002323604268C5
:100A400081689047206810B1006801F069FC10BD12
:100A500070B541F25412C2F200021C461368049DA4
:100A60002BB14460856001601060002070BD44605F
:100A7000856001601060084601F052FCF5E7C04651
:100A800010B501F015FC10BD0023013A01600271A0
:100A9000437183717047C04690F805C0837902792D
:100AA000C3EB0C0313409A4209D0036803F80C10FF
:100AB0004279037901321A404271012070470020C7
:100AC000FCE7C0468279437990F804C09B1A13EA88
:100AD0000C0F08BF4FF0FF3006D00368995C01325D
:100AE00002EA0C02827108467047C04610B4044600
:100AF00041F25C10C2F2000090F800C0A44511DB86
:100B000041F25E12C2F20002CCF130031188DBB276
:100B10005B189BB21B19802B04DCC4EB0C03037025
:100B2000012000E0002010BC7047C046014641F2A1
:100B30005E10C2F20000B0F800C08C450CDB41F240
:100B40001222C2F20002138889B2CB18C1EB0C0149
:100B500001801380012070470020FCE741F25E1302
:100B6000C2F200031880704741F21223C2F2000360
:100B700046F2F4621888C0F2200213683030181868
:100B80007047C04646F2F46241F25C13C0F22002A4
:100B9000C2F20003197810684018704746F2F463F7
:100BA000C0F220031A6841F25813C2F20003186819
:100BB0003032801A18BF01207047C04641F25813E6
:100BC000C2F200031868704741F25E13C2F20003DC
:100BD0001888704741F25C13C2F20003187841F2A2
:100BE0005E13C2F200031A88C0F13000C0B2801850
:100BF00080B2704741F61843C2F2000323F8101088
:100C00000120704741F61843C2F2000333F8100088
:100C10007047C046A0F1180341F610405B00C2F2D5
:100C20000000C0187047C046A0F1180341F61040FC
:100C30005B00C2F20000C01810B503F0E7F9012014
:100C400010BDC04610B541F618420023C2F20002A2
:100C50004FF00001D1520233302BF9D141F6104050
:100C600046F66C21C2F20000C0F2200103F0CEF97A
:100C700046F66C210948C0F2200103F0C7F946F698
:100C80006C210748C0F2200103F0C0F946F66C2140
:100C90000448C0F2200103F0B9F910BD121C002075
:100CA000141C0020161C002041F212220021C2F266
:100CB000000241F25E1310B5C2F20003118041F24E
:100CC0005C121980C2F200023023137046F2F46302
:100CD000C0F220031A6841F25811C2F2000130320A
:100CE0000A60FFF7AFFF10BD034641F6184010B58C
:100CF00030220C46C2F20000194605F029FC41F6EC
:100D0000104021460822C2F2000005F021FC10BD6F
:100D100010B50C4641F618413022C2F2000105F030
:100D200017FC41F610412046C2F20001082205F0EE
:100D30000FFC10BD2DE9F04141F25C16C2F2000635
:100D400041F25E153478C2F200052B88C4F13002FE
:100D5000D318802B074602DD0020BDE8F08146F263
:100D6000F463C0F220031968091905F0F1FB41F2A0
:100D7000581241F21223C2F200033078C2F200028C
:100D80001C881168C0F130002A883818091905F04C
:100D9000DFFB2B8832783033981ADEE710B546F245
:100DA000F46341F25C14C2F20004C0F22003227822
:100DB00019688918C2F1300205F0CAFB2078C0F129
:100DC000300010BD70B546F2F463C0F2200341F26A
:100DD00058121C68C2F20002116804F1300081420E
:100DE00007D041F25E13C2F200031A8805F0B0FB8F
:100DF00070BD41F21225C2F2000529880029F7D002
:100E000041F25E13C2F200031A8802F1300042B1CF
:100E10006118302291F830300131A35401329042F0
:100E2000F8DC4FF000032B80E2E7C04670B50546C2
:100E30000C46FFF739FF41F25813802C28BF80245D
:100E4000C2F2000318682946224605F081FB41F2F0
:100E50005E13C2F200031C80204670BD10B541F243
:100E60001522C2F20002137880EA030141F2142332
:100E7000C2F200031878117081EA000000F048F80F
:100E800010BDC04610B5FFF7E9FF10BD10B541F227
:100E90001422C2F200021378C143194041F2152313
:100EA000C2F200031878117081EA000000F030F8F7
:100EB00010BDC04610B541F21422C2F200021378F0
:100EC00040EA030141F21523C2F2000318781170C1
:100ED00081EA000000F01CF810BDC04610B500F01B
:100EE0000DF841F2152341F214220021C2F2000351
:100EF000C2F200021970117010BDC0464BF20042E0
:100F0000C4F20D02136843F0E00313607047C0465B
:100F10004BF28033C4F20D0318607047F0B5002423
:100F200083B00646254627463046FFF7C3FF0197A4
:100F3000019B9C4206DD00BF019B01330193019A96
:100F40009442F8DC3046FFF7A1FF0197019BC4F5FE
:100F5000C871994206DD00BF019B01330193019ADC
:100F60009142F8DC0135B5F5487F06D0B5F5C87F6C
:100F7000D4BF2C46C5F54874D6E703B0F0BDC046D3
:100F800010B501F023FB01F07FFB01F0E1F802F066
:100F9000C3F9FFF775FD01F0BDFB01F015FCFFF78C
:100FA0009DFF2020FFF7BAFF04F092F801F0F0FA5D
:100FB00001F07CFA40F2F960C0F2200001F016FA6C
:100FC000FFF786FB4020FFF7A9FF46F2F860C0F26A
:100FD000200002F0AFFA46F20470C0F2200002F0E6
:100FE000A9FA46F21870C0F2200002F0D1FA46F6D3
:100FF000E823C0F22003186802F09CFA46F2207041
:10100000C0F2200002F0C4FA46F6FC33C0F220031E
:10101000186802F08FFA46F22870C0F2200002F041
:10102000B7FA46F6D433C0F22003186802F082FA09
:10103000002004F0D3FA02F041F900F04FFC00F078
:1010400051FC00F02DFB00F083FA441CE4B2204672
:1010500000F048FA46F230702146C0F2200002F05B
:1010600097FA40F22040C2F20000002104F030F96B
:1010700042F6604404F084FA42F648430022C2F289
:1010800000030121C2F2000446F250701980627020
:101090002170C0F2200002F07BFA46F26070C0F2CC
:1010A000200002F075FA46F280706178C0F22000EC
:1010B00002F06EFA46F288702178C0F2200002F049
:1010C00067FA04F0D9FA45F2494001F0EBFB04F06D
:1010D0006DFA46F27060C0F2200004F033F901F0BE
:1010E0005FFA8020FFF71AFF01F062FA04F00EF8B1
:1010F00010F0FF0FF8D102F049F9F5E72DE9F047BC
:1011000005888146772D01BF41F2182441F21C2841
:1011100041F22026C2F2000404BFC2F20008C2F26B
:1011200000063BD07E2D4CD07DBB03F043FF40F248
:101130004046C2F2000642F64A4341F218243268A1
:10114000C2F20003C2F200041870256092B12B466F
:1011500042F64B45C2F200051F46EF5492688020CC
:10116000002190472368013356F823202360002A8A
:10117000F3D1DAB241F21C23C2F200031A704FF02D
:101180007703A9F80030012003E04FF0000303804B
:101190000320BDE8F0873368002BF0D000233360D4
:1011A0002360276898F80030BB42F4DD42F64B45D7
:1011B000C2F20005EB57002B27DB236801332360C5
:1011C000EFE742F64A43C2F200031A788A4201BFAF
:1011D00041F2182442F64B4541F21C2841F22026E8
:1011E00001BFC2F20004C2F20005C2F20008C2F25E
:1011F000000601D00120CCE723683168EA5C0131A8
:1012000002F07F02EA543160D7E742F64A4240F2E8
:101210004043C2F20002C2F200031178002053F8EA
:10122000272004F01DF80028E6D14FF07E03A9F82E
:1012300000300130ADE7C04610B541F21C23C2F2C8
:1012400000038646187800B340F24042C2F2000222
:1012500013689E4519D0002103E052F821309E45C5
:1012600002D001318142F8DB42F64B42C2F2000269
:10127000535C40F230406FEA43636FEA5363535468
:10128000C2F2000004F050F810BD0021ECE7C046A7
:1012900030B440F484621368CD432B40136040F4B3
:1012A0008064236840F480622B40236042F0040293
:1012B000136840F481642B401360236840F480621B
:1012C0002B40236042F00C02136840F482600B4311
:1012D000136003680B43036030BC70474BF200009F
:1012E00010B58021C4F20D00FFF7D2FF07210422C0
:1012F000022001F07DFA022001F094F941F2E13080
:10130000C0F220000221072201F0DEF9012010BD09
:101310004BF2000010B54021C4F20D00FFF7B8FFFA
:1013200006210422022001F063FA022001F07AF97A
:1013300041F2E130C0F220000221062201F0C4F99E
:10134000012010BD4BF2000010B52021C4F20D00A9
:10135000FFF79EFF05210422022001F049FA022036
:1013600001F060F941F2E130C0F2200002210522D3
:1013700001F0AAF9012010BD4BF2000010B51021B8
:10138000C4F20D00FFF784FF04210A46022001F099
:101390002FFA022001F046F941F2E130C0F22000BC
:1013A0000221042201F090F9012010BD49F2000051
:1013B00010B50821C4F20D00FFF76AFF03210422D3
:1013C000002001F015FA002001F02CF941F2E13083
:1013D000C0F220000021032201F076F9012010BDA7
:1013E00070B5044641F22420C2F200000D4604F01C
:1013F0001FF800B970BD41F22420C2F20000102194
:1014000004F024F844B1022CF4D12B1F032BF1D8A3
:10141000DFE803F01E17100946F29870C0F22000B2
:10142000FFF70AFFE6E746F2E070C0F22000FFF7A0
:1014300003FFDFE746F2A870C0F22000FFF7FCFED2
:10144000D8E746F2D070C0F22000FFF7F5FED1E7F2
:1014500046F2C070C0F22000FFF7EEFECAE7C046B9
:1014600010B50388044623B94FF06403238001209C
:1014700010BD642B04D04FF0000303800320F7E776
:1014800082290BD141F22C2340F26842C2F20003C0
:10149000C2F20002196810788847E5E70120E7E703
:1014A00070B54AF20005C4F20D0504460E4600F080
:1014B00005FA4021284600F089F944F0100000F0B8
:1014C00043F9304600F040F92846402100F078F911
:1014D00000F0FCF970BDC04610B501200021FFF7F7
:1014E000DFFF10BD10B5022104460120FFF7D8FF31
:1014F0004CF6CD43CCF6CC43A3FB0423DB08190107
:101500005A00DB00D218A41A09190920C9B2FFF742
:10151000C7FF00F0DBF910BD70B54AF20005C4F258
:101520000D05044600F0CAF94021284600F04EF9A6
:1015300044F0900000F008F900F018F9402104464A
:10154000284600F03DF900F0C1F9204670BDC046C4
:1015500010B50320FFF7E0FF0309DBB25A00DB0000
:10156000D21800F00F001218D0B210BD10B5012033
:10157000FFF7D2FF00F0D3010120FFF791FF10BD6C
:1015800046F2F07010B5C0F2200001F0D3FF4CF22B
:1015900000000121C4F20D0000F0BCFC10F0010FAE
:1015A000044620D110F0020F2AD110F0040F34D1DC
:1015B00010F0080F0FD040F26843C2F2000303227C
:1015C00046F2FC701A70C0F2200001F0B3FFFFF782
:1015D000CDFFFFF781FF4CF20000C4F20D00E1B235
:1015E00000F0A0FC10BD40F26843C2F200030022EC
:1015F00040F258401A70C2F2000003F095FEEAE78C
:1016000040F26843C2F20003012240F258401A70CF
:10161000C2F2000003F088FEDDE740F26843C2F248
:101620000003022240F258401A70C2F2000003F098
:101630007BFED0E770B50D4641F28151C0F220012A
:1016400006461320144600F04FFA00F0A3FC00F009
:10165000DBFCEDB24CF200002946C4F20D0000F0B4
:101660008DFC22464CF200004CF200042946C4F2E4
:101670000D04C4F20D0000F08BFB002E0CBF042201
:1016800000222046294600F0FDFB2046294600F0B6
:101690003BFC00F085FA132000F046FA70BDC0460E
:1016A00046F6080010B5C0F2200001F043FF4AF2F0
:1016B00000004021C4F20D0000F08EF800F0FEF8AA
:1016C0000E20FFF729FF712834D000205821FFF7A2
:1016D000E7FE0E207121FFF7E3FE04201421FFF73F
:1016E000DFFE03202421FFF7DBFE02200121FFF7AC
:1016F000D7FE07201121FFF7D3FE05202721FFF792
:10170000CFFE06200021FFF7CBFE11210820FFF7B6
:10171000C7FE0320FFF700FF0309DBB25A00DB001E
:1017200000F00F01D21846F61400C0F22000511844
:1017300001F02EFFFFF71AFF00F0C8F80120082182
:101740000422FFF777FF10BD014648F2000010B5F4
:10175000C4F2000000F0A2F948F20000C4F2000058
:1017600000F0B8F90028F7D110BDC04610B582B01E
:1017700002AC002344F8043D48F200002146C4F2C4
:10178000000000F09DF901460028F5D1019048F2D3
:101790000000C4F2000000F081F948F20000C4F239
:1017A000000000F097F90028F7D148F20000C4F2D9
:1017B0000000214600F07AF99DF8040002B010BD47
:1017C00010B5002200F0B2FB10BDC04610B50A46AD
:1017D00000F0ACFB10BDC04630B585B00D460446E8
:1017E00000F0D8FB00F010FC4FF4807000F078FCA3
:1017F00048F20000C4F2000000F04AF948F200008C
:10180000C4F20000012100F06BF94AF2000004224A
:10181000C4F20D00082100F0CBF92046294600F063
:10182000A1FB20462946002200F080FB4AF200007E
:10183000C4F20D001021032200F0BAF94AF20000B0
:1018400044F21012C4F20D02C4F20D00202100F087
:1018500003FA4AF200003821C4F20D0000F06AFBDE
:1018600000F0DEFB044600F095FB44F6D353C1F2D2
:101870006203A3FB0020800900220090082348F2A5
:10188000000021460193C4F20000134600F0D0F896
:1018900048F20000C4F2000000F0F4F804AC0023A9
:1018A00044F8043D48F20000C4F20000214600F074
:1018B00007F90028F6D105B030BDC04641F230220C
:1018C000C2F20002137801331370704741F23022E4
:1018D000C2F200021378013B1370704710B503F099
:1018E0009FFF10BD4AF2000010B50121C4F20D00A7
:1018F000FFF772FFFFF7E2FF4AF200000121C4F296
:101900000D00FFF763FF46F64C00C0F2200001F027
:101910003FFE4AF200000121C4F20D00FFF750FF24
:101920000620FFF711FF4AF200000121C4F20D006A
:10193000FFF74CFF4AF200000121C4F20D00FFF74F
:101940003FFF0120FFF700FF0020FFF7FDFE88208A
:10195000FFF7FAFE4AF200000121C4F20D00FFF782
:1019600035FF46F66400C0F2200001F011FE4AF295
:1019700000000121C4F20D00FFF722FF3520FFF720
:10198000E3FEFFF7F3FE014646F67000C0F22000CA
:1019900001F0FEFD4AF200000121C4F20D00FFF744
:1019A00015FF4AF200000121C4F20D00FFF708FF05
:1019B0000620FFF7C9FE4AF20000C4F20D00012123
:1019C000FFF704FF4AF200000121C4F20D00FFF707
:1019D000F7FE4220FFF7B8FE0020FFF7B5FE00201B
:1019E000FFF7B2FE0020FFF7AFFE0020FFF7ACFECE
:1019F0004AF20000C4F20D000121FFF7E7FE4AF2AF
:101A000000000121C4F20D00FFF7DAFE0520FFF708
:101A10009BFEFFF7ABFE04464AF20000C4F20D0045
:101A20000121FFF7D3FE002CE9D1FFF74FFF10BDD6
:101A3000022B10B414461CD0FBB94360019B00225A
:101A4000B1FBF3F10232B1FBF2F303F1FF3CBCF165
:101A5000FF0FF7D80261A301029A03F0FF0304F01D
:101A600030010B43013A134343EA0C23036010BCDB
:101A70007047063343F00403DFE7002343F0040319
:101A8000DBE7C046436843F0020343607047C0464B
:101A9000436823F0020343607047C04600F10C0224
:101AA000136813F0020FFBD08160704700F10C0245
:101AB000136813F0040FFBD083680B607047C046B7
:101AC000C368024613F004001EBF93680B60012038
:101AD0007047C046C068000900F001007047C0466A
:101AE000C0F8C81F7047C04630B44EF60852CEF258
:101AF00000028446136840F20000C2F200008342F4
:101B00000C4605460CD0116800225358835004320D
:101B1000B2F5237FF9D14EF60853CEF200031D60D3
:101B200040F82C4030BC7047042815D005281CD044
:101B3000062823D00F282AD00DD9A0F1100146F68F
:101B40007403C0F220034A0953F8220001F01F0178
:101B500001238B40036070474EF62452CEF2000200
:101B6000136843F480331360F5E74EF62452CEF247
:101B70000002136843F400331360ECE74EF624527E
:101B8000CEF20002136843F480231360E3E74EF2C1
:101B90001002CEF20002136843F002031360DAE78A
:101BA00010B500F0B1FA003818BF012010BDC046D2
:101BB0002DE9F00F46F6C80384B08A464FF0000CBA
:101BC0004AF2000146F6081B4BF2000846F6481997
:101BD0004CF2000646F6A80749F20004C0F22003C2
:101BE0000392C4F20D016246C0F2200BC4F20D084C
:101BF000C0F22009C4F20D06C0F22007C4F20D04A1
:101C000001930DE0A04224D044F20003C4F20D037E
:101C1000039D1D600CF1010C0432BCF1080F14D0BF
:101C20004AFA0CF313F0010FF4D0884208BF5BF8B6
:101C30000230EDD0E6D9404508BF59F80230E7D070
:101C4000B04208BFBB58DFD1E2E704B0BDE8F00FF7
:101C50007047019DAB58DBE74AF20003C4F20D0365
:101C6000984225D00ED94BF20003C4F20D039842DE
:101C700026D04CF20003C4F20D03984210D000218C
:101C80001160704749F20003C4F20D039842F6D187
:101C9000022923D0042927D008292DD10539EFE7BF
:101CA000012919D002291DD0042929D11631E7E7CD
:101CB00001290FD0022913D0042925D10631DFE7ED
:101CC000012905D0022911D0042911D10E31D7E7FD
:101CD0001021D5E70821D3E71821D1E70121CFE76B
:101CE0000731CDE71731CBE70239C9E70F31C7E735
:101CF00008290DD11321C3E710292BD10C39BFE7D7
:101D000008292BD11B21BBE7082905D10B21B7E7F7
:101D1000102905D10431B3E710290ED10439AFE7FA
:101D2000202901D10B39ABE7402901D12A39A7E796
:101D300080290CBF17210021A2E7202901D11339E6
:101D40009EE7402901D132399AE780290CBF0F2143
:101D5000002195E7202905D11B3991E710290AD1E7
:101D60000C318DE7402901D13A3989E780290CBF30
:101D70000721002184E7202901D1033980E7402988
:101D800001D122397CE780290CBF1F21002177E790
:101D90002DE9F00F46F6E80384B08A464FF0000CB8
:101DA0004AF2000146F6880B4BF2000846F6281965
:101DB0004CF2000646F6681749F20004C0F2200310
:101DC0000392C4F20D016246C0F2200BC4F20D086A
:101DD000C0F22009C4F20D06C0F22007C4F20D04BF
:101DE00001930DE0A04224D044F28003C4F20D031D
:101DF000039D1D600CF1010C0432BCF1080F14D0DE
:101E00004AFA0CF313F0010FF4D0884208BF5BF8D4
:101E10000230EDD0E6D9404508BF59F80230E7D08E
:101E2000B04208BFBB58DFD1E2E704B0BDE8F00F15
:101E30007047019DAB58DBE712F0010F10B49446D8
:101E400019D0D0F8003400F580640B431CF0020F69
:101E500023601EBFD0F8203400F5846443EA0100FB
:101E600006D1D0F82024CB4300F5846403EA0200B5
:101E7000206010BC7047D0F80024CB4300F580648C
:101E80001340E3E712F0010F10B494460C461DD046
:101E9000D0F8083400F5816123431CF0020F0B6079
:101EA0001ED0D0F8043400F58061043123431CF0C7
:101EB000040F0B601FD1D0F80C2400F58061E343C0
:101EC0000C3103EA0200086010BC7047D0F8082407
:101ED000E343134000F581611CF0020F0B60E0D179
:101EE000D0F80424E34300F58061043113401CF072
:101EF000040F0B60DFD0D0F80C3400F580610C319A
:101F000043EA0400DFE7C046D0F810340B43C0F8C2
:101F10001034704711B9D0F814047047D0F8180481
:101F2000FBE7C046C0F81C147047C04640F82120AB
:101F30007047C04670B5022204460D46FFF77CFF8D
:101F4000204629460022FFF723FF70BD70B502220C
:101F500004460D46FFF770FF204629460022FFF792
:101F600017FF70BD70B5012204460D46FFF764FFF0
:101F7000204629460022FFF70BFF70BD70B50022F6
:101F800004460D46FFF758FF204629460022FFF77A
:101F9000FFFE70BD42F20402C4F20D02136803F0AA
:101FA0000703072B05D8DFE803F0060B10151A1FEF
:101FB00024290020704744F60000C0F2E810F9E739
:101FC00042F20040C0F2F400F4E741F20020C0F217
:101FD0007A00EFE740F60010C0F23D00EAE748F271
:101FE0008040C0F21E00E5E744F24020C0F20F003E
:101FF000E0E74AF22010C0F20700DBE74DF2900064
:10200000C0F20300D6E7C04642F20002C4F20D025D
:10201000136823F4E06343EA002313607047C0466B
:1020200042F20402C4F20D02136803F4E0631B0AD7
:10203000072B05D8DFE803F0060B10151A1F24291B
:102040000020704744F60000C0F2E810F9E742F2C1
:102050000040C0F2F400F4E741F20020C0F27A0040
:10206000EFE740F60010C0F23D00EAE748F280409A
:10207000C0F21E00E5E744F24020C0F20F00E0E7A6
:102080004AF22010C0F20700DBE74DF29000C0F2E8
:102090000300D6E7030A46F68812C0F2200203F0D6
:1020A0000F0310B400F00F0052F82340012313FA7D
:1020B00000F0216883B00143013B21600193019A44
:1020C0000F2A05D8019B01330193019A0F2AF9D9F0
:1020D0002268C3431340236003B010BC7047C0465E
:1020E000030A46F69C1203F00F03C0F2200210B45C
:1020F00000F00F0052F82340012383402168194368
:10210000216010BC7047C046EFF3108062B6704784
:1021100010B440F22002C4F20202136841F200241B
:1021200043F01003136048F28043C0F21E03C0F274
:102130007A04002908BF1C4601380019B0FBF4F0EE
:1021400040F20C030138C4F20203186010BC70475F
:1021500010B441F23823C2F2000300241C604EF296
:1021600014024EF64703CEF20002C0F201034EF213
:1021700010001360CEF20000036842F2080143F041
:10218000050303600268C4F20D0142F0020202601E
:102190000B6840F20C0243F001030B60C4F203022F
:1021A00040F200031460C4F20303042140F204026D
:1021B0001960C4F20302033940F238031160C4F21B
:1021C00003030F221A6010BC7047C04641F2382347
:1021D000C2F200031868704740F22803C4F20303F8
:1021E00040F20C021860C4F20302136843F00103CA
:1021F0001360136813F0010FFBD1704710B44EF257
:102200001002CEF20002136841F2342423F00103DD
:102210001360C2F20004236841F2382203EBD013AA
:102220002360C2F20002136840F26941C3181360D0
:10223000C2F200010B781B1ADBB20B700A7812B1E4
:102240000B78802B06D92368013323600A7882F04B
:1022500080020A704EF21002CEF20002136843F0C0
:102260000103136010BC704710B541F23822C2F26E
:102270000002136801331360FEF7DEFAA0B940F2E2
:102280006940C2F200000378013BDBB203700278C0
:102290004AB941F23423C2F200031A686FF07F0199
:1022A00001321A60017010BDFEF718FBE7E7C04667
:1022B0007047C04641F23C23C2F2000318687047E1
:1022C00010B445F24003C4F20D031C6845F2440209
:1022D00045F24803C4F20D02C4F20D0311681868F8
:1022E00045F24C02C4F20D020004136840EA0120DA
:1022F000204340EA036010BC7047C04641F23C23D3
:10230000C2F20003002210B591201A6000F0A6F975
:10231000912000F095F901F0CDF8FEF787FB10BD94
:1023200045F2500270B5C4F20D020646136813F070
:10233000010FFBD000F0A4F945F24003C4F20D03F5
:102340001D6845F2440245F24803C4F20D02C4F28E
:102350000D031468196845F24C02C4F20D02090419
:10236000106841EA0421294341EA0062B31A062BAE
:10237000D8BFD61D45F24C03310EC4F20D031960CF
:10238000320C45F2480302F0FF02C4F20D031A605A
:10239000310A45F2440301F0FF01C4F20D03196054
:1023A00045F2400306F0FF02C4F20D031A6000F08C
:1023B00063F941F23C23C2F200031E60912000F059
:1023C00031F970BD42F22803C4F20D031A6812F00D
:1023D000010F08D04CF21803C4F200031A68D209A6
:1023E00002F0010070470120FCE7C04641F24023A3
:1023F000C2F20003186070474CF21802C4F20002E7
:10240000136813F0200FFBD14CF20003C4F2000359
:102410001860704770B54CF24003C4F200031968AD
:102420004CF2440289B211F05004C4F200024FF69B
:10243000BF731EBF4CF2180641F240254CF2000457
:1024400013601EBFC4F20006C2F20005C4F200040D
:102450001CD111F4D06F17D04CF23000C4F2000040
:102460004FF440724CF204030260C4F20003FF21F7
:102470004CF22C021960C4F2000211681460116061
:10248000036843F00103036070BD2368336813F0F1
:10249000100FF9D12B68002BF7D02068C0B29847F5
:1024A000336813F0100FF5D0EEE7C04642F2C530A6
:1024B00010B5C0F2200000F01DFF42F22802C4F265
:1024C0000D02136842F22C0143F001031360C4F2C1
:1024D0000D010B6842F2300043F001030B60C4F2BF
:1024E0000D0003684CF6C87243F00103036044F228
:1024F00000130024C4F20D03C4F20002146020464D
:102500001C600121224600F07DF9204601210822AD
:1025100000F06EF949F22041C4F20D010B684CF253
:10252000380043F002030B600A68C4F2000042F076
:1025300001020A605022026003684CF2340243F444
:10254000D0630360C4F2000202234CF23000136037
:10255000C4F200004FF440724CF2240302600821E0
:10256000C4F200034CF228021960C4F200022C23CA
:102570004CF22C011360C4F2000170220A6003685F
:1025800043F001030360052000F04CF810BDC04685
:1025900045F20003C4F20D0300221A607047C046E2
:1025A00045F20003C4F20D0308221A607047C046CA
:1025B00045F20003C4F20D03A02250211A601960F5
:1025C0007047C04610B500F05BF8FEE741F25023BB
:1025D0004EF20011C2F20003CEF20001196041F286
:1025E00044224EF28011C2F20002CEF200011160CC
:1025F00041F248234EF20021C2F20003CEF2000164
:10260000196041F24C224EF28021C2F20002CEF259
:1026100000014EF608531160CEF200034FF4001291
:102620001A60704741F25023C2F2000341091A6850
:1026300000F01F000123834042F821307047C0465C
:1026400041F24423C2F2000341091A6800F01F005E
:102650000123834042F821307047C04641F24C23A9
:10266000C2F2000341091A6800F01F0001238340F1
:1026700042F821307047C046EFF3108062B67047D1
:10268000EFF3108072B6704742F2000240F201137D
:10269000C4F20D02C0F2021342F204011360C4F24C
:1026A0000D010A6840F20003C0F2011302EA0303BD
:1026B000B3F1807FF5D1704742F27403C4F20D0389
:1026C00008221A607047C04641F25423C900C2F282
:1026D0000003521843F822007047C04641F25423C9
:1026E000C2F200034A012DE9F04105460F469E184B
:1026F000002455FA04F313F0010FE1B204D056F8A8
:1027000024300BB1384698470134082CF1D1BDE88C
:10271000F081C04641F2542010B500218022C2F25F
:10272000000003F061FF10BD10B500F0C3FE4CF2D5
:102730001843C4F20D0318680321C0B2FFF7CEFF9F
:102740004CF21C43C4F20D03FF221A6010BDC046B8
:1027500010B500F0AFFE4BF21843C4F20D03186839
:102760000221C0B2FFF7BAFF4BF21C43C4F20D03C3
:10277000FF221A6010BDC04610B500F09BFE4AF261
:102780001843C4F20D0318680121C0B2FFF7A6FF79
:102790004AF21C43C4F20D03FF221A6010BDC0466A
:1027A00010B500F087FE49F21843C4F20D03186813
:1027B0000021C0B2FFF792FF49F21C43C4F20D039F
:1027C000FF221A6010BDC04641F2D82344F28001B6
:1027D000C2F20003C4F20D01196041F2D42244F2A6
:1027E0000003C2F20002C4F20D0313607047C0463A
:1027F00041F2D823C000C2F200030918186840F85B
:102800002120704741F2D423C000C2F2000309180E
:10281000186840F821207047A0F10B03DBB20F2BA2
:1028200098BF48F24C6210B4844698BFC4F20802C4
:1028300035D8136813F0020FFBD148F63801ED23A9
:10284000C4F2080148F22C620B60C4F208020B606B
:1028500013680BBB41F2DC24C2F2000420784FEA7B
:102860008C0200F07F00624448F23C632C3AC4F2D0
:10287000080348F638016FEA40601A60C4F20801A4
:10288000ED226FEA5060E3230A600A600B6020705B
:10289000604640B210BC7047EF230B60DAE7FF20C0
:1028A000F7E7C04648F2C85300F0FF02C4F208033D
:1028B0001A6048F2CC53000AC4F2080342F66042A0
:1028C0001860C2F20002517848F2D053C4F20803F3
:1028D0001960107848F2D453C4F2080318607047A6
:1028E00070B548F24C63C4F208031A68844612F0CB
:1028F00040002CD048F62800C4F208000368DBB280
:1029000013F0800F1BD1042B19D9023B8B4216DC2C
:10291000DDB2032D3CD845B1002201460B680CF80E
:1029200002300132D3B29D42F8D848F62803C4F2EF
:10293000080319681A68D4B214F0800F08D148F659
:102940003803C4F20803ED221A6000201A6070BD3B
:10295000493949B2042089B2FEF74CF9032004F04A
:102960007F01FEF747F948F24C62C4F2080213688F
:1029700013F0400F0AD0136813F0800F24D148F6EB
:102980003803C4F20803ED221A601A602846DEE715
:102990006C1E0CEB0401032000F036FC4CF202012B
:1029A0002401C0F60141032044EA010100F036FC95
:1029B000032000F03FFC032000F054FC032000F053
:1029C0005DFC0028FAD1B0E740F26C40C2F2000092
:1029D00002F0AAFC2846BAE710B548F62C03C4F268
:1029E00008031A6840F26C40042A1EBF41F2DC2240
:1029F000C2F200021378C2F200001CBF43F0400391
:102A0000137048F62C03C4F2080300221A6002F087
:102A10008BFC10BD40F26C4010B5C2F2000002F019
:102A200083FC48F63403C4F2080300221A6010BD88
:102A30002DE9F04141F2DC26C2F20006337813F0B2
:102A4000010702D00020BDE8F08142F2A802012572
:102A5000C4F20D0242F2AC031560C4F20D0342F25F
:102A6000B0021D60C4F20D0248F258631560C4F252
:102A70000803F82148F2E8721960C4F20802EF393D
:102A800048F2C8631160C4F20803152248F22461B9
:102A90001A60C4F208010B2004232B3218600A606C
:102AA0000B6848F2086243F020030B60C4F208028E
:102AB00048F250631760C4F208037F2448F2406272
:102AC0001C60C4F20802772313600E301268FFF70F
:102AD000A3FE48F28C62C4F2080213688D2043F012
:102AE00004031360FFF79EFD48F29463C4F20803E9
:102AF0001C608E20FFF796FD022000F0A7FB48F631
:102B00002801C4F20801022000F07EFB032000F03F
:102B10009DFB48F628010320C4F2080100F06AFB7F
:102B200040F26C40C2F20000394602F0D1FB33782B
:102B300028462B43337086E710B50288044622B935
:102B400040F29E232380012010BD40F29E239A4232
:102B500004D04FF0000303800320F5E7822935D12C
:102B6000FEF7A2F8FEF700F88021FFF7B9FE002873
:102B700008DD80B2FDF7F2FF46F6D433C0F2200341
:102B80001A69904741F2DC20C2F20000037813F08A
:102B9000400FD5D048F24C62C4F20802136813F01B
:102BA000020FFBD148F63801ED23C4F2080148F2C8
:102BB0002C620B60C4F208020B6013680BB1EF23A8
:102BC0000B6000230370FFF733FFB9E70120BBE779
:102BD000A0F10B03DBB20F2B98BF48F24C6210B48C
:102BE000844698BFC4F2080235D8136813F0020F68
:102BF000FBD148F63801ED23C4F2080148F22C62FB
:102C00000B60C4F208020B6013680BBB41F2DD24B9
:102C1000C2F2000420784FEA8C0200F07F00624488
:102C200048F23C632C3AC4F2080348F638016FEAD4
:102C300040601A60C4F20801ED226FEA5060E3239D
:102C40000A600A600B602070604640B210BC70479A
:102C5000EF230B60DAE7FF20F7E7C04648F248634E
:102C6000C4F208031A6812F03F0F1CBF41F2DD20C6
:102C7000C2F2000019D141F2DD20C2F20000037857
:102C800043F0100C1CF0800F80F800C00DD148F606
:102C90003802C4F20802ED23136013606FEA4C633C
:102CA000E3216FEA53631160037048F26462C4F277
:102CB0000802136813F0010FFBD090F800C048F22F
:102CC0004C63C4F208031CF0100F1A6814D01A46A3
:102CD000136813F0020FFBD148F63801ED23C4F25C
:102CE000080148F22C620B60C4F208020B60136802
:102CF00023B90CF06F03037001207047EF230B60C2
:102D0000F7E7C04641F2DD20C2F2000090F800C0B3
:102D10001CF0800F0DD148F63802C4F20802ED23F2
:102D2000136013606FEA4C63E3216FEA5363116031
:102D3000037001207047C04648F24C62C4F208029A
:102D4000136813F0020FFBD148F63801ED23C4F2EB
:102D5000080148F22C620B60C4F208020B60136891
:102D60000BB1EF230B6041F2DD22C2F200021378B7
:102D7000012003F07F0313707047C04648F24C6394
:102D8000C4F20803186800F02200202814BF0020B5
:102D90000120704748F24C63C4F20803186800F041
:102DA0004000704770B548F24C63C4F208031A68DB
:102DB000844612F040002CD048F62800C4F20800E7
:102DC0000368DBB213F0800F1BD1042B19D9023B2F
:102DD0008B4216DCDDB2032D3CD845B10022014602
:102DE0000B680CF802300132D3B29D42F8D848F695
:102DF0002803C4F2080319681A68D4B214F0800FCB
:102E000008D148F63803C4F20803ED221A60002006
:102E10001A6070BD493949B2042089B2FDF7EAFE53
:102E2000032004F07F01FDF7E5FE48F24C62C4F296
:102E30000802136813F0400F0AD0136813F0800FD4
:102E400024D148F63803C4F20803ED221A601A6050
:102E50002846DEE76C1E0CEB0401032000F0D4F9D9
:102E60004CF202012401C0F60141032044EA0101B1
:102E700000F0D4F9032000F0DDF9032000F0F2F9AE
:102E8000032000F0FBF90028FAD1B0E740F27C40C3
:102E9000C2F2000002F048FA2846BAE770B541F2E3
:102EA000DD25C2F2000595F90030002B20DBFFF78D
:102EB00007FA2C7814F0800F0DD148F63802C4F2CE
:102EC0000802ED23136013606FEA4463E3216FEAA5
:102ED000536311602B702B784FF6F67443F0100398
:102EE000CFF6FF742B70241AFFF7EAF9E042FBD407
:102EF000FFF7B4FE002852D048F24C64C4F2080434
:102F0000236813F0200F4AD148F63803E922C4F2AF
:102F100008031A60216811F0020F11D10620FFF793
:102F20005BF9236813F0020F0AD10620FFF754F96A
:102F3000236813F0020F03D10620FFF74DF9216833
:102F400048F24C62C4F20802136813F0020F28D151
:102F500048F63803C4F20803EE221A6001201A6012
:102F60002C7814F0100F1BD048F24C62C4F2080207
:102F7000136813F0020FFBD148F63801ED23C4F2B9
:102F8000080148F22C620B60C4F208020B6013685F
:102F90000BB1EF230B6004F06F032B7000E00220F5
:102FA00070BD136813F00200DAD0136813F002004A
:102FB000F7D1D5E748F24C6210B584460C46C4F20E
:102FC0000802136813F0020FFBD141F2DD20C2F2B8
:102FD000000090F800E01EF0800F0DD148F6380296
:102FE000C4F20802ED23136013606FEA4E63E3211D
:102FF0006FEA53631160037048F63803EE22C4F29F
:1030000008031A601A6048F62803C4F20803A11CDA
:10301000013C196002200CEB040100F0EBF84CF2CB
:1030200002012401CCF2010144EA0101022000F076
:10303000F5F8022000F0FEF8022000F013F900205D
:1030400010BDC04610B50C46FFF7B4FF2046FFF791
:1030500025FF10BD2DE9F04141F2DD26C2F2000648
:10306000337813F0010702D00020BDE8F08142F26E
:10307000A8020125C4F20D0242F2AC031560C4F2AD
:103080000D0342F2B0021D60C4F20D0248F2586313
:103090001560C4F20803F82148F2E8721960C4F21E
:1030A0000802EF3948F2C8631160C4F20803152220
:1030B00048F224611A60C4F208010B2004232B3269
:1030C00018600A600B6848F2086243F020030B6046
:1030D000C4F2080248F250631760C4F208037F2468
:1030E00048F240621C60C4F20802772313600E307D
:1030F0001268FFF76DFD48F28C62C4F20802136893
:103100008D2043F004031360FFF78CFA48F29463B8
:10311000C4F208031C608E20FFF784FA022000F03E
:1031200095F848F62801C4F20801022000F06CF876
:10313000032000F08BF848F628010320C4F20801B0
:1031400000F058F840F27C40C2F20000394602F02C
:10315000BFF8337828462B43337086E710B50288D2
:10316000044622B940F29E232380012010BD40F284
:103170009E239A4204D04FF0000303800320F5E71A
:10318000822935D1FDF790FDFDF7EEFC8021FFF798
:1031900009FE002808DD80B2FDF7E0FC46F6D433D6
:1031A000C0F220031A69904741F2DD20C2F200000C
:1031B000037813F0400FD5D048F24C62C4F20802F5
:1031C000136813F0020FFBD148F63801ED23C4F267
:1031D000080148F22C620B60C4F208020B6013680D
:1031E0000BB1EF230B6000230370FFF733FFB9E748
:1031F0000120BBE7032805D841F20043C2F20003D7
:10320000020199507047C046032806D841F2004396
:10321000C2F2000302019B1859607047032807D8C7
:1032200041F200424300C2F20002013342F833107F
:103230007047C046032808D8012282404FF2280375
:10324000C4F20F0319680A431A607047032808D8AC
:10325000012282404FF22003C4F20F0319680A438F
:103260001A607047032808D8012282404FF21403E5
:10327000C4F20F0319680A431A60704703280AD87A
:10328000420041F20043C2F20003013253F832100F
:1032900001F0070070470020FCE7C0464FF20453DE
:1032A000C4F20F034FF0FF321A6070474FF24C0325
:1032B000C4F20F0301221A607047C04610B541F2F4
:1032C0000044C2F2000400214022204603F08CF9A1
:1032D0004FF204024FF20803C4F20F020121C4F2BC
:1032E0000F0311602E201C60FFF79CF92F20FFF7C1
:1032F00099F910BD41F60402C2F20002136883423C
:1033000004D02BB15368834200D003B1704701331E
:1033100042F82300FAE7C04642F258030020C4F204
:103320000D034EF610511860CEF200010B6841F605
:10333000000243F004030B6042F654410123C2F241
:103340000001C2F2000213700B4643F8040B043371
:10335000486018607047C04670B5FEF7B1FF41F68F
:103360000C03C2F20003186030BF42F65445C2F2AB
:1033700000052C68FEF7A4FF41F60C03C2F200031F
:103380001A68A41A24182C6070BDC04670B548F2A3
:103390004863C4F208031A6812F03F0F11D141F6D6
:1033A0000404C2F2000423682BB1984748B1636853
:1033B0000BB1984728B141F60004C2F2000423780B
:1033C00013B9FFF7C9FF70BDFEF774FF0546FEF79E
:1033D00077FFD5F1010338BF0023281A092898BFC9
:1033E00043F00103002BECD142F20402C4F20D02BF
:1033F000136813F4801FFBD142F20002C4F20D02E5
:10340000136843F48033136042F20402C4F20D02E5
:10341000136813F4803FFBD0FEF752FF281A0928E7
:1034200030D9632808D92278022A02BF42F2580311
:10343000C4F20D031A6005D042F25803C4F20D0322
:1034400001221A60FEF73CFF41F60C03C2F20003B2
:10345000186001F0F9FE30B342F20002C4F20D022E
:10346000136823F48033136042F20402C4F20D02A5
:10347000136813F48031FBD142F25803C4F20D03F8
:103480001960A0E742F20002C4F20D02136823F4AF
:103490008033136042F20402C4F20D02136813F485
:1034A000803FFBD18FE7FEF705FF0028D4D030BF67
:1034B00089E7C04670B542F25802C4F20D021368A3
:1034C00082B013F0030F01D102B070BD126842F652
:1034D000544602F00302C2F2000656F8224001925E
:1034E000FEF7EEFE41F60C05C2F200052B68019ACC
:1034F000E41A241846F82240FEF7E2FE2B68C01AB0
:10350000000AFEF77BFE42F20002C4F20D021368CD
:1035100023F48033136042F20402C4F20D021368F4
:1035200013F48031FBD142F25803C4F20D03196049
:10353000CAE7C04670B50546007870B1002401E0C6
:10354000285D28B10134FEF757FF2B19002BF7D166
:103550000A20FEF751FF204670BD0446F8E7C0463A
:1035600070B50E46054680B1007870B169B100248F
:1035700003E0285D38B1A64205D90134FEF73CFFCF
:103580002B19002BF5D1204670BD0024FBE7C04667
:103590000FB400B583B004AA52F8041B40F28C406B
:1035A000C2F20000019200F031F803B05DF804EBC4
:1035B00004B07047084610B511460AB1FFF7D0FFB6
:1035C000002010BD102970B505460C4603D80FE049
:1035D000103C102C0CD946F608212B686868C0F204
:1035E00020011022984703460028F1D0184670BDEC
:1035F0000CB92346FAE746F608212B686868C0F242
:103600002001224698470346F0E7C0462DE9F04FD7
:1036100091B002900FAB914600200DF13F0209904E
:10362000019200930B78002B00F01181252B00F004
:103630004F834B784A1C14462BB1252B03D014F82A
:10364000013F002BF9D1A14210D00298651A0368FE
:103650002A4640689847002840F0D28209994919C3
:1036600009912378002B00F05E84621C11780029F8
:1036700000F0ED8010460026A1F120038046102BBB
:103680000AD8DFE803F0C40909BF090909090909D3
:1036900009BA09B50909B000A1F13103DBB2082B61
:1036A00000F22E812F2940F22D81392900F22A8142
:1036B000002702E0392900F284817B00FA009B1880
:1036C0005B1818F8011FA3F130072F29F2D84C46D8
:1036D0002E2900F01D814FF0FF32A14604926C2983
:1036E00000F03881682900F07081782900F2968016
:1036F000DFE811F0AD009400940094009400940071
:103700009400940094009400940094009400940019
:103710009400940094009400940094009400940009
:1037200094009400940094009400940094009400F9
:103730009400940094009400940094009400DA02A1
:1037400094009400940094009400940094009400D9
:1037500094009400940094009400940094009400C9
:1037600094009400940094009400940094009400B9
:10377000940094009400D702940094009400D40222
:10378000D102CE029400940094009400940094001E
:103790009400940094009400940094009400940089
:1037A00094009400CB029400940094009400940040
:1037B000940094009400C8029400C502C202BF02A3
:1037C000BC02B9029400C2029400940094009400D8
:1037D0009200E602E30294009400E0029400DD020D
:1037E00094009400E90246F0100610F8011F43E728
:1037F00046F0010610F8011F3EE746F0060610F8F5
:10380000011F39E746F0080610F8011F34E746F0BB
:10381000020610F8011F2FE746F4E06606F4E063A5
:10382000B3F5806F00F0048100F29F80B3F5807FD4
:1038300000F03F81B3F5407F0DD0CDF8209008F126
:1038400001010B78DDF82090002B7FF4EFAE099892
:1038500011B0BDE8F08F09F10403089346F6302259
:1038600046F61C23D9F800100020C0F22002C0F256
:10387000200316F4804F14BF15461D46002900F0A2
:1038800057830FAC01F00F03EA5C0B0943EA0071A8
:10389000000904F8012D51EA0002F3D12146009BF2
:1038A0001A1B00F0DA81D41C782301F8013C4A1E6F
:1038B000483B511E02F8013C0D3BBC4201F1FF396F
:1038C00001F8013CC0F00282002516F0010706D184
:1038D00002982946FFF776FE002840F09181029871
:1038E00049460368224640689847002840F088818E
:1038F000002F40F0EF81099963185D1909959EE743
:103900002A296DD0017800272E294C467FF4E3AE9A
:1039100018F8010FA0F13003DBB2092B01466DD876
:103920002F2840F20283392800F2FF82002201E0B2
:10393000392809D85300D2009B181B1818F8010F1A
:10394000A3F130022F28F3D8049201466C29A14636
:103950007FF4C8AE18F8011F6C2906BF46F0800638
:1039600018F8011F46F06006BFE6B3F5C06F4FD0F0
:10397000B3F5E06F00F09580B3F5A06F7FF45DAF15
:1039800009F104020892D9F80030012F8DF83F3078
:1039900040F2B7817C1E16F0010700F054810298B6
:1039A0000DF13F010368012240689847002840F06C
:1039B0002781002F40F0A7810999631CC91809913C
:1039C0003DE74FF0FF33049389E618F8011F68299B
:1039D00006BF46F0200618F8011F46F0400684E6B0
:1039E000D9F8002009F10404002ABABF46F0010604
:1039F0001746174600F10108417869E62A287FF446
:103A00006AAE04F104092468049418F8011F66E6FC
:103A1000029846F618210368C0F22001406801228E
:103A20009847002840F0EC8009990131099104E79A
:103A300009F104030893D9F80040002C00F06882D3
:103A40002378002B00F0C182224612F8013F002BA0
:103A5000FBD1049B121B9A4294BF002101210498C0
:103A6000C34311EAD373054608BF1546BD422CBFB8
:103A70004FF00009C5EB070916F0010700F0D980E7
:103A800002992A460B68486821469847002840F06A
:103A9000B780002F40F02B81099AAB184B44099353
:103AA000CDE609F104020892D9F8003009981860AF
:103AB000C5E6049A002AA8BF26F01006C0F21481B9
:103AC00016F40050039000F09E8006F0E003402BB7
:103AD00000F04A8200F22181002B40F02C8209F193
:103AE00004030893D9F800301A464FEAE273002B1A
:103AF000C0F20782DDF8209092469B460023CDF865
:103B00002090079306F4C053B3F5805F00F0BD81A9
:103B1000B3F5C05F00F08F81B3F5006F00F06681F0
:103B200000230DF13F0905930599049A9142C0F0D5
:103B30000D8141F608020023C0F20002069306EA56
:103B4000020241F208039A4200F00F810599069B98
:103B5000581841F608039A4214BF002201225AEA7B
:103B60000B014FF0000318BF012312EA030104BF49
:103B70000C4625460DD046F6482246F6442316F458
:103B8000804FC0F22002C0F2200314BF14461C462E
:103B90000225039A42B1079B002B00F0188146F6DC
:103BA0004C24C0F2200401252918B9422CBF4FF043
:103BB000000AC1EB070A16F0010707D116F0100F33
:103BC00000F08081069850440690BA46002D40F0DF
:103BD000E980069A102A98BF144640F2CD80069CD0
:103BE00003E0103C102C40F2C780029846F65C219E
:103BF0000368C0F220014068102298470028F0D0E6
:103C00004FF0FF3024E606F0E003402B00F0D281B5
:103C100040F28E80602B00F0C281802B00F0B381D7
:103C20000020CDF820904FF0000A4FF0000B0790D5
:103C300068E702984946FFF7C5FC00283FF420AF2B
:103C40004FF0FF3004E602982146FFF7BBFC002846
:103C5000D6D1099B1B190993A1E63023611E04F8F4
:103C6000013C042420E646F48136D7E546F400768C
:103C7000D4E546F40246D1E546F42456CEE546F4B2
:103C8000A066CBE546F4C136C8E546F4B246C5E5C4
:103C900046F4A136C2E546F48446BFE546F4424602
:103CA000BCE546F4E136B9E546F4C066B6E546F44F
:103CB0001066B3E546F48066B0E546F44076ADE5BF
:103CC00046F48856AAE546F4C856A7E53D1BFCE530
:103CD0004A1CCBE402982946FFF774FC00283FF405
:103CE0000AAE4FF0FF30B3E501230493E8E60298F3
:103CF0004946FFF767FC00283FF4CEAE4FF0FF3097
:103D0000A6E5002447E602982146FFF75BFC002861
:103D10003FF452AE4FF0FF309AE5602B00F0628125
:103D2000802B00F055814FF0000A4FF0000BE5E6C4
:103D3000002B40F00C8109F104010891D9F8003002
:103D4000039A9A464FF0000B0792DBE641F6080211
:103D500004980599C0F2000206EA020241F2080343
:103D6000401A9A4206907FF4F1AE0698002840F07F
:103D7000C28001210691E9E6002C40F0AD80029A54
:103D8000494613685068059A984700287FF438AF71
:103D9000A7B909990598069A43185B199B185344CB
:103DA00009934CE502992A460B68486821469847D2
:103DB00000283FF40EAF4FF0FF3049E5029851461E
:103DC000FFF700FC0028E4D04FF0FF3040E506F09C
:103DD0000602022A00F0D18046F65023062AC0F2DD
:103DE000200308BF1C4608BF0125DDE65AEA0B0187
:103DF00004BF0DF13F020DF13F0918D00DF13F094D
:103E000054465D46204629460A22002301F0DEFE84
:103E1000303209F8012D204629460A22002301F0FC
:103E2000D5FE50EA010204460D46EBD14A46019BFD
:103E30009A1A059278E646F6302246F61C23C0F21E
:103E4000200216F4804FC0F2200314BF15461D4611
:103E50005AEA0B0204BF0DF13F040DF13F0910D0E7
:103E60000DF13F045146584601F00F03EA5C0B097F
:103E700043EA0071000951EA000304F8012DF3D16F
:103E8000A1460198041B05944EE65AEA0B0004BFB4
:103E90000DF13F000DF13F0910D00DF13F005246EA
:103EA000594602F00703D208303342EA4172C9088A
:103EB00000F8013D52EA0103F3D181460199081A45
:103EC000059031E602985146FFF77CFB00283FF44D
:103ED0007DAE4FF0FF30BBE4029922460B68486884
:103EE00046F65C21C0F22001984700283FF447AF16
:103EF0004FF0FF30ACE40699059A00248818254657
:103F000047E6D2F1000A63EB430B01220792F9E581
:103F1000049846F6542405288CBF0021012106226E
:103F2000C0F220049BE5084692E4002104910CE5D0
:103F30000FAC0FA9B3E4202B7FF4F5AE09F1040117
:103F4000089199F900301A464FEAE273CFE5202B29
:103F50007FF466AE09F10401039A089199F800A074
:103F60004FF0000B0792CDE509F104020892B9F970
:103F700000301A464FEAE273B9E546F27C74C0F2AB
:103F80002004012510E609F1070323F0070303F1DC
:103F90000801039A0891D3E900AB0792B2E509F151
:103FA00004030893D9F8003003989A464FF0000BA9
:103FB0000790A7E509F104030893B9F800300398C6
:103FC0009A464FF0000B07909CE51A46194646E5C5
:103FD00009F1070323F0070303F108010891D3E96E
:103FE000002384E509F104000890D9F800301A464E
:103FF0004FEAE2737BE5C04610B5022202F078FA80
:10400000D0F1010038BF002010BDC04610B502221B
:1040100002F09EFA10BDC04670B500F09DF905464D
:1040200041F61000C2F20000FCF796FB044640B1D6
:10403000636803B198472046FCF7FAFB0446002862
:10404000F6D115B12846FCF76DFA70BD10B501F038
:10405000D3FBFCF729FE00F093F800F08DF9022065
:104060004FF400714FF4F0524FF4E12300F092F856
:1040700010BDC04610B5044600F05CF900B910BD93
:10408000FCF7A0FE46F6FC33C0F2200344F2A10088
:10409000C0F220009A68214690470120EFE7C04611
:1040A00001292DE9F04107460D46164631D0022977
:1040B00027D0F1B146F6C420C0F22000FFF768FA1D
:1040C00041F61000C2F20000FCF746FB044648B17E
:1040D000A3680BB1284698472046FCF7A9FB044685
:1040E0000028F5D1384629463246FCF721FABDE8CA
:1040F000F08146F6AC201146C0F22000FFF748FAE6
:10410000DEE746F690201146C0F22000FFF740FAA5
:10411000D6E746F670201146C0F22000FFF738FAC5
:10412000CEE7C04641F61803C2F20003186070479C
:1041300041F6140010B5C2F20000FCF70DFB10BDF3
:104140002DE9F041064641F61400C2F20000174680
:104150000C46FCF701FB024628B90EE01046FCF7BE
:1041600067FB024648B19388A342F7D1956825B111
:104170001046314622463B46A847BDE8F081C0467E
:1041800041F6140010B5C2F20000FCF7E1FA10BDD0
:104190007047C0462DE9704A41F61C04C2F2000483
:1041A0000546914646F6F4220E4620462946C0F2C0
:1041B00020029B46FCF78EF944F27520C0F22000E5
:1041C000A665C4F85C90C4F860B0FFF7ABFFBDE82B
:1041D000708AC046F0B583B00F46FCF7C5FC0546B3
:1041E000022229460DF1060002F0B2F9BDF80640A0
:1041F000FCF7EAFCA4000234844218D8BDF806306B
:10420000ABB1023500240DF10206294604223046E6
:1042100002F09EF93846BDF80210BDF80420FFF701
:104220008FFFBDF8063001340435A342EDDC03B046
:10423000F0BDC04610B541F61C04C2F2000444F2C1
:104240009522616E002304F13800C0F2200201F0D3
:104250006BF901F0ADF9616E44F2B522B0FBF1F3F8
:1042600003FB1101C0F2200204F11800002301F049
:104270005BF910BD10B59DF80830012B00D010BDC2
:1042800041F61C03C2F200039A6D5A66FFF7D2FF93
:10429000F5E7C04610B541F61C03C2F200035A6EA2
:1042A000196E52008A4294BF5A665966FFF7C2FFE0
:1042B00010BDC04610B5FCF7F7FCFCF755FC4FF0FD
:1042C000000202800446FFF733FF014690B914E074
:1042D00023888A889B00E3185A802288CB88920022
:1042E000A21893802388084601332380FCF7A0FAA4
:1042F000014610B10B7B002BEAD123884FF6FE70EC
:104300009B000233C0F2000003EA0000FCF726FC29
:1043100023882BB141F61C00C2F20000FCF7C8F85C
:1043200010BDC04646F6FC23C0F2200310B59A68C3
:10433000904710BD46F6FC23C0F2200370B55A68C2
:1043400005469047A98804460120FCF753FC201E2F
:1043500018BF012070BDC04646F6FC23C0F2200302
:1043600010B51A689047044618B10120A188FCF7DF
:1043700041FC204610BDC04610B5FCF72FF910BD1A
:10438000072BF0B40746154608461C4640DDC2B967
:104390004FEAE30C835CBB5401326245FADB14F054
:1043A00007040CD046F60833C0F2200310F80C10B6
:1043B0001A5DC4F108031140194107F80C10F0BC54
:1043C0007047DE104FF0000C00EB0C0210F80C10E0
:1043D000537843EA0123AB401B1207F80C300CF171
:1043E000010CB445F0DB14F00704E8D08319825DBA
:1043F000597846F6083341EA0221A940C0F2200369
:104400001A5DC4F1080302EA21221A41BA55D6E71F
:104410000B78497841EA0321914046F60833C0F20F
:1044200020031A5DC4F1080302EA21221A413A70FE
:10443000C5E7C046037843B10021437810F8022F46
:10444000C918002AF9D1084670471946FBE7C0464B
:10445000072B2DE9F0030446894615461E4650DD1C
:1044600009BB4FEAE30C6B5C635401316145FADB35
:1044700016F0070114D015F80C20C1F108031A41F9
:10448000C1F11003D2B29A4014F80C3092B243EA50
:10449000122304EB0C0004F80C3041780A434270FC
:1044A000BDE8F0037047DF10C1F1080800204FF0AD
:1044B000010C2B5C225C03FA08F39BB242EA132244
:1044C000225414F80C1001300B43B84204F80C309D
:1044D0000CF1010CEDDB16F00701E1D0EA5D09F10A
:1044E00008035B1A1A41C1F11003D2B29A40E35D8E
:1044F00092B243EA1223E019E35541780A4342702D
:10450000CEE71278C1F110039B1B9A4041780378E3
:1045100092B243EA12230A4303704270C0E7C046D6
:104520002DE9F043027B044612F0070318BF012374
:1045300003EBD20583B0A81CFCF7D8FA10B903B07E
:10454000BDE8F083FCF71EFBA2880270A3881B0A5B
:104550004370FCF717FB00F10208404600212A4691
:1045600002F042F8A368187830B31C4600250DF11C
:1045700006090DE0FCF74EFB05F007010246334645
:1045800008EB0700FFF764FF14F8020FA0B1AD19A4
:10459000EF1017286678EDD8FCF734FB05F007011B
:1045A000ADF806004A4608EB07003346FFF750FF18
:1045B00014F8020F0028EAD10120C0E72DE9F047E6
:1045C00082B0FCF7D1FA04460220FCF7AFFA20B91A
:1045D0000024204602B0BDE8F0876078237800020E
:1045E000C01880B2FBF7C2FF04460028F1D0FCF7E8
:1045F000BBFA237B804613F0070018BF012000EBB5
:10460000D300FCF793FA0028E2D0A2681378002BBD
:10461000DFD0154600260DF1040A0DF1060910E061
:1046200008EB0201484606F007023B46FFF7A8FEEA
:1046300028784946FCF7F8FA15F8023F002BC8D055
:10464000F619F210172B6F78EAD84FF0000308EB39
:104650000201ADF80430504606F007023B46FFF772
:104660008FFE2878BDF80410FCF7C4FAE4E7C046D2
:1046700046F6E013C0F2200310B51A6A904710BD49
:1046800010B530B946F6E013C0F220035A6A9047DD
:1046900010BD46F6E013C0F220031A6A9047F7E710
:1046A0000020704746F6E013C0F2200310B51A6AE6
:1046B000904710BD2DE9F041FCF786FAFCF754FA5B
:1046C000FCF782FA03285DD046F6F433C0F22003EB
:1046D0005A68904700286EDB1920FCF79BFA42F6D7
:1046E0006041C2F20001FFF787FC002851D041F67B
:1046F00088060027C2F200063C463D46B04603E06D
:1047000001340335082C1FD00D20FCF77BFA7319F8
:104710009A788242F4D11820FCF77CFA61000919DA
:104720004144FFF769FC0028EAD00D20FCF76AFA43
:10473000014646F66030C0F220000134FEF728FF43
:1047400001270335082CDFD1D7B9204DEC1E2846B0
:104750000322214601F0FCFEA6422546F6D10D209B
:10476000FCF750FAA0701820FCF754FA01462046D6
:10477000FFF74CFC46F6FC33C0F22003DA689047A2
:10478000BDE8F08146F61430C0F22000FEF7D2FEFC
:10479000F6E71920FCF73EFA46F66C21C0F220013C
:1047A000FFF72AFC0028A2D146F64C30C0F22000C8
:1047B000FEF7C0FEE4E7FCF707FA014646F62C30A8
:1047C000C0F22000FEF7E4FEDAE7C0469D180020A4
:1047D0002DE9F043884642F6604183B0C2F2000101
:1047E00007461820FCF720FA01210B20FCF702FAFB
:1047F00046F6F433C0F220031A689047002835DBF0
:10480000FCF7C0F946F6E016C0F22006756890F88D
:104810000290FCF7B7F90446FCF7DCF901462046A4
:10482000A8471920FCF7F6F946F66C21C0F22001E2
:10483000FFF7E2FBB3690546984718B96DB9F3690C
:10484000984750B10122002438464146012300F028
:104850007BF8204603B0BDE8F083B468FCF7BAF9F2
:10486000A04758B10228EDD00422ECE746F690307C
:10487000C0F22000FEF75EFE0522E4E715B1012438
:104880000022E1E7FDF71CFD0446FDF791FE4FF61F
:10489000F375CFF6FF752D1BFDF712FDE842FBD433
:1048A00046F6E014B369C0F22004984710B9E369F2
:1048B000984720B3FDF704FD0446FDF779FE4FF657
:1048C000EB75CFF6FF752D1BFDF7FAFCE842FBD424
:1048D00046F6E014F369C0F22004984708B90222B2
:1048E000B1E7032123690DF1050098470328A9D1F9
:1048F0009DF807304B45A5D101240022A4E7636948
:1049000098470028D6D046F6B830C0F22000FEF70F
:1049100011FE022297E7C04670B5134606460D46C3
:1049200012B90BE023464CB158681C6800F0C4FE75
:1049300030462946FFF74CFF0028F3D170BDC04632
:1049400010B5FFF745FF10BD10B5844618B10846F5
:1049500011461A46E04710BD30B591B0FCF734F966
:1049600001AD0446FCF700F921462A4600F092FF0B
:1049700018B94FF0FF3011B030BD9DF83C00201A3F
:10498000FCF7D4F80028F4D09DF8090090B90DF197
:104990001A011820FCF748F99DF806101220FCF7C0
:1049A00029F90D209DF80C10FCF724F99DF83C30F6
:1049B000E01AE0E7BDF80E304FF6FF729A1A18BF02
:1049C000012245F249418B420CBF002202F0010254
:1049D000002ACED102280CBF0221082101E00029C3
:1049E000D5DD01396B181A7BFF2AF8D0192004A9EC
:1049F000FCF71AF9CBE7C04630B591B001AD3C22C7
:104A00002846002101F0F0FD41F6A102C2F20002A9
:104A10001378002B00F085800123002412208DF8EC
:104A200004308DF80540FCF7EDF88DF806001920EC
:104A3000FCF7F0F846F66C21C0F22001FFF7DCFA33
:104A4000002868D08DF8074000230A208DF8083030
:104A50008DF80A30FCF7D6F800283DD00A20FCF784
:104A6000D1F88DF80C0045F24943022419208DF845
:104A70000B40ADF80E30FCF7CDF846F66C21C0F2D5
:104A80002001FFF7B9FA00283BD04FF0FF338DF833
:104A900009408DF810308DF8113042F6604145F232
:104AA0004943C2F200010DF11A00ADF81830FFF7CA
:104AB000ADFAFCF759F80E90FCF786F88DF83C003B
:104AC000284601F06BF80446FCF710F888B94FF05F
:104AD000FF34204611B030BD41F6A003C2F20003FE
:104AE00019780A204A1C1A708DF80C10FCF782F80D
:104AF000B9E7FCF747F822460146284600F0BAFF1E
:104B0000E7E71920FCF786F8014604A8FFF77EFACC
:104B10008DF80940C1E70B20FCF774F88DF8070009
:104B200092E70133137000F043FD41F6A003C2F297
:104B30000003187070E7C04646F6E823C0F2200371
:104B400010B59A68904710BD46F6D433C0F22003E2
:104B500010B55A69904710BD46F6D433C0F2200311
:104B600010B59A69904710BD46F6D433C0F22003C1
:104B7000D86910B500B1804710BDC0462DE9F0419D
:104B8000074619208846FCF745F841F6C002C2F2F4
:104B900000021388054613B94FF0010313801188F2
:104BA0000A204B1C1380FCF725F841F6B000C2F236
:104BB0000000FBF7D1FD044630B93DE02046FBF78D
:104BC00037FE0446002837D0201D2946FFF714FA87
:104BD0000028F3D040F2A040C2F2000000F0C8FB71
:104BE0000646002864D040F29440C2F2000000F073
:104BF000BFFBB06000284ED000F0C4FD70600028FC
:104C00003CD00920B568FBF7FDFF002866D10323DF
:104C10002B720E202F60C5F80480FBF7F3FF0128EC
:104C200057D0206B3146FBF799FD206BFBF794FDC5
:104C300086426ED0BDE8F08140F2AC40C2F2000086
:104C400000F096FB044600285CD02946201DFFF7A3
:104C5000DDF9002304F12C00206384F8283084F867
:104C6000293084F82A30E362FBF772FD41F6B00088
:104C7000C2F200002146FBF771FDABE740F2944021
:104C8000C2F20000B16800F08FFB46F61840C0F297
:104C90002000FEF74FFC40F2A040C2F20000314677
:104CA00000F082FB46F61840C0F22000FEF742FCFE
:104CB000206BFBF7B1FDB0B146F64C40C0F22000CE
:104CC000FEF738FC3846414604220123FFF73CFE3C
:104CD000B0E7206B3146FBF769FDA6E70920FBF73B
:104CE00091FF287295E741F6B0002146C2F200001C
:104CF000FBF77CFD40F2AC402146C2F2000000F020
:104D000053FBD9E746F68040C0F22000FEF712FCC4
:104D1000D8E744F6295204F108000021C0F220022D
:104D2000234600F001FC85E770B50546F0B1006B45
:104D3000FBF712FD0646C8B1286B95F82840FBF733
:104D40006BFD034646F6B44021463246C0F22000D1
:104D5000FEF71EFC46F6D433C0F2200344F61D6075
:104D6000DC68C0F2200029463246A04770BDC0462C
:104D700070B505460C4600293BD0006BFBF736FDAD
:104D8000606800F0CDFC40F29440A168C2F20000DF
:104D900000F00AFB40F2A0402146C2F2000000F001
:104DA00003FB286BFBF738FD014646F6E040C0F2F6
:104DB0002000FEF7EDFB286BFBF7CEFCD0B146F6EA
:104DC000D4330022C0F2200385F8282085F829205A
:104DD00085F82A20DA69904744F62952002814BF42
:104DE00001461021C0F2200205F108002B4600F018
:104DF0009BFB70BD05F1080000F080FB41F6B000A0
:104E00002946C2F20000FBF7F1FC40F2AC40294613
:104E1000C2F2000000F0C8FAEBE7C0462DE9F04FFF
:104E20000F4683B0064600283CD0032908D8DFE8A7
:104E300001F0423C420290F82A30013380F82A30D7
:104E4000306BFBF789FC054628B92BE02846FBF7B9
:104E5000EFFC054630B30A21686800F027FC0446E1
:104E60000A20FBF7CFFE8442F0D1AC68D4B12368AE
:104E700001937B1E012BD4F804B096F8288029D921
:104E8000FFB946F6C850C0F220004146FEF780FB4D
:104E900030462946FFF76CFF019859463A4643468B
:104EA000FFF752FD03B0BDE8F08F90F829300133D1
:104EB00080F82930C4E790F82830013380F8283092
:104EC000BEE746F6DC5041463A46C0F22000FEF707
:104ED0005FFBDDE7012F51D0022F47D046F640504F
:104EE000C0F2200039464246FEF752FB46F6D43364
:104EF000C0F22003DA69904796F82890002814BF82
:104F000082464FF0100A00F053FB96F82820237ACF
:104F1000934221D909F10103032BA8BF032303FB0B
:104F20000AF3B0FBF3F403FB140446F65C5054445C
:104F300021462A46C0F22000FEF72AFB44F62952F9
:104F400006F108002146C0F22002334600F0ECFAD8
:104F5000686800F00FFCA5E746F68450394696F8DD
:104F60002930C0F22000FEF713FB91E746F62850E7
:104F70004146C0F22000FEF70BFBB7E746F60C50A7
:104F80004146C0F22000FEF703FBAFE740F2A0402D
:104F900010B5C2F2000000F03BFA40F29440C2F2B9
:104FA000000000F035FA40F2AC40C2F2000000F020
:104FB0002FFA10BD41F63E13C2F200031878421CCE
:104FC0001A70704770B5837B044613F0010F0D46CD
:104FD00018D08368B3B141F64013C2F200031860E1
:104FE0000220A073A36804F10C009847832D14BF1E
:104FF000002301230238012898BF43F0010313B9AD
:105000000123A37370BD2046214600F001F8F9E7A3
:105010002DE9F04741F64416C2F20006326841F627
:105020004017131E18BF0123C2F2000782420CBFB3
:10503000002303F0010305468846D7F8009053B1DA
:105040001268131E18BF012395420CBF002303F002
:105050000103002BF4D1002A30D0AB7BC3B1002375
:10506000AB7334684CB1A54204D0204687212A4650
:10507000FFF7A8FF2468002CF5D1AA68B5EB080358
:1050800018BF0123002A0CBF002303F00103BBB9A2
:10509000316841F644148D4208BF2B68C2F2000407
:1050A00008BF236008D011B906E0194623B10B6888
:1050B000AB42FAD12B680B60C7F80090BDE8F087CF
:1050C0003D60AB6805F10C00832100229847DFE7C3
:1050D00041F63E13C2F200036FF07501197041F6FC
:1050E0002C1241F63C137631C2F20002C2F20003E8
:1050F0001170197041F6441241F64013C2F20002D9
:10510000C2F20003116019607047C0462DE9F84FE4
:1051100041F64817C2F200073B78CBB141F6441381
:10512000C2F200031C6800223A708CB101261546B9
:1051300001E0246864B1E37B002BFAD0A673E57329
:10514000204682210022FFF73DFF2468002CF2D187
:1051500041F63C16C2F2000696F800A0BAF1000F24
:105160002FD041F62C14C2F20004217841F64C12E3
:1051700088000B011B1AC2F2000212F803C041F6AC
:105180003F19C2F20009D51889F800C06A6841F6D3
:105190003418C2F20008C8F80020A86841F630139D
:1051A000C2F200030131186001F01F010AF1FF3360
:1051B0002170337050B1BCF1810F42D06146FFF7CE
:1051C00001FF3B7830781818BDE8F88F41F6441B92
:1051D000C2F2000BDBF8003041F63815C2F20005D0
:1051E0002B60002BEDD041F6481AC2F2000A3B7842
:1051F000D3B1DBF800404FF000038AF8003014B957
:1052000012E0246884B1E37B002BFAD04FF0010355
:10521000A3734FF00003E373204682210022FFF7BF
:10522000D1FE2468002CEED1D8F80020286899F827
:105230000010FFF7C7FE2B681A682A60002AD6D133
:10524000BFE701238373B9E741F6481341F63C12E7
:10525000C2F20003C2F200021978107808187047F1
:10526000F0B441F63C14C2F2000494F800C00746C2
:10527000BCF1200F0D4616461DD041F62C13C2F28C
:1052800000031A7841F63D13624402F01F02C2F295
:1052900000031A7041F64C1193001201D21AC2F2A7
:1052A000000188180CF10103466087608D540020CE
:1052B0002370F0BC70470120FBE7C04670B541F693
:1052C0004014C2F200042568FFF77CFE256070BD23
:1052D00010B541F64414C2F2000422688C46131E35
:1052E00018BF012382420CBF002303F00103CBB19E
:1052F000114609680B1E18BF012388420CBF00230A
:1053000003F00103002BF4D181420AD00123026093
:10531000206083734FF00003838181216246FFF791
:10532000CDFF10BD1146EFE758B1837B013BDBB2E7
:10533000012B06D841F648130122C2F20003C273C2
:105340001A70704770B50546006880B12C1D0021A9
:10535000FFF7BEFF2B6846F62C60C0F220005968AC
:10536000FEF716F9254654F8040B0028EFD170BD5E
:1053700030B44488054654B14268137893B1002094
:1053800002E0135C11182BB10130A042F9DB0020C0
:1053900030BC70470A46012313702A88AB6802FBB1
:1053A0000030F5E71846F6E730B4054683684088D4
:1053B0000C4670B18B4219D02988002203EB010CF6
:1053C00004E08C44C1EB0C039C4205D001328242C4
:1053D000F7DBFF2030BC704711466A68505C00283C
:1053E000F8D0431E53546A68505CF3E70021F4E799
:1053F0008C468168614501D9002070470388428846
:1054000002FB03139C452CBF00200120F5E7C0469A
:1054100010B5044600216288406801F0E5F8638811
:105420002288A068002102FB03F201F0DDF810BD24
:1054300010B50446FCF7CAFE2368C3F101031B182C
:10544000606898422CBF0020012010BD10B541605B
:105450000446FCF7BBFE206010BDC0462DE9F041BC
:10546000038806461546CBB941F6CC20C2F20000AF
:10547000FBF772F9044630B1201DA168FBF7CEFAA4
:105480002468002CF8D141F6D023C2F20003012297
:105490001A704FF04A033380012005E04A2B05D0F3
:1054A0004FF0000303800320BDE8F081882922D15A
:1054B00041F6CC20C2F20000FBF74EF9044618B9C1
:1054C000E7E72468002CE4D0231D9D42F9D141F682
:1054D000CC20C2F200002146FBF788F941F64015C6
:1054E0006369C2F200052F682B60A3690BB1E06904
:1054F00098472F60CDE70120D6E7C04610B541F6AA
:10550000D023C2F200031B7804464BB9C360036189
:1055100041F6CC20C2F200002146FBF767F910BD2E
:105520000430FBF7BDF9F3E770B541F64016C2F25F
:10553000000605463068EB6141F6D0236861AA6138
:10554000C2F200031A780C467AB9A96041F6CC2061
:105550002946C2F20000FBF749F941F6CC20C2F21D
:1055600000002946FBF7FAF870BD346840F2B843F2
:10557000C2F20003281D3360FBF750FA3460E5E700
:1055800041F6D02310B5C2F20003002441F6CC202E
:105590001C70C2F20000FBF7DBF840F2B840C2F228
:1055A00000002146FFF794FE10BDC0467047C0467C
:1055B00047F20001C4F20D010B6847F2140243F0F8
:1055C00004030B6047F21803C4F20D02C4F20D038A
:1055D00010681A6840EA022080B2704747F2000162
:1055E000C4F20D010B6842F2A80223F00C030B6019
:1055F000C4F20D02012148F224631160C4F20803D1
:10560000073148F638021960C4F20802E323136038
:1056100048F26462C4F20802136813F0010FFBD071
:1056200048F29C600021C4F2080048F2030C0022FA
:105630000368013203F0010341EA03035B00102A0F
:1056400099B2F5D1614514BF00230123002908BF99
:1056500043F00103002BEAD147F214020B0AC4F213
:105660000D02136001F0FF0148F638031160C4F227
:105670000803EF221A60704746F6E013C0F22003D9
:1056800010B51A68904746F6D433C0F220035A6822
:10569000904746F6FC33C0F220035A68904746F61E
:1056A000E823C0F220035A68904710BD03684031D8
:1056B00049005B185888704770B5054640F2C840ED
:1056C000C2F200002946FFF793FE40B940F2D440F1
:1056D000C2F200002946FFF78BFE68B970BD2D6845
:1056E0002C4634F8821BA81CFBF7A0FB204605F1D2
:1056F000B201FBF7F9FAF1E7FBF7D6FA29886868F7
:10570000FBF794FB95F83800FBF7F0F9FBF73AFA52
:1057100005F1080195F8382000F01AFFDEE7C046D1
:1057200010B5044640F2C840C2F200002146FFF71F
:105730005FFE40B940F2D440C2F200002146FFF7BC
:1057400057FE78B910BD40F2E0402168C2F2000077
:10575000FFF72AFE40F2C8402146C2F20000FFF7E0
:1057600023FEEFE740F2D4402146C2F20000FFF7EB
:105770001BFEE7E710B5016801F18200B231FBF7CB
:10578000C7FA10BD70B5FBF709FAA8B140F2D440D2
:10579000C2F20000FFF7ECFD044658B1FBF714FA23
:1057A0002080FBF70BFA606004F10800FBF7F6FAC3
:1057B00084F83800204670BD40F2C840C2F20000B4
:1057C000FFF7D6FD04460028F4D040F2E040C2F2D4
:1057D0000000FFF7CDFD0546206058B10230FBF711
:1057E000A9FA2B4623F8820B184605F1B201FBF704
:1057F0008FFADFE70446DDE740F2E04010B5C2F281
:105800000000FFF705FE40F2C840C2F20000FFF7BB
:10581000FFFD40F2D440C2F20000FFF7F9FD10BDD9
:1058200010B5FCF7B7FBFCF7EFFB4CF200044FF4AC
:105830004070C4F20D04FCF753FC4FF44070FCF7C9
:1058400029FC20461021FCF781FB20462021FCF793
:105850007DFB44F2301220461021C4F20D02FCF709
:10586000FBF944F22C1220462021C4F20D02FCF771
:10587000F3F9204610210C22FCF79AF9202120464A
:105880000B22FCF795F9FCF785FB0021FCF740FCA7
:1058900010BDC0462DE9F041022982B00746884676
:1058A000164603DC002002B0BDE8F0810178FD1C43
:1058B000CB0801F0070203F001038DF800208DF8FA
:1058C00001300A094B09890902F0010203F00103C2
:1058D00001F001018DF802208DF803308DF80410DD
:1058E00040788308020903F00303800902F00302F1
:1058F0008DF805308DF806208DF807006B4693E88B
:10590000030086E803009DF80540BB7833722CB392
:105910006B78FA781B029B187D1D022C73814BD08B
:10592000032C3DD09DF807402CB39DF8043093B96B
:105930006B7815F8022B1B029B18B382022C49D0FE
:10594000032C22D0E81BC0EB0803804586F83830D2
:105950007563A8DAA6E77389B382EFE746F66C2190
:1059600006F10C00C0F22001FEF750FB74819DF897
:105970000740002CD9D146F66C2106F11600C0F282
:105980002001FEF743FBB482DCE731460722AB5C23
:10599000013A8B750131B2F1FF3FF8D10835D1E7FB
:1059A0003A463146A7F10800137B013A0B730131E7
:1059B0008242F9D10835B5E746F66C2106F10C00B4
:1059C000C0F22001FEF722FB6B78FD1D33737A795C
:1059D0007273A7E746F66C2106F11600C0F22001AB
:1059E000FEF714FB6B78B37515F8022BF275A9E777
:1059F00000230A4610B402F8013B01324B7002F852
:105A0000013B02F8013B13700C46417911F0030F82
:105A100001D002332370C37913F0030F01D00223A6
:105A2000A370417911F0030F03D0C37913F0030F72
:105A300016D10023037101F00303022B03D0032BC3
:105A40000CBF082300236370C37903F0030002280E
:105A500003D003280CBF08200020E07010BC704762
:105A6000828A43899A42E4D1012300220371A27001
:105A70004179E0E72DE9F04182B00D460DF10301D7
:105A800014460646FFF7B4FF9DF803E09DF8047046
:105A90009DF805800EEB070303339DF806C04344D1
:105AA0009DF8072063449B18A3425CDCB1787278B0
:105AB000337801F0010102F00102090141EAC2015B
:105AC00003F00703F2781943337902F0010241EA47
:105AD000421103F0010341EA83112970B37970790F
