:020000040020DA
:100000000050002091022000ED0220008D0220000F
:100010008D0220008D0220008D02200000000000D3
:100020000000000000000000000000008D02200021
:100030008D022000000000008D0220009524200089
:100040008D2B2000292B2000C52A2000612A2000AA
:10005000000000000D2720008D0220008D022000EE
:100060008D022000000000000000000000000000E1
:1000700000000000000000008D02200000000000D1
:1000800000000000000000008D0220008D02200012
:100090008D0220008D0220008D0220008D022000A4
:1000A0008D0220008D0220008D0220008D02200094
:1000B0008D0220008D0220008D0220008D02200084
:1000C0008D0220008D0220008D0220008D02200074
:1000D0008D02200000000000000000000000000071
:1000E0000000000000000000000000000000000010
:1000F00000000000000000007D3420008D3420004E
:1001000000000000000000000000000000000000EF
:1001100000000000000000000000000000000000DF
:1001200000000000000000000000000000000000CF
:1001300000000000000000000000000000000000BF
:1001400000000000000000000000000000000000AF
:10015000000000000000000000000000000000009F
:10016000000000000000000000000000000000008F
:10017000000000000000000000000000000000007F
:10018000000000000000000000000000000000006F
:10019000000000000000000000000000000000005F
:1001A000000000000000000000000000000000004F
:1001B000000000000000000000000000000000003F
:1001C000000000000000000000000000000000002F
:1001D000000000000000000000000000000000001F
:1001E000000000000000000000000000000000000F
:1001F00000000000000000000000000000000000FF
:1002000000000000000000000000000000000000EE
:1002100000000000000000000000000000000000DE
:1002200000000000000000000000000000000000CE
:1002300000000000000000000000000000000000BE
:1002400000000000000000000000000000000000AE
:10025000000000000000000000000000000000009E
:10026000000000000000000000000000000000008E
:100270008D022000CD2F2000492F20008D0220006C
:100280008D0220006D2520008D022000FEE7C04673
:1002900010B544F2DC4044F2000E42F2B403C2F264
:1002A000000EC2F20000FF22C4F20D0386451A6060
:1002B0000CD247F2D051FF3AC0F220018B584EF8D1
:1002C000023004320EEB02038342F7D3054806499D
:1002D0004FF000028842B8BF40F8042BFADB00F070
:1002E00075FFFEE7004800207873002010B5FFF787
:1002F000CFFFFEE770B5832982B006460C4615464F
:100300003DD03288E2B945F23403C2F200031A80CC
:1003100045F21C0046F67472C2F200008121C0F260
:10032000200200F0D9F845F20C00C2F20000802152
:1003300000F0E6FB4FF07D033380012002B070BD7A
:100340007D2A04D04FF0000333800320F6E7882C89
:1003500041D047F2A823C2F200031A78A24215D076
:1003600046F26C23C2F200031A78A2425AD045F238
:100370003404C2F20004238801332380D3E745F21A
:100380001C00C2F2000000F0A3F8BAE747F2241301
:10039000C0F220039D4251D047F24C13C0F220031B
:1003A0009D4243D047F25C13C0F220039D423DD0F2
:1003B00047F26C13C0F220039D424ED047F2341333
:1003C000C0F220039D42D2D145F2340402F010FB6A
:1003D000C2F20004CFE7202045F2340400F094FE7E
:1003E000C2F2000446F62C702188C0F2200003F00F
:1003F0007FFA45F20C008021C2F2000000F080FB81
:1004000002F096F8002300F58041009345F20000C9
:1004100040F299430122C0F22003C2F2000000F032
:1004200089FBA8E7802000F05BFEA0E7012045F2F1
:10043000340400F055FEC2F200049CE745F2340497
:10044000C2F200042046022100F06AFD45F21C00C1
:10045000C2F2000000F026F88DE702F0ADFA45F296
:100460003404E02000F050FEC2F2000402F046FA2C
:1004700081E7C04610B5A02000F032FE00F01EFC5F
:10048000044600F0EBFB028846F640702146C0F2BD
:10049000200003F02DFA10BD10B5202000F024FE3E
:1004A00010BDC04670B547F2BC24C2F20004054638
:1004B00046F6807021786278C0F2200003F018FAC6
:1004C0001820214600F02AFC284600F099F870BD5B
:1004D00010B500F0A9F810BD70B5154646F6E472E7
:1004E000C0F2200204460E4600F0A2F846F67C71E7
:1004F00065613046C0F2200100F0D6F870BDC046FC
:10050000F0B547F2BC23C2F2000315461A785B78B7
:1005100087B0074618200E460492059300F0F4FBBE
:100520000478182000F0F0FB437846F698700093AA
:10053000C0F2200023460499059A0196029503F023
:10054000D7F97B695B681BB1384631462A46984724
:1005500007B0F0BD30B5044685B0182000F0D4FBDC
:100560000DF10E050146284603F000FF9DF80F002F
:1005700047F2BC23C2F2000319785A78009046F67D
:10058000C4709DF80E30C0F2200003F0B1F9636929
:100590001B6813B120462946984705B030BDC046B8
:1005A00070B547F2BC230446C2F2000346F6F07071
:1005B0000D46164619785A78C0F22000A38803F039
:1005C00097F923695B681BB1204629463246984754
:1005D00070BDC04610B547F2BC230446C2F200030A
:1005E00047F2140019785A78C0F22000A38803F06B
:1005F0007FF923691B680BB12046984710BDC046A0
:1006000010B547F2BC230446C2F2000347F2400093
:1006100019785A78C0F22000A38803F069F92046BF
:1006200003F0E0FE10BDC04610B500F027F810BD85
:1006300070B504460E46154600F02AF846F6EC71F1
:1006400025613046C0F2200100F02EF870BDC04692
:1006500010B5044645F23800C2F2000000F0EEF892
:10066000024628B907E0104600F054F9024610B1DE
:100670009388A342F7D1104610BDC046014645F20B
:10068000380010B5C2F2000000F022F910BDC046DB
:10069000034610B5818045F23800C2F200001946C9
:1006A00000F0CEF810BDC04670B50D46FFF7D0FF84
:1006B000044620B18560284603F0CEFF207370BD4C
:1006C00045F2380010B5C2F2000000F0B3F810BDDA
:1006D00070B504880646672C13D0792C38D024B125
:1006E0004FF000030380032070BD04F081FF46F249
:1006F0006C2345F24812C2F20003C2F200021870E5
:10070000146045F2481445F2C805C2F20004C2F272
:10071000000545F2C000C2F2000000F045FAB0F159
:10072000FF3F10D00A281FD023687E2BF1DCE8544D
:10073000013345F2C0002360C2F2000000F034FA39
:10074000B0F1FF3FEED14FF0670333800230CBE7CB
:10075000852904BF45F24815C2F2000502D10023E5
:100760002B60CEE70120BFE745F24815C2F2000535
:10077000296845F2C802C2F20002002446F26C2346
:100780005454C2F20003013129602046197805F063
:1007900085F845F65C23C2F20003186885212246DD
:1007A00005F07CF80028DAD14FF07903338001306E
:1007B0009AE7C04645F2C00045F23C0110B5C2F2CE
:1007C0000000C2F20001802200F0D0F944F2104093
:1007D000C2F20000002105F099F810BD0D2810B5F7
:1007E00001461AD045F2BC04C2F2000423784BB192
:1007F0000A2814D044F21040C2F2000005F0B2F80A
:10080000012010BD45F2C000C2F2000000F0B6F9B0
:100810000028EFD101232370ECE70020F1E745F237
:10082000C000C2F2000000F0A9F90028E2D00023C5
:100830002370DFE7002303607047C04600687047FD
:1008400010B40446236808464BB199421A4602D1B7
:100850001BE090420ED011461268002AF9D1002305
:10086000036023687BB11A461B68002BFBD1106024
:1008700010BC704703680B60002313600023036003
:100880002368002BEFD12060F2E70B682360F3E7C9
:1008900010B403680446B3B19942184618BF1A460B
:1008A00003D112E0994207D01A461368002BF9D100
:1008B0000860216010BC70470B6808461360002375
:1008C00003602068F4E71846F2E70B682360F6E758
:1008D00003684BB18B421A4602D10BE0914204D01F
:1008E00010461268002AF9D170471368036000238C
:1008F0001360F9E71B680360F9E7C046006830B190
:100900000023006801330028FBD1184670470346D6
:10091000FBE7C04600B100687047C04645F24C1383
:10092000C2F200031868003818BF01207047C046A3
:1009300010B545F24C14C2F200042268DAB101F09D
:100940005BFD236819685A6852189968C0EB020E5B
:1009500049B14B680A6889689B181B1A9E4528BFD5
:100960009E460029F5D145F25013C2F200030EEB6A
:1009700000021A6010BD45F25013C2F200031A6063
:10098000F8E7C04610B545F24C11C2F200010A6802
:10099000044690420FD02AB19368A34206D01A466B
:1009A000002AF9D10023A360E36010BDA36893601F
:1009B000FFF7BEFFF6E783680B60FFF7B9FFF1E7CB
:1009C00044F2204010B5C2F2000004F0CBFF10BD8D
:1009D0002DE9F0410646008848B945F24C13C2F2B1
:1009E000000318604FF059033380012005E05928B7
:1009F00005D04FF0000333800320BDE8F081872944
:100A000024D08229EED145F24C17C2F200074FF0F4
:100A100000083C68002CE5D0002504E0A3682546CA
:100A2000002BDFD01C46204605F020F80028F5D02A
:100A3000E0688821224604F031FF002825D044F2E6
:100A40002040C2F2000004F08DFFE7E745F24C17AA
:100A5000C2F2000738680028C4D0C168914203D0B0
:100A60000DE0C3688B420ED180680028F9D1386050
:100A7000B8E7CB6893420ABF8B68084683608168F9
:100A80000029F6D1AEE73860F9E7E06035B1A36838
:100A9000AB60C4F80880FFF74BFFBAE7A3683B6080
:100AA000F7E7C04610B5044644F22040C2F2000009
:100AB00004F058FFE3689BB145F24C11C2F200010B
:100AC0000B6813B910E09B6873B19C42FBD145F6EB
:100AD0005C23C2F200031A68E260FFF729FF0EE010
:100AE00045F24C11C2F2000145F65C23C2F200034C
:100AF0001A68E2600B68A3600C60FFF719FF10BD75
:100B000010B5044604F0C0FF2046FFF7CBFF10BD30
:100B100010B545F25414C2F20004206848B1002315
:100B20002360426881689047206810B1006801F036
:100B300073FD10BD70B545F25412C2F200021C469E
:100B40001368049D2BB14460856001601060002033
:100B500070BD4460856001601060084601F05CFD76
:100B6000F5E7C04610B501F0DBFC10BD0023013AEB
:100B700001600271437183717047C04690F805C0EF
:100B800083790279C3EB0C0313409A4209D00368BE
:100B900003F80C104279037901321A4042710120A6
:100BA00070470020FCE7C0468279437990F804C082
:100BB0009B1A13EA0C0F08BF4FF0FF3006D00368F2
:100BC000995C013202EA0C02827108467047C04605
:100BD00010B4044645F25C10C2F2000090F800C068
:100BE000A44511DB45F25E12C2F20002CCF13003E3
:100BF0001188DBB25B189BB21B19802B04DCC4EBA1
:100C00000C030370012000E0002010BC7047C046B8
:100C100045F25C13C2F200031A788018187070470E
:100C2000014645F25E10C2F20000B0F800C08C45EB
:100C30000CDB45F21222C2F20002138889B2CB18F3
:100C4000C1EB0C0101801380012070470020FCE7FC
:100C500045F25E13C2F200031880704745F212237A
:100C6000C2F2000347F280021888C0F22002136823
:100C7000303018187047C04647F2800245F25C13C6
:100C8000C0F22002C2F200031978106840187047C1
:100C900047F28003C0F220031A6845F25813C2F2EB
:100CA000000318683032801A18BF01207047C04610
:100CB00045F25813C2F200031868704745F25E13FC
:100CC000C2F200031888704745F25C13C2F20003B9
:100CD000187845F25E13C2F200031A88C0F13000A2
:100CE000C0B2801880B2704746F27623C2F2000389
:100CF00023F810100120704746F27623C2F2000359
:100D000033F810007047C046A0F1180346F26E2079
:100D10005B00C2F20000C0187047C046A0F1180383
:100D200046F26E205B00C2F20000C01810B503F05E
:100D30001DFB012010BDC04610B546F276220023EF
:100D4000C2F200024FF00001D1520233302BF9D130
:100D500046F26E2047F2E031C2F20000C0F22001FC
:100D600003F004FB47F2E0310948C0F2200103F030
:100D7000FDFA47F2E0310748C0F2200103F0F6FA2D
:100D800047F2E0310448C0F2200103F0EFFA10BD51
:100D900070620020726200207462002045F212220C
:100DA0000021C2F2000245F25E1310B5C2F2000348
:100DB000118045F25C121980C2F2000230231370D8
:100DC00047F28003C0F220031A6845F25811C2F2BC
:100DD000000130320A60FFF7AFFF10BD034646F254
:100DE000762010B530220C46C2F20000194606F0FB
:100DF00009F846F26E2021460822C2F2000006F0F1
:100E000001F810BD10B50C4646F276213022C2F230
:100E1000000105F0F7FF46F26E212046C2F2000104
:100E2000082205F0EFFF10BD2DE9F04145F25C16F8
:100E3000C2F2000645F25E153478C2F200052B8836
:100E4000C4F13002D318802B074602DD0020BDE834
:100E5000F08147F28003C0F220031968091905F0F8
:100E6000D1FF45F2581245F21223C2F20003307846
:100E7000C2F200021C881168C0F130002A883818BC
:100E8000091905F0BFFF2B8832783033981ADEE756
:100E900010B547F2800345F25C14C2F20004C0F2C0
:100EA0002003227819688918C2F1300205F0AAFFE0
:100EB0002078C0F1300010BD70B547F28003C0F259
:100EC000200345F258121C68C2F20002116804F1B6
:100ED0003000814207D045F25E13C2F200031A8847
:100EE00005F090FF70BD45F21225C2F20005298879
:100EF0000029F7D045F25E13C2F200031A8802F10E
:100F0000300042B16118302291F830300131A354E1
:100F100001329042F8DC4FF000032B80E2E7C0463C
:100F200070B505460C46FFF739FF45F25813802C83
:100F300028BF8024C2F2000318682946224605F023
:100F400061FF45F25E13C2F200031C80204670BDB3
:100F50002DE9F04310F0400F04BF45F2142145F293
:100F6000152783B0804604BFC2F20001C2F2000719
:100F700014D045F2142145F21527C2F20001C2F245
:100F800000070B783A78534013F040092FD147F20D
:100F90003C36C2F20006F378002B6CD118F0200F1B
:100FA0000CD00B783A78534013F020092FD147F238
:100FB0003C36C2F200063379002B70D118F0010FD5
:100FC0000CD00B783A78534013F001082FD147F238
:100FD0003C36C2F200067379002B38D13B78087892
:100FE00083EA000000F0BAF803B0BDE8F083019195
:100FF00001F09EFA47F24833C2F2000347F23C3256
:10100000D860C2F200020123D3700199C6E70191B2
:1010100001F08EFA47F24833C2F2000347F23C3245
:101020001861C2F20002012313710199C6E7019110
:1010300001F07EFA47F24833C2F2000347F23C3235
:101040005861C2F20002012353710199C6E747F2C9
:101050000835C2F200056C69019101F069FA47F2A6
:101060004833C2F200035A6986F80580A41A24188E
:101070006C610199B2E747F20835C2F20005EC68ED
:10108000019101F055FA47F24833C2F20003DA68E1
:1010900086F80390A41A2418EC6001997EE747F2C1
:1010A0000835C2F200052C69019101F041FA47F2BE
:1010B0004833C2F200031A6986F80490A41A24186F
:1010C0002C6101997AE7C04610B545F21523C2F2AA
:1010D00000031A7880EA02011970FFF739FF10BD8A
:1010E00010B5FFF7F1FF10BD10B545F21422C2F2A2
:1010F000000201461078CB430340137001EA000060
:10110000FFF726FF10BDC04610B545F21423C2F20A
:1011100000030146187841EA0002C0431A7001EA50
:101120000000FFF715FF10BD10B500F00DF845F2F7
:10113000152345F214220021C2F20003C2F200027C
:101140001970117010BDC0464BF20042C4F20D027E
:10115000136843F0E00313607047C0464BF28033DE
:10116000C4F20D0318607047F0B5002483B0064642
:10117000254627463046FFF7C7FF0197019B9C4253
:1011800006DD00BF019B01330193019A9442F8DC14
:101190003046FFF7A9FF0197019BC4F5C87199423A
:1011A00006DD00BF019B01330193019A9142F8DCF7
:1011B0000135B5F5487F06D0B5F5C87FD4BF2C46BC
:1011C000C5F54874D6E703B0F0BDC04670B501F070
:1011D00099FB01F0F5FB01F0D1F802F08DF9FFF772
:1011E000C1FC01F033FC01F003FDFFF79DFF20205F
:1011F000FFF7BAFF04F08AFA01F066FB01F0F2FA99
:1012000040F2DD70C0F2200001F06CFAFFF7D2FA74
:101210004020FFF7A9FF47F28400C0F2200002F04F
:1012200039FB47F29000C0F2200002F033FB47F296
:10123000A400C0F2200002F05BFB47F2EC33C0F2E6
:101240002003186802F026FB47F2AC00C0F2200031
:1012500002F04EFB47F22043C0F22003186802F070
:1012600019FB47F2B400C0F2200002F041FB47F244
:101270004843C0F22003186802F00CFB002004F081
:101280000FFD02F00BF900F03FFC00F041FC00F014
:101290001DFB00F073FA411C47F2BC00C9B2C0F25A
:1012A000200002F025FB44F22040C2F200000021A1
:1012B00004F02CFB04F082FC47F2A623C2F20003E8
:1012C000012547F2BC2447F2DC0000221D80C2F257
:1012D00000042946C0F220006270257002F008FB6D
:1012E00047F2EC00C0F2200002F002FB47F20C10C3
:1012F0006178C0F2200002F0FBFA47F21410217866
:10130000C0F2200002F0F4FA04F018FD45F2494062
:1013100001F096FC04F068FC01F00AF947F248334A
:10132000C2F2000347F23C321860C2F2000246F6F5
:101330002470C0F22000157004F022FB01F0CCFAFA
:101340008020FFF711FF01F0CFFA04F0FDF910F053
:10135000FF0FF8D102F05AF9F5E7C0462DE9F04742
:1013600005888146772D01BF45F2182445F21628DD
:1013700045F21C26C2F2000404BFC2F20008C2F209
:1013800000063BD07E2D4CD07DBB04F031F944F2F9
:101390004046C2F2000647F2A82345F218243268FC
:1013A000C2F20003C2F200041870256092B12B460D
:1013B00047F2A925C2F200051F46EF54926880202B
:1013C000002190472368013356F823202360002A28
:1013D000F3D1DAB245F21623C2F200031A704FF0CD
:1013E0007703A9F80030012003E04FF000030380E9
:1013F0000320BDE8F0873368002BF0D00023336072
:101400002360276898F80030BB42F4DD47F2A92535
:10141000C2F20005EB57002B27DB23680133236062
:10142000EFE747F2A823C2F200031A788A4201BF0D
:1014300045F2182447F2A92545F2162845F21C2644
:1014400001BFC2F20004C2F20005C2F20008C2F2FB
:10145000000601D00120CCE723683168EA5C013145
:1014600002F07F02EA543160D7E747F2A82244F243
:101470004043C2F20002C2F200031178002053F888
:10148000272004F00BFA0028E6D14FF07E03A9F8DC
:1014900000300130ADE7C04610B545F21623C2F268
:1014A00000038646187800B344F24042C2F20002BC
:1014B00013689E4519D0002103E052F821309E4563
:1014C00002D001318142F8DB47F2A922C2F20002C8
:1014D000535C44F230406FEA43636FEA5363535402
:1014E000C2F2000004F03EFA10BD0021ECE7C04655
:1014F00030B440F484621368CD432B40136040F451
:101500008064236840F480622B40236042F0040230
:10151000136840F481642B401360236840F48062B8
:101520002B40236042F00C02136840F482600B43AE
:10153000136003680B43036030BC70474BF200003C
:1015400010B58021C4F20D00FFF7D2FF072104225D
:10155000022001F061FB022001F000FA41F241603B
:10156000C0F220000221072201F04AFA012010BD3A
:101570004BF2000010B54021C4F20D00FFF7B8FF98
:1015800006210422022001F047FB022001F0E6F9C7
:1015900041F24160C0F220000221062201F030FA3F
:1015A000012010BD4BF2000010B52021C4F20D0047
:1015B000FFF79EFF05210422022001F02DFB0220EF
:1015C00001F0CCF941F24160C0F220000221052275
:1015D00001F016FA012010BD4BF2000010B51021E9
:1015E000C4F20D00FFF784FF04210A46022001F037
:1015F00013FB022001F0B2F941F24160C0F2200079
:101600000221042201F0FCF9012010BD49F2000082
:1016100010B50821C4F20D00FFF76AFF0321042270
:10162000002001F0F9FA002001F098F941F2416040
:10163000C0F220000021032201F0E2F9012010BDD8
:1016400070B5044645F22020C2F200000D4604F0B9
:101650000DFA00B970BD45F22020C2F20000102141
:1016600004F012FA44B1022CF4D12B1F032BF1D851
:10167000DFE803F01E17100947F22410C0F2200023
:10168000FFF70AFFE6E747F26C10C0F22000FFF711
:1016900003FFDFE747F23410C0F22000FFF7FCFE43
:1016A000D8E747F25C10C0F22000FFF7F5FED1E763
:1016B00047F24C10C0F22000FFF7EEFECAE7C0462A
:1016C00010B50388044623B94FF06403238001203A
:1016D00010BD642B04D04FF0000303800320F7E714
:1016E00082290BD145F2282344F26842C2F200035A
:1016F000C2F20002196810788847E5E70120E7E7A1
:1017000070B54AF20005C4F20D0504460E4600F01D
:10171000EBF94021284600F06FF944F0100000F08A
:1017200029F9304600F026F92846402100F05EF9FC
:1017300000F0E2F970BDC04610B501200021FFF7AE
:10174000DFFF10BD70B54AF20005C4F20D05044676
:1017500000F0CAF94021284600F04EF944F090000C
:1017600000F008F900F018F940210446284600F07E
:101770003DF900F0C1F9204670BDC04610B5032008
:10178000FFF7E0FF0309DBB25A00DB00D21800F0DC
:101790000F001218D0B210BD10B50120FFF7D2FF14
:1017A00000F0D3010120FFF7ABFF10BD47F27C1022
:1017B00010B5C0F2200002F06DF84CF200000121DB
:1017C000C4F20D0000F0BCFC10F0010F044620D163
:1017D00010F0020F2AD110F0040F34D110F0080FCE
:1017E0000FD044F26843C2F20003032247F288108C
:1017F0001A70C0F2200002F04DF8FFF7CDFFFFF79E
:101800009BFF4CF20000C4F20D00E1B200F0A0FC1E
:1018100010BD44F26843C2F20003002244F2584073
:101820001A70C2F2000004F09DF8EAE744F268433F
:10183000C2F20003012244F258401A70C2F20000C2
:1018400004F090F8DDE744F26843C2F2000302229C
:1018500044F258401A70C2F2000004F083F8D0E756
:1018600070B50D4641F2AD71C0F22001064613205D
:10187000144600F04FFA00F0A3FC00F0DBFCEDB2E0
:101880004CF200002946C4F20D0000F08DFC224607
:101890004CF200004CF200042946C4F20D04C4F2DC
:1018A0000D0000F08BFB002E0CBF0422002220460E
:1018B000294600F0FDFB2046294600F03BFC00F0E5
:1018C00085FA132000F046FA70BDC04647F2941026
:1018D00010B5C0F2200001F0DDFF4AF20000402107
:1018E000C4F20D0000F08EF800F0FEF80E20FFF7B5
:1018F00029FF712834D000205821FFF701FF0E2066
:101900007121FFF7FDFE04201421FFF7F9FE0320EB
:101910002421FFF7F5FE02200121FFF7F1FE072049
:101920001121FFF7EDFE05202721FFF7E9FE062034
:101930000021FFF7E5FE11210820FFF7E1FE03205B
:10194000FFF700FF0309DBB25A00DB0000F00F01D4
:10195000D21847F2A010C0F22000511801F0C8FFC1
:10196000FFF71AFF00F0C8F8012008210422FFF752
:1019700077FF10BD014648F2000010B5C4F2000028
:1019800000F0A2F948F20000C4F2000000F0B8F93B
:101990000028F7D110BDC04610B582B002AC0023BC
:1019A00044F8043D48F200002146C4F2000000F073
:1019B0009DF901460028F5D1019048F20000C4F2DB
:1019C000000000F081F948F20000C4F2000000F0CD
:1019D00097F90028F7D148F20000C4F20000214630
:1019E00000F07AF99DF8040002B010BD10B5002295
:1019F00000F0B2FB10BDC04610B50A4600F0ACFBCB
:101A000010BDC04630B585B00D46044600F0D8FB89
:101A100000F010FC4FF4807000F078FC48F20000F9
:101A2000C4F2000000F04AF948F20000C4F20000DD
:101A3000012100F06BF94AF200000422C4F20D000B
:101A4000082100F0CBF92046294600F0A1FB2046F2
:101A50002946002200F080FB4AF20000C4F20D008B
:101A60001021032200F0BAF94AF2000044F21012E9
:101A7000C4F20D02C4F20D00202100F003FA4AF274
:101A800000003821C4F20D0000F06AFB00F0DEFB1C
:101A9000044600F095FB44F6D353C1F26203A3FB66
:101AA0000020800900220090082348F2000021460F
:101AB0000193C4F20000134600F0D0F848F2000091
:101AC000C4F2000000F0F4F804AC002344F8043D34
:101AD00048F20000C4F20000214600F007F9002897
:101AE000F6D105B030BDC04645F22C22C2F200024C
:101AF000137801331370704745F22C22C2F20002B2
:101B00001378013B1370704710B504F0EBF910BD6A
:101B10004AF2000010B50121C4F20D00FFF772FF78
:101B2000FFF7E2FF4AF200000121C4F20D00FFF7C7
:101B300063FF47F2D810C0F2200001F0D9FE4AF24C
:101B400000000121C4F20D00FFF750FF0620FFF74F
:101B500011FF4AF200000121C4F20D00FFF74CFF13
:101B60004AF200000121C4F20D00FFF73FFF0120FF
:101B7000FFF700FF0020FFF7FDFE8820FFF7FAFEC9
:101B80004AF200000121C4F20D00FFF735FF47F2D1
:101B9000F010C0F2200001F0ABFE4AF2000001217B
:101BA000C4F20D00FFF722FF3520FFF7E3FEFFF739
:101BB000F3FE014647F2FC10C0F2200001F098FE4F
:101BC0004AF200000121C4F20D00FFF715FF4AF2AE
:101BD00000000121C4F20D00FFF708FF0620FFF707
:101BE000C9FE4AF20000C4F20D000121FFF704FF14
:101BF0004AF200000121C4F20D00FFF7F7FE422077
:101C0000FFF7B8FE0020FFF7B5FE0020FFF7B2FE99
:101C10000020FFF7AFFE0020FFF7ACFE4AF2000005
:101C2000C4F20D000121FFF7E7FE4AF20000012196
:101C3000C4F20D00FFF7DAFE0520FFF79BFEFFF769
:101C4000ABFE04464AF20000C4F20D000121FFF78A
:101C5000D3FE002CE9D1FFF74FFF10BD022B10B4CB
:101C600014461CD0FBB94360019B0022B1FBF3F189
:101C70000232B1FBF2F303F1FF3CBCF1FF0FF7D8E6
:101C80000261A301029A03F0FF0304F030010B4349
:101C9000013A134343EA0C23036010BC7047063338
:101CA00043F00403DFE7002343F00403DBE7C0460F
:101CB000436843F0020343607047C046436823F023
:101CC000020343607047C04600F10C02136813F032
:101CD000020FFBD08160704700F10C02136813F013
:101CE000040FFBD083680B607047C046C368024690
:101CF00013F004001EBF93680B6001207047C046BC
:101D0000C068000900F001007047C046C0F8C81F55
:101D10007047C04630B44EF60852CEF200028446F8
:101D2000136844F20000C2F2000083420C460546EC
:101D30000CD011680022535883500432B2F5237F2F
:101D4000F9D14EF60853CEF200031D6040F82C4046
:101D500030BC7047042815D005281CD0062823D095
:101D60000F282AD00DD9A0F1100147F20023C0F2AC
:101D700020034A0953F8220001F01F0101238B4080
:101D8000036070474EF62452CEF20002136843F40B
:101D900080331360F5E74EF62452CEF2000213684A
:101DA00043F400331360ECE74EF62452CEF2000207
:101DB000136843F480231360E3E74EF21002CEF27F
:101DC0000002136843F002031360DAE710B500F075
:101DD000B1FA003818BF012010BDC0462DE9F00F40
:101DE00047F2542384B08A464FF0000C4AF20001B7
:101DF00047F2942B4BF2000847F2D4294CF200062C
:101E000047F2342749F20004C0F220030392C4F2DF
:101E10000D016246C0F2200BC4F20D08C0F2200989
:101E2000C4F20D06C0F22007C4F20D0401930DE0C8
:101E3000A04224D044F20003C4F20D03039D1D60B0
:101E40000CF1010C0432BCF1080F14D04AFA0CF367
:101E500013F0010FF4D0884208BF5BF80230EDD0D8
:101E6000E6D9404508BF59F80230E7D0B04208BF74
:101E7000BB58DFD1E2E704B0BDE8F00F7047019D29
:101E8000AB58DBE74AF20003C4F20D03984225D0B9
:101E90000ED94BF20003C4F20D03984226D04CF247
:101EA0000003C4F20D03984210D000211160704766
:101EB00049F20003C4F20D039842F6D1022923D05F
:101EC000042927D008292DD10539EFE7012919D098
:101ED00002291DD0042929D11631E7E701290FD0A5
:101EE000022913D0042925D10631DFE7012905D0C5
:101EF000022911D0042911D10E31D7E71021D5E7DD
:101F00000821D3E71821D1E70121CFE70731CDE739
:101F10001731CBE70239C9E70F31C7E708290DD1DF
:101F20001321C3E710292BD10C39BFE708292BD186
:101F30001B21BBE7082905D10B21B7E7102905D1E3
:101F40000431B3E710290ED10439AFE7202901D1BC
:101F50000B39ABE7402901D12A39A7E780290CBF0B
:101F600017210021A2E7202901D113399EE740293A
:101F700001D132399AE780290CBF0F21002195E762
:101F8000202905D11B3991E710290AD10C318DE7A1
:101F9000402901D13A3989E780290CBF0721002166
:101FA00084E7202901D1033980E7402901D1223972
:101FB0007CE780290CBF1F21002177E72DE9F00F76
:101FC00047F2742384B08A464FF0000C4AF20001B5
:101FD00047F2142B4BF2000847F2B4294CF20006EA
:101FE00047F2F42749F20004C0F220030392C4F23E
:101FF0000D016246C0F2200BC4F20D08C0F22009A8
:10200000C4F20D06C0F22007C4F20D0401930DE0E6
:10201000A04224D044F28003C4F20D03039D1D604E
:102020000CF1010C0432BCF1080F14D04AFA0CF385
:1020300013F0010FF4D0884208BF5BF80230EDD0F6
:10204000E6D9404508BF59F80230E7D0B04208BF92
:10205000BB58DFD1E2E704B0BDE8F00F7047019D47
:10206000AB58DBE712F0010F10B4944619D0D0F84A
:10207000003400F580640B431CF0020F23601EBF88
:10208000D0F8203400F5846443EA010006D1D0F88A
:102090002024CB4300F5846403EA0200206010BCD6
:1020A0007047D0F80024CB4300F580641340E3E789
:1020B00012F0010F10B494460C461DD0D0F808342D
:1020C00000F5816123431CF0020F0B601ED0D0F895
:1020D000043400F58061043123431CF0040F0B60CD
:1020E0001FD1D0F80C2400F58061E3430C3103EAE2
:1020F0000200086010BC7047D0F80824E343134086
:1021000000F581611CF0020F0B60E0D1D0F80424CF
:10211000E34300F58061043113401CF0040F0B60B1
:10212000DFD0D0F80C3400F580610C3143EA0400B4
:10213000DFE7C046D0F810340B43C0F810347047C6
:1021400011B9D0F814047047D0F81804FBE7C04662
:10215000C0F81C147047C04640F821207047C046A4
:1021600070B5022204460D46FFF77CFF2046294643
:102170000022FFF723FF70BD70B5022204460D4612
:10218000FFF770FF204629460022FFF717FF70BDBA
:1021900070B5012204460D46FFF764FF204629462C
:1021A0000022FFF70BFF70BD70B5002204460D46FC
:1021B000FFF758FF204629460022FFF7FFFE70BDBB
:1021C00042F20402C4F20D02136803F00703072B66
:1021D00005D8DFE803F0060B10151A1F242900208C
:1021E000704744F60000C0F2E810F9E742F2004000
:1021F000C0F2F400F4E741F20020C0F27A00EFE709
:1022000040F60010C0F23D00EAE748F28040C0F21C
:102210001E00E5E744F24020C0F20F00E0E74AF27A
:102220002010C0F20700DBE74DF29000C0F203007F
:10223000D6E7C04642F20002C4F20D02136823F44E
:10224000E06343EA002313607047C04642F2040291
:10225000C4F20D02136803F4E0631B0A072B05D8D0
:10226000DFE803F0060B10151A1F24290020704721
:1022700044F60000C0F2E810F9E742F20040C0F274
:10228000F400F4E741F20020C0F27A00EFE740F6F4
:102290000010C0F23D00EAE748F28040C0F21E00A4
:1022A000E5E744F24020C0F20F00E0E74AF22010D8
:1022B000C0F20700DBE74DF29000C0F20300D6E762
:1022C000030A47F21432C0F2200203F00F0310B4E5
:1022D00000F00F0052F82340012313FA00F02168A8
:1022E00083B00143013B21600193019A0F2A05D875
:1022F000019B01330193019A0F2AF9D92268C34344
:102300001340236003B010BC7047C046030A47F275
:10231000283203F00F03C0F2200210B400F00F00C7
:1023200052F823400123834021681943216010BCE7
:102330007047C046EFF3108062B6704710B440F2A9
:102340002002C4F20202136841F2002443F0100399
:10235000136048F28043C0F21E03C0F27A040029E1
:1023600008BF1C4601380019B0FBF4F040F20C0322
:102370000138C4F20203186010BC704710B445F273
:102380003423C2F2000300241C604EF214024EF605
:102390004703CEF20002C0F201034EF210001360B8
:1023A000CEF20000036842F2080143F00503036027
:1023B0000268C4F20D0142F0020202600B6840F2B2
:1023C0000C0243F001030B60C4F2030240F200036D
:1023D0001460C4F20303042140F204021960C4F241
:1023E0000302033940F238031160C4F203030F22E1
:1023F0001A6010BC7047C04645F23423C2F2000395
:102400001868704740F22803C4F2030340F20C023C
:102410001860C4F20302136843F0010313601368E9
:1024200013F0010FFBD1704710B44EF21002CEF240
:102430000002136845F2302423F001031360C2F256
:102440000004236845F2342203EBD0132360C2F268
:102450000002136844F26941C3181360C2F200011C
:102460000B781B1ADBB20B700A7812B10B78802B39
:1024700006D92368013323600A7882F080020A704B
:102480004EF21002CEF20002136843F00103136013
:1024900010BC70472DE9F04100F04AF847F23C3497
:1024A00045F234220123C2F20002C2F20004A370FA
:1024B000136847F24837C2F200070133B86013606F
:1024C000FEF72CFA002828D144F26940C2F200003D
:1024D0000378013BDBB2037002784AB945F230233E
:1024E000C2F200031A686FF07F0101321A600170B6
:1024F000A37847F23C36C2F2000663B147F20835D2
:10250000C2F20005AC6800F013F8BB68E41A2418A6
:102510000023AC60B370BDE8F081FEF751FAD3E759
:102520007047C04645F23823C2F20003186870476E
:1025300010B445F24003C4F20D031C6845F2440296
:1025400045F24803C4F20D02C4F20D031168186885
:1025500045F24C02C4F20D020004136840EA012067
:10256000204340EA036010BC7047C0462DE9F047A5
:1025700045F2400945F2440845F24807C4F20D0906
:10258000C4F20D08C4F20D07D9F80000D8F8001005
:102590003B6845F24C04C4F20D041B04226843EA74
:1025A0000123034347F2483643EA0263C2F20006BE
:1025B000B36045F23823C2F2000347F23C354FF0D6
:1025C000000A0122C3F800A0C2F200059120AA70FF
:1025D00000F0E0F9912000F0CFF901F0F3F8FEF7F8
:1025E00097FAAB78B3B1D9F80010D8F800203B685F
:1025F00047F208301B0443EA0223C2F200002468B9
:1026000082680B43B16843EA0463521AD2188260AD
:1026100085F802A0BDE8F08745F2500270B5C4F21B
:102620000D020646136813F0010FFBD000F0C4F949
:1026300045F24003C4F20D031D6845F2440245F221
:102640004803C4F20D02C4F20D031468196845F280
:102650004C02C4F20D020904106841EA0421294326
:1026600041EA0062B31A062BD8BFD61D45F24C03CF
:10267000310EC4F20D031960320C45F2480302F02A
:10268000FF02C4F20D031A60310A45F2440301F05F
:10269000FF01C4F20D03196045F2400306F0FF028A
:1026A000C4F20D031A6000F083F945F23823C2F238
:1026B00000031E60912000F051F970BD42F2280322
:1026C000C4F20D031A6812F0010F08D04CF218037F
:1026D000C4F200031A68D20902F001007047012019
:1026E000FCE7C04645F23C23C2F200031860704785
:1026F0004CF21802C4F20002136813F0200FFBD151
:102700004CF20003C4F20003186070472DE9F04159
:10271000FFF70EFF47F2483847F23C370122C2F27A
:102720000008C2F200074CF24003BA70C8F8080073
:10273000C4F2000319684CF2440289B211F050044B
:10274000C4F200024FF6BF731EBF4CF2180645F2EA
:102750003C254CF2000413601EBFC4F20006C2F216
:102760000005C4F200042AD111F4D06F17D04CF246
:102770003000C4F200004FF440724CF204030260D7
:10278000C4F20003FF214CF22C021960C4F20002D3
:10279000116814601160036843F00103036047F29D
:1027A0000835C2F20005AC68FFF7C2FED8F8083061
:1027B000E41A24180023AC60BB7011E0236833686E
:1027C00013F0100F09D12B68002BF7D02068C0B28E
:1027D0009847336813F0100FF5D0BB78002BDED18B
:1027E000BDE8F08142F2BD6010B5C0F2200000F0FB
:1027F00071FE42F22802C4F20D02136842F22C016B
:1028000043F001031360C4F20D010B6842F2300083
:1028100043F001030B60C4F20D0003684CF6C8726C
:1028200043F00103036044F200130024C4F20D03DB
:10283000C4F20002146020461C600121224600F010
:10284000F5F920460121082200F0E6F949F220417D
:10285000C4F20D010B684CF2380043F002030B6028
:102860000A68C4F2000042F001020A6050220260CD
:1028700003684CF2340243F4D0630360C4F20002F4
:1028800002234CF230001360C4F200004FF4407297
:102890004CF2240302600821C4F200034CF2280227
:1028A0001960C4F200022C234CF22C011360C4F214
:1028B000000170220A60036843F0010303600520F1
:1028C00000F04CF810BDC04645F20003C4F20D0301
:1028D00000221A607047C04645F20003C4F20D039F
:1028E00008221A607047C04645F20003C4F20D0387
:1028F000A02250211A6019607047C04610B500F040
:102900005BF8FEE745F24C234EF20011C2F20003E1
:10291000CEF20001196045F240224EF28011C2F25F
:102920000002CEF20001116045F244234EF2002174
:10293000C2F20003CEF20001196045F248224EF2C5
:102940008021C2F20002CEF200014EF6085311605F
:10295000CEF200034FF400121A60704745F24C2388
:10296000C2F2000341091A6800F01F0001238340EE
:1029700042F821307047C04645F24023C2F20003BE
:1029800041091A6800F01F000123834042F82130FA
:102990007047C04645F24823C2F2000341091A6855
:1029A00000F01F000123834042F821307047C046E9
:1029B000EFF3108062B67047EFF3108072B6704785
:1029C00042F2000240F20113C4F20D02C0F20213FF
:1029D00042F204011360C4F20D010A6840F20003E0
:1029E000C0F2011302EA0303B3F1807FF5D170470F
:1029F00042F27403C4F20D0308221A607047C04605
:102A000045F25023C900C2F20003521843F82200D5
:102A10007047C04645F25023C2F200034A012DE937
:102A2000F04105460F469E18002455FA04F313F0B2
:102A3000010FE1B204D056F824300BB13846984764
:102A40000134082CF1D1BDE8F081C04645F2502098
:102A500010B500218022C2F2000004F01FFA10BD60
:102A60002DE9F041FFF764FD47F24837C2F2000755
:102A700047F23C360123B860C2F20006B37000F0A2
:102A8000A1FE4CF21843C4F20D0318680321C0B232
:102A9000FFF7C0FF4CF21C43C4F20D03FF221A6083
:102AA000B17861B147F20835C2F20005AC68FFF7B2
:102AB0003FFDBB68E41A24180023AC60B370BDE886
:102AC000F081C0462DE9F041FFF732FD47F248376B
:102AD000C2F2000747F23C360123B860C2F200069A
:102AE000B37000F06FFE4BF21843C4F20D03186888
:102AF0000221C0B2FFF78EFF4BF21C43C4F20D035C
:102B0000FF221A60B17861B147F20835C2F20005C0
:102B1000AC68FFF70DFDBB68E41A24180023AC6015
:102B2000B370BDE8F081C0462DE9F041FFF700FD2C
:102B300047F24837C2F2000747F23C36B860C2F2AB
:102B400000060124B47000F03DFE4AF21843C4F2BE
:102B50000D0318682146C0B2FFF75CFF4AF21C4320
:102B6000C4F20D03FF221A60B17861B147F2083553
:102B7000C2F20005AC68FFF7DBFCBB68E41A24185E
:102B80000023AC60B370BDE8F081C0462DE9F04190
:102B9000FFF7CEFC47F24837C2F2000747F23C3657
:102BA0000123B860C2F20006B37000F00BFE49F2D8
:102BB0001843C4F20D0318680021C0B2FFF72AFFC2
:102BC00049F21C43C4F20D03FF221A60B17861B1CF
:102BD00047F20835C2F20005AC68FFF7A9FCBB68F4
:102BE000E41A24180023AC60B370BDE8F081C0463D
:102BF00045F2D42344F28001C2F20003C4F20D0175
:102C0000196045F2D02244F20003C2F20002C4F27D
:102C10000D0313607047C04645F2D423C000C2F2D2
:102C200000030918186840F82120704745F2D023A6
:102C3000C000C2F200030918186840F8212070474C
:102C400048F2C85300F0FF02C4F208031A6048F2C9
:102C5000CC53000AC4F2080347F2BC221860C2F247
:102C60000002517848F2D053C4F20803196010787A
:102C700048F2D453C4F208031860704748F24C631A
:102C8000C4F20803186800F02200202814BF0020B6
:102C90000120704748F24C63C4F20803186800F042
:102CA0004000704770B548F24C62C4F208021368E5
:102CB00013F0020FFBD148F63801ED23C4F20801EE
:102CC00048F22C620B60C4F208020B6013680BB16F
:102CD000EF230B6045F2D823C2F200031A7847F2C3
:102CE0003C3602F07F02C2F200061A70F37983B11B
:102CF00047F20835C2F20005EC69FFF719FC47F20C
:102D00004833C2F20003DA690023A41A2418EC61E4
:102D1000F371012070BDC04610B545F2D820C2F253
:102D2000000090F800E01EF0800F0DD148F6380248
:102D3000C4F20802ED23136013606FEA4E63E321CF
:102D40006FEA536311600370FFF7F2FB47F24833F9
:102D5000C2F2000347F23C32D861C2F20002012005
:102D6000D07110BD70B548F24863C4F208031A6808
:102D700012F03F0F1CBF45F2D824C2F200041DD050
:102D800048F26462C4F20802136813F0010FFBD02A
:102D900048F24C63C4F208031D68237845F2D82238
:102DA00013F0100FC2F2000204D023F010031370CE
:102DB000FFF778FF280900F0010070BD45F2D82424
:102DC000C2F20004237843F010032370FFF7A4FF3E
:102DD000D6E7C046A0F10B03DBB20F2B10B50446BB
:102DE00002D9FF2040B210BDFFF75CFFA20012190C
:102DF00048F23C632C3AC4F208031A60FFF78CFFD8
:102E00002046EFE770B548F24C63C4F208031A6835
:102E1000844612F040003BD048F62800C4F2080077
:102E20000368DBB213F0800F23D1042B39D9023BA6
:102E30008B422EDCDDB2032D3BD845B1002201468A
:102E40000B680CF802300132D3B29D42F8D848F634
:102E50002803C4F2080319681A68D4B214F0800F6A
:102E600043D147F2C022C2F20002536B01335363D5
:102E700006E047F2C022C2F20002136B0133136373
:102E800048F63801C4F20801ED230B6000200B6006
:102E900070BD47F2C022C2F20002936A013393620E
:102EA000EEE747F2C022C2F20002D36A0133D362D6
:102EB000E6E76C1E0CEB0401032000F095FA4CF2DF
:102EC00002012401C0F60141032044EA010100F09F
:102ED00095FA032000F09EFA032000F0B3FA0320D5
:102EE00000F0BCFA0028FAD1B1E7493949B2042010
:102EF00089B2FDF7F9FE032004F07F01FDF7F4FE2F
:102F000047F2C022C2F20002536C0133536448F20C
:102F10004C62C4F20802136813F0400F0AD0136821
:102F200013F0800F08D148F63803C4F20803ED22ED
:102F30001A601A602846ABE744F26C40C2F2000007
:102F400002F010FD2846A3E72DE9F041FFF7F0FA63
:102F500047F2483747F23C340123C2F20004C2F280
:102F6000000748F62C02C4F20802B860A370136888
:102F70004FF00008042B1EBF45F2D822C2F2000217
:102F8000137844F26C401CBF43F04003137048F6C2
:102F90002C03C4F20803C3F80080C2F2000002F060
:102FA000E1FCA37847F23C36C2F2000663B147F277
:102FB0000834C2F20004A568FFF7BAFABB68ED1A3C
:102FC0002D18A56086F80280BDE8F081F0B583B0C9
:102FD000FFF7AEFA47F24837C2F20007B86047F28F
:102FE0003C3644F26C400123C2F20006C2F20000FB
:102FF000B37002F0B7FC48F63403C4F208030021B2
:103000001960B2786AB147F20834C2F20004A568C8
:103010000191FFF78DFABB680199ED1A2D18A56093
:10302000B17003B0F0BDC0462DE9F04345F2D8279A
:10303000C2F2000797F9003083B0002B11DBFFF7D5
:1030400077FA0446FFF768FE3B784FF6F67543F0D3
:103050001003CFF6FF753B702D1BFFF769FAE842AE
:10306000FBD4FFF77FFE58B947F2C022C2F200023C
:10307000936B022601339363304603B0BDE8F083BF
:1030800048F24C63C4F208031A6812F02006EBD130
:1030900047F23C38C2F2000898F80730002B5FD1A5
:1030A00047F24839C2F20009FFF742FA012248F616
:1030B000380388F80620C4F20803E83248F24C646A
:1030C000C9F81800C4F208041A60236813F0020F4C
:1030D00011D10620FFF796F9236813F0020F0AD1E9
:1030E0000620FFF78FF9236813F0020F03D10620A3
:1030F000FFF788F9236848F24C62C4F208021368AB
:1031000013F0020F26D148F63803C4F20803EE226A
:103110001A6001261A6098F8063047F23C32C2F273
:103120000002002B35D1FFF703FA012388F807309E
:103130003B7845F2D82213F0100FC9F81C00C2F2F8
:10314000000220D147F2C022C2F20002136C013308
:10315000136491E7136813F00200FBD10646DAE727
:1031600047F20835C2F20005EC69FFF7E1F947F2D2
:103170004839C2F20009D9F81C30E41A2418EC616D
:1031800088F8076090E723F010031370FFF78AFDBB
:10319000D8E747F20835C2F20005AC690192FFF7A3
:1031A000C7F9D9F81830E41A2418AC61019A002341
:1031B0009371B8E748F24C6270B5C4F20802054654
:1031C0000C46136813F0020FFBD145F2D823C2F26C
:1031D000000393F90020002A01DBFFF79DFD48F66C
:1031E0003803EE22C4F208031A601A6048F6280376
:1031F000C4F20803A11C013C19600220291900F047
:10320000E9F84CF202012401CCF2010144EA010187
:10321000022000F0F3F8022000F0FCF8022000F099
:1032200011F9002070BDC04610B50C46FFF7C2FF73
:103230002046FFF7F9FE10BD2DE9F04145F2D826F2
:10324000C2F20006337813F0010702D00020BDE877
:10325000F08142F2A8020125C4F20D0242F2AC0351
:103260001560C4F20D0342F2B0021D60C4F20D02FB
:1032700048F258631560C4F20803F82148F2E87276
:103280001960C4F20802EF3948F2C8631160C4F251
:10329000080315221A600231042348F224621960DF
:1032A000C4F2080235311160136848F2006143F03E
:1032B00020031360C4F208010B6848F2086223F08F
:1032C00001030B60C4F2080248F250631760C4F2B5
:1032D00008037F2448F240621C60C4F20802D52330
:1032E000136019201268FFF775FD48F28C62C4F272
:1032F000080213688D2043F004031360FFF72EFBD0
:1033000048F29463C4F208031C608E20FFF726FB8A
:10331000022000F08BF848F62801C4F208010220D0
:1033200000F062F8032000F081F848F6280103203D
:10333000C4F2080100F04EF844F26C40C2F2000002
:10334000394602F0E3FA33782B433370FFF7F0F895
:1033500047F2483347F23C32C2F20003C2F20002A5
:10336000D861D571284672E710B50388044623B9A1
:103370004FF428732380012010BDB3F5287F04D0BB
:103380004FF0000303800320F6E7822920D1FDF7E8
:1033900005FDFDF763FC8021FFF734FD002808DD03
:1033A00080B2FDF755FC47F24843C0F220031A698A
:1033B000904745F2D822C2F20002137813F0400F72
:1033C000D6D000231370FFF76DFCFFF735FFCFE772
:1033D0000120D1E7032805D845F20043C2F20003DB
:1033E000020199507047C046032806D845F20043B1
:1033F000C2F2000302019B1859607047032807D8E6
:1034000045F200424300C2F20002013342F8331099
:103410007047C046032808D8012282404FF2280393
:10342000C4F20F0319680A431A607047032808D8CA
:10343000012282404FF22003C4F20F0319680A43AD
:103440001A607047032808D8012282404FF2140303
:10345000C4F20F0319680A431A60704703280AD898
:10346000420045F20043C2F20003013253F8321029
:1034700001F0070070470020FCE7C0464FF20453FC
:10348000C4F20F034FF0FF321A6070474FF24C0343
:10349000C4F20F0301221A607047C04610B545F20E
:1034A0000044C2F2000400214022204603F0F6FC52
:1034B0004FF204024FF20803C4F20F020121C4F2DA
:1034C0000F0311602E201C60FFF748FA2F20FFF732
:1034D00045FA10BD45F60802C2F2000213688342A5
:1034E00004D02BB15368834200D003B1704701333D
:1034F00042F82300FAE7C04642F258030020C4F223
:103500000D034EF610511860CEF200010B6845F61F
:10351000000243F004030B6047F2B0210223C2F221
:103520000001C2F2000213700B4643F8040B04338F
:10353000486018607047C0462DE9F04147F23C37BB
:10354000C2F200073B78002B4DD147F24836C2F259
:103550000006FEF7EDFF45F604030122C2F2000368
:10356000196870607A70022002F058FBFEF7E0FFE5
:1035700045F61003C2F20003186030BF47F2B025D1
:10358000C2F200052C68FEF7D3FF45F61003C2F225
:1035900000031A6847F23C36A41A24182C60022053
:1035A00002F044FB45F60403C2F200031860FEF784
:1035B000BFFFC2F2000647F248377278C2F2000736
:1035C00001233860337062B147F20835C2F200055A
:1035D0006C68FEF7ADFF7B68E41A241800236C606A
:1035E0007370BDE8F08147F20835C2F200052C681F
:1035F000FEF79EFF47F24836C2F200063368E41A2F
:10360000241800232C603B70A3E7C0462DE9F0414D
:1036100048F24863C4F208031A6812F03F0F11D150
:1036200045F60804C2F2000423682BB1984748B15C
:1036300063680BB1984728B145F60004C2F2000454
:1036400023781BB9FFF778FFBDE8F081FEF76AFF2A
:103650000546FEF76DFFD5F1010338BF0023281A98
:10366000092898BF43F00103002BEBD142F204027A
:10367000C4F20D02136813F4801FFBD142F2000262
:10368000C4F20D02136843F48033136042F2040263
:10369000C4F20D02136813F4803FFBD0FEF748FF1D
:1036A00045F61008C2F20008C8F80000FEF740FF17
:1036B000281A09284BD9632802D92678022E6FD000
:1036C00047F2B025C2F200056C68FEF731FFD8F86A
:1036D00000300122E41A42F258032418C4F20D0308
:1036E0006C601A6045F60403C2F2000347F23C37EF
:1036F00019680220C2F2000702F090FA3B78002B12
:103700003CD147F24836C2F20006FEF711FF012312
:1037100070607B70FEF70CFFC8F8000002F0B2F892
:1037200030B342F20002C4F20D02136823F4803376
:10373000136042F20402C4F20D02136813F48031E4
:10374000FBD142F25803C4F20D0319607CE742F248
:103750000002C4F20D02136823F48033136042F2B6
:103760000402C4F20D02136813F4803FFBD16BE72F
:10377000FEF7D8FE0028D4D030BF65E747F2083501
:10378000C2F200052C68FEF7D3FE47F24836C2F2BB
:1037900000063368E41A241800232C603B70B4E759
:1037A00047F2B025C2F20005AC68FEF7C1FED8F8BA
:1037B0000030E41A42F258032418C4F20D03AC603E
:1037C0001E608FE72DE9F04142F25802C4F20D026B
:1037D000136882B013F0030F02D102B0BDE8F0818C
:1037E000126847F2B02602F00302C2F2000656F851
:1037F00022400192FEF79CFE45F61005C2F200053C
:103800002B68019AE41A241846F82240FEF790FE2D
:103810002B68C01A000AFEF707FE42F20002C4F24B
:103820000D02136823F48033136042F20402C4F2E1
:103830000D02136813F48038FBD142F25803C4F22E
:103840000D03C3F80080022002F0F0F945F60403EE
:10385000C2F200031860FEF76BFE47F23C36C2F27C
:10386000000647F248377278C2F200070123386039
:103870003370002AB1D047F20834C2F20004656800
:10388000FEF756FE7B68ED1A2D18656086F80180FC
:10389000A3E7C04670B50546007870B1002401E08A
:1038A000285D28B10134FEF723FF2B19002BF7D137
:1038B0000A20FEF71DFF204670BD0446F8E7C0460B
:1038C00070B50E46054680B1007870B169B100242C
:1038D00003E0285D38B1A64205D90134FEF708FFA0
:1038E0002B19002BF5D1204670BD0024FBE7C04604
:1038F0000FB400B583B004AA52F8041B44F27C4014
:10390000C2F20000019200F031F803B05DF804EB60
:1039100004B07047084610B511460AB1FFF7D0FF52
:10392000002010BD102970B505460C4603D80FE0E5
:10393000103C102C0CD947F27C312B686868C0F21F
:1039400020011022984703460028F1D0184670BD88
:103950000CB92346FAE747F27C312B686868C0F25D
:103960002001224698470346F0E7C0462DE9F04F74
:1039700091B002900FAB914600200DF13F020990EB
:10398000019200930B78002B00F01181252B00F0A1
:103990004F834B784A1C14462BB1252B03D014F8C7
:1039A000013F002BF9D1A14210D00298651A03689B
:1039B0002A4640689847002840F0D2820999491960
:1039C00009912378002B00F05E84621C1178002995
:1039D00000F0ED8010460026A1F120038046102B58
:1039E0000AD8DFE803F0C40909BF09090909090970
:1039F00009BA09B50909B000A1F13103DBB2082BFE
:103A000000F22E812F2940F22D81392900F22A81DE
:103A1000002702E0392900F284817B00FA009B181C
:103A20005B1818F8011FA3F130072F29F2D84C4674
:103A30002E2900F01D814FF0FF32A14604926C291F
:103A400000F03881682900F07081782900F29680B2
:103A5000DFE811F0AD00940094009400940094000D
:103A600094009400940094009400940094009400B6
:103A700094009400940094009400940094009400A6
:103A80009400940094009400940094009400940096
:103A90009400940094009400940094009400DA023E
:103AA0009400940094009400940094009400940076
:103AB0009400940094009400940094009400940066
:103AC0009400940094009400940094009400940056
:103AD000940094009400D702940094009400D402BF
:103AE000D102CE02940094009400940094009400BB
:103AF0009400940094009400940094009400940026
:103B000094009400CB0294009400940094009400DC
:103B1000940094009400C8029400C502C202BF023F
:103B2000BC02B9029400C202940094009400940074
:103B30009200E602E30294009400E0029400DD02A9
:103B400094009400E90246F0100610F8011F43E7C4
:103B500046F0010610F8011F3EE746F0060610F891
:103B6000011F39E746F0080610F8011F34E746F058
:103B7000020610F8011F2FE746F4E06606F4E06342
:103B8000B3F5806F00F0048100F29F80B3F5807F71
:103B900000F03F81B3F5407F0DD0CDF8209008F1C3
:103BA00001010B78DDF82090002B7FF4EFAE09982F
:103BB00011B0BDE8F08F09F10403089347F2A43275
:103BC00047F29033D9F800100020C0F22002C0F272
:103BD000200316F4804F14BF15461D46002900F03F
:103BE00057830FAC01F00F03EA5C0B0943EA007145
:103BF000000904F8012D51EA0002F3D12146009B8F
:103C00001A1B00F0DA81D41C782301F8013C4A1E0B
:103C1000483B511E02F8013C0D3BBC4201F1FF390B
:103C200001F8013CC0F00282002516F0010706D120
:103C300002982946FFF776FE002840F0918102980D
:103C400049460368224640689847002840F088812A
:103C5000002F40F0EF81099963185D1909959EE7DF
:103C60002A296DD0017800272E294C467FF4E3AE37
:103C700018F8010FA0F13003DBB2092B01466DD813
:103C80002F2840F20283392800F2FF82002201E04F
:103C9000392809D85300D2009B181B1818F8010FB7
:103CA000A3F130022F28F3D8049201466C29A146D3
:103CB0007FF4C8AE18F8011F6C2906BF46F08006D5
:103CC00018F8011F46F06006BFE6B3F5C06F4FD08D
:103CD000B3F5E06F00F09580B3F5A06F7FF45DAFB2
:103CE00009F104020892D9F80030012F8DF83F3015
:103CF00040F2B7817C1E16F0010700F05481029853
:103D00000DF13F010368012240689847002840F008
:103D10002781002F40F0A7810999631CC9180991D8
:103D20003DE74FF0FF33049389E618F8011F682937
:103D300006BF46F0200618F8011F46F0400684E64C
:103D4000D9F8002009F10404002ABABF46F00106A0
:103D50001746174600F10108417869E62A287FF4E2
:103D60006AAE04F104092468049418F8011F66E699
:103D7000029847F28C310368C0F2200140680122AA
:103D80009847002840F0EC8009990131099104E737
:103D900009F104030893D9F80040002C00F0688270
:103DA0002378002B00F0C182224612F8013F002B3D
:103DB000FBD1049B121B9A4294BF0021012104985D
:103DC000C34311EAD373054608BF1546BD422CBF55
:103DD0004FF00009C5EB070916F0010700F0D98084
:103DE00002992A460B68486821469847002840F007
:103DF000B780002F40F02B81099AAB184B440993F0
:103E0000CDE609F104020892D9F80030099818604B
:103E1000C5E6049A002AA8BF26F01006C0F2148155
:103E200016F40050039000F09E8006F0E003402B53
:103E300000F04A8200F22181002B40F02C8209F12F
:103E400004030893D9F800301A464FEAE273002BB6
:103E5000C0F20782DDF8209092469B460023CDF801
:103E60002090079306F4C053B3F5805F00F0BD8146
:103E7000B3F5C05F00F08F81B3F5006F00F066818D
:103E800000230DF13F0905930599049A9142C0F072
:103E90000D8141F608020023C0F20002069306EAF3
:103EA000020241F208039A4200F00F810599069B35
:103EB000581841F608039A4214BF002201225AEA18
:103EC0000B014FF0000318BF012312EA030104BFE6
:103ED0000C4625460DD047F2BC3247F2B83316F4F3
:103EE000804FC0F22002C0F2200314BF14461C46CB
:103EF0000225039A42B1079B002B00F0188147F27C
:103F0000C034C0F2200401252918B9422CBF4FF05B
:103F1000000AC1EB070A16F0010707D116F0100FCF
:103F200000F08081069850440690BA46002D40F07B
:103F3000E980069A102A98BF144640F2CD80069C6C
:103F400003E0103C102C40F2C780029847F2D031B9
:103F50000368C0F220014068102298470028F0D082
:103F60004FF0FF3024E606F0E003402B00F0D28152
:103F700040F28E80602B00F0C281802B00F0B38174
:103F80000020CDF820904FF0000A4FF0000B079072
:103F900068E702984946FFF7C5FC00283FF420AFC8
:103FA0004FF0FF3004E602982146FFF7BBFC0028E3
:103FB000D6D1099B1B190993A1E63023611E04F891
:103FC000013C042420E646F48136D7E546F4007629
:103FD000D4E546F40246D1E546F42456CEE546F44F
:103FE000A066CBE546F4C136C8E546F4B246C5E561
:103FF00046F4A136C2E546F48446BFE546F442469F
:10400000BCE546F4E136B9E546F4C066B6E546F4EB
:104010001066B3E546F48066B0E546F44076ADE55B
:1040200046F48856AAE546F4C856A7E53D1BFCE5CC
:104030004A1CCBE402982946FFF774FC00283FF4A1
:104040000AAE4FF0FF30B3E501230493E8E602988F
:104050004946FFF767FC00283FF4CEAE4FF0FF3033
:10406000A6E5002447E602982146FFF75BFC0028FE
:104070003FF452AE4FF0FF309AE5602B00F06281C2
:10408000802B00F055814FF0000A4FF0000BE5E661
:10409000002B40F00C8109F104010891D9F800309F
:1040A000039A9A464FF0000B0792DBE641F60802AE
:1040B00004980599C0F2000206EA020241F20803E0
:1040C000401A9A4206907FF4F1AE0698002840F01C
:1040D000C28001210691E9E6002C40F0AD80029AF1
:1040E000494613685068059A984700287FF438AF0E
:1040F000A7B909990598069A43185B199B18534468
:1041000009934CE502992A460B684868214698476E
:1041100000283FF40EAF4FF0FF3049E502985146BA
:10412000FFF700FC0028E4D04FF0FF3040E506F038
:104130000602022A00F0D18047F2C433062AC0F2F8
:10414000200308BF1C4608BF0125DDE65AEA0B0123
:1041500004BF0DF13F020DF13F0918D00DF13F09E9
:1041600054465D46204629460A22002302F088F97B
:10417000303209F8012D204629460A22002302F098
:104180007FF950EA010204460D46EBD14A46019BF5
:104190009A1A059278E647F2A43247F29033C0F2B9
:1041A000200216F4804FC0F2200314BF15461D46AE
:1041B0005AEA0B0204BF0DF13F040DF13F0910D084
:1041C0000DF13F045146584601F00F03EA5C0B091C
:1041D00043EA0071000951EA000304F8012DF3D10C
:1041E000A1460198041B05944EE65AEA0B0004BF51
:1041F0000DF13F000DF13F0910D00DF13F00524687
:10420000594602F00703D208303342EA4172C90826
:1042100000F8013D52EA0103F3D181460199081AE1
:10422000059031E602985146FFF77CFB00283FF4E9
:104230007DAE4FF0FF30BBE4029922460B68486820
:1042400047F2D031C0F22001984700283FF447AF31
:104250004FF0FF30ACE40699059A002488182546F3
:1042600047E6D2F1000A63EB430B01220792F9E51E
:10427000049847F2C83405288CBF0021012106228A
:10428000C0F220049BE5084692E4002104910CE56D
:104290000FAC0FA9B3E4202B7FF4F5AE09F10401B4
:1042A000089199F900301A464FEAE273CFE5202BC6
:1042B0007FF466AE09F10401039A089199F800A011
:1042C0004FF0000B0792CDE509F104020892B9F90D
:1042D00000301A464FEAE273B9E547F20814C0F21B
:1042E0002004012510E609F1070323F0070303F179
:1042F0000801039A0891D3E900AB0792B2E509F1EE
:1043000004030893D9F8003003989A464FF0000B45
:104310000790A7E509F104030893B9F80030039862
:104320009A464FF0000B07909CE51A46194646E561
:1043300009F1070323F0070303F108010891D3E90A
:10434000002384E509F104000890D9F800301A46EA
:104350004FEAE2737BE5C04610B5022202F022FD6F
:10436000D0F1010038BF002010BDC04610B50222B8
:1043700002F048FD10BDC04670B547F2C022C2F23F
:10438000000253680133536000F080F9054645F69A
:104390001400C2F20000FCF751FA044640B1636811
:1043A00003B198472046FCF7B5FA04460028F6D139
:1043B00015B12846FCF70EF970BDC04610B501F0E6
:1043C0007DFDFCF7EBFC00F075F800F06FF90220C2
:1043D0004FF400714FF4F0524FF4E12300F074F801
:1043E00010BDC04610B547F2C022C2F200021368E9
:1043F00004460133136000F037F900B910BDFCF733
:104400005BFD47F22043C0F2200344F21D40C0F29E
:1044100020009A68214690470120EFE72DE9F041FE
:10442000064645F61400C2F200000D461746FCF79A
:1044300005FA044648B1A3680BB1284698472046C0
:10444000FCF768FA04460028F5D1304629463A467A
:10445000FCF7A6F8BDE8F08145F61C03C2F20003A4
:104460001860704745F6180010B5C2F20000FCF75E
:10447000E5F910BD2DE9F041064645F61800C2F2F7
:10448000000017460C46FCF7D9F9024628B90EE0A1
:104490001046FCF73FFA024648B19388A342F7D191
:1044A000956825B11046314622463B46A847BDE8EF
:1044B000F081C04645F6180010B5C2F20000FCF7C6
:1044C000B9F910BD7047C0462DE9704A45F6200481
:1044D000C2F200040546914647F2F8320E462046E5
:1044E0002946C0F220029B46FBF7F6FF44F2A95092
:1044F000C0F22000A665C4F85C90C4F860B0FFF775
:10450000ABFFBDE8708AC046F0B583B00F46FCF73C
:10451000A5FB0546022229460DF1060002F072FCB9
:10452000BDF80640FCF7CAFBA4000234844218D848
:10453000BDF80630ABB1023500240DF10206294664
:104540000422304602F05EFC3846BDF80210BDF889
:104550000420FFF78FFFBDF8063001340435A34275
:10456000EDDC03B0F0BDC04610B545F62004C2F244
:10457000000444F2C952616E002304F13800C0F215
:10458000200201F0EFFA01F075FB616E44F2E9528E
:10459000B0FBF1F303FB1101C0F2200204F118009B
:1045A000002301F0DFFA10BD10B59DF80830012B93
:1045B00000D010BD45F62003C2F200039A6D5A6682
:1045C000FFF7D2FFF5E7C04610B545F62003C2F26B
:1045D00000035A6E196E52008A4294BF5A66596699
:1045E000FFF7C2FF10BDC04610B5FCF7D7FBFCF7C4
:1045F00035FB4FF0000202800446FFF733FF01460F
:1046000090B914E023888A889B00E3185A80228896
:10461000CB889200A2189380238808460133238018
:10462000FCF778F9014610B10B7B002BEAD1238807
:104630004FF6FE709B000233C0F2000003EA000058
:10464000FCF706FB23882BB145F62000C2F20000E0
:10465000FBF728FF10BDC04647F20043C0F220031D
:1046600010B59A68904710BD47F20043C0F220038E
:1046700070B55A6805469047A98804460120FCF7A2
:1046800033FB201E18BF012070BDC04647F2004317
:10469000C0F2200310B51A689047044618B10120F3
:1046A000A188FCF721FB204610BDC04610B5FCF7E1
:1046B00007F810BD072BF0B40746154608461C4600
:1046C00040DDC2B94FEAE30C835CBB540132624562
:1046D000FADB14F007040CD047F20C43C0F22003BD
:1046E00010F80C101A5DC4F108031140194107F8C5
:1046F0000C10F0BC7047DE104FF0000C00EB0C0209
:1047000010F80C10537843EA0123AB401B1207F852
:104710000C300CF1010CB445F0DB14F00704E8D0C8
:104720008319825D597847F20C4341EA0221A9407E
:10473000C0F220031A5DC4F1080302EA21221A41E3
:10474000BA55D6E70B78497841EA0321914047F200
:104750000C43C0F220031A5DC4F1080302EA2122CF
:104760001A413A70C5E7C046037843B10021437847
:1047700010F8022FC918002AF9D1084670471946C7
:10478000FBE7C046072B2DE9F00304468946154692
:104790001E4650DD09BB4FEAE30C6B5C63540131EC
:1047A0006145FADB16F0070114D015F80C20C1F1B1
:1047B00008031A41C1F11003D2B29A4014F80C3028
:1047C00092B243EA122304EB0C0004F80C30417857
:1047D0000A434270BDE8F0037047DF10C1F10808DA
:1047E00000204FF0010C2B5C225C03FA08F39BB213
:1047F00042EA1322225414F80C1001300B43B84241
:1048000004F80C300CF1010CEDDB16F00701E1D0DF
:10481000EA5D09F108035B1A1A41C1F11003D2B233
:104820009A40E35D92B243EA1223E019E3554178DE
:104830000A434270CEE71278C1F110039B1B9A40E5
:104840004178037892B243EA12230A43037042701C
:10485000C0E7C0462DE9F043027B044612F007038F
:1048600018BF012303EBD20583B0A81CFCF7B0F9F5
:1048700010B903B0BDE8F083FCF7FEF9A28802701E
:10488000A3881B0A4370FCF7F7F900F102084046C1
:1048900000212A4602F002FBA368187830B31C46B8
:1048A00000250DF106090DE0FCF72EFA05F00701D1
:1048B0000246334608EB0700FFF764FF14F8020FC7
:1048C000A0B1AD19EF1017286678EDD8FCF714FAEF
:1048D00005F00701ADF806004A4608EB070033462D
:1048E000FFF750FF14F8020F0028EAD10120C0E7BB
:1048F0002DE9F04782B0FCF7B1F904460220FCF73D
:104900008FF920B90024204602B0BDE8F087607816
:1049100023780002C01880B2FBF79AFE04460028F4
:10492000F1D0FCF79BF9237B804613F0070018BFFA
:10493000012000EBD300FCF773F90028E2D0A26855
:104940001378002BDFD0154600260DF1040A0DF177
:10495000060910E008EB0201484606F007023B4654
:10496000FFF7A8FE28784946FCF7D8F915F8023F6A
:10497000002BC8D0F619F210172B6F78EAD84FF039
:10498000000308EB0201ADF80430504606F00702C0
:104990003B46FFF78FFE2878BDF80410FCF7A4F91A
:1049A000E4E7C04647F2EC33C0F2200310B59A6842
:1049B000904710BD47F24843C0F2200310B55A6932
:1049C000904710BD47F24843C0F2200310B59A69E2
:1049D000904710BD47F24843C0F22003D86910B594
:1049E00000B1804710BDC04670B5054678B1006B78
:1049F000FBF724FF024650B147F24843C0F22003C0
:104A000044F61D40DC68C0F220002946A04770BD76
:104A10002DE9F041074619208846FCF775F945F65F
:104A20006012C2F200021388054613B94FF0010369
:104A3000138011880A204B1C1380FCF755F945F6AA
:104A4000FC00C2F20000FBF7F9FE044630B93DE07D
:104A50002046FBF75FFF0446002837D0201D29467B
:104A6000FFF77AFC0028F3D044F29C40C2F2000029
:104A700000F09CFF0646002858D044F28440C2F261
:104A8000000000F093FFB060002848D001F0DCF98E
:104A9000706000283CD00920B568FCF72DF900288B
:104AA00062D103232B720E202F60C5F80480FCF71F
:104AB00023F9012853D0206B3146FBF7C1FE206B50
:104AC000FBF7BCFE864254D0BDE8F08144F2904032
:104AD000C2F2000000F06AFF0446002838D02946E0
:104AE000201DFFF743FC002304F12C00206384F811
:104AF000283084F8293084F82A30E362FBF79AFEE4
:104B000045F6FC00C2F200002146FBF799FEABE738
:104B100044F28440C2F20000B16800F063FF44F246
:104B20009C40C2F20000314600F05CFF206BFBF7B6
:104B3000E5FE68B945F6FC00C2F200002146FBF72D
:104B4000C7FE44F29040C2F20000214600F04AFF46
:104B5000384641460422012301F0FEF9B4E7206BF8
:104B60003146FBF795FEAAE70920FCF7C5F8287245
:104B700099E744F6E91204F108000021C0F220028E
:104B8000234600F0EFFF9FE770B505460C4689B35A
:104B9000006BFBF79DFE606801F024F944F284404D
:104BA000A168C2F2000000F01DFF44F29C40C2F276
:104BB0000000214600F016FF286BFBF73FFED0B146
:104BC00047F248430022C0F2200385F8282085F8E8
:104BD000292085F82A20DA69904744F6E91200284E
:104BE00014BF01461021C0F2200205F108002B4637
:104BF00000F0B8FF70BD05F1080000F09DFF45F61C
:104C0000FC002946C2F20000FBF762FE44F290402D
:104C10002946C2F2000000F0E5FEEBE72DE9F04F77
:104C20000F4683B00646002834D0032908D8DFE8B1
:104C300001F03A343A0290F82A30013380F82A30F1
:104C4000306BFBF7FBFD054628B923E02846FBF750
:104C500061FE0546F0B10A21686801F089F8044652
:104C60000A20FCF749F88442F0D1AC6894B17B1E6D
:104C7000012BD4F80080D4F8049096F828A018D915
:104C800030462946FFF780FF404649463A4653469C
:104C900001F062F903B0BDE8F08F90F829300133DC
:104CA00080F82930CCE790F82830013380F828309C
:104CB000C6E747F24843C0F22003DA69904700286C
:104CC00008BF1020019096F828B000F0D3FF96F8A6
:104CD0002820237A9A42D3D2019A0BF10103032BA5
:104CE000A8BF032303FB02F3B0FBF3F103FB1101A5
:104CF000891844F6E91206F10800C0F22002334692
:104D000000F030FF686801F097F8C3E744F29C4078
:104D100010B5C2F2000000F099FE44F28440C2F2E5
:104D2000000000F093FE44F29040C2F2000000F058
:104D30008DFE10BD10B545F64223C2F200031A786D
:104D40002AB145F6D712C2F20002137803B110BDA2
:104D50000133137047F24032C0F22002136A9847C1
:104D6000F5E7C04610B545F64223C2F200031A78B3
:104D70005AB145F6D711C2F200010B782BB145F6B6
:104D8000D413C2F200031A7802B110BD47F24033C7
:104D9000C0F220030A705A6A9047F6E710B5FFF791
:104DA000E1FF45F6D013C2F2000300221A6010BDE5
:104DB00045F64223C2F20003002210B51A7045F6F0
:104DC000D413C1B2C2F20003197058B945F6D71313
:104DD00047F24032C2F20003C0F220021870536A58
:104DE000984710BD45F6D71247F24033C2F2000291
:104DF0000121C0F2200311701A6A9047F1E7C04602
:104E00001020704730B545F64222C2F200021378F6
:104E100083B01D46B3B945F6D413C2F20003012492
:104E200014701D70FDF784FB44F6916300F580510A
:104E300045F6DC10C2F200002246C0F220030095C5
:104E4000FBF778FE012003B030BDC04630B545F613
:104E50004223C2F200031A7883B005460C460AB911
:104E600003B030BDFDF764FBC043E0420BD4002328
:104E7000009344F69163284621460122C0F22003A4
:104E8000FBF758FEECE7FDF753FB441CEFE7C04689
:104E90002DE9F04345F64025C2F200052B8885B088
:104EA000B3F5D57F07465AD017D9B3F5EE7F04BFC7
:104EB00045F6D816C2F2000600F09080B3F5FC7FEC
:104EC00004BF45F6CC11C2F200010FD04FF0000331
:104ED0002B80032005B0BDE8F083002BF6D1FDF751
:104EE00027FB45F6CC11C2F2000108600B6845F6BD
:104EF000D51203F580530B6045F6D6130021C2F29C
:104F00000002C2F2000311701970FDF711FB45F6A3
:104F1000D81645F64423C2F20003C2F20006186018
:104F20003378002B40F0978045F6D014C2F200048D
:104F30002368002B40F08F8033780BB9FFF7FAFE1F
:104F400047F24033C0F220035A69904700287CD1D1
:104F500045F6D513C2F2000301221A702CE045F683
:104F6000D612C2F2000213780133DBB2012B1370A8
:104F7000CBD945F6D513C2F200031A78C2B9FDF7B2
:104F8000D7FA45F6CC11C2F200010A684FF2A0032D
:104F9000CFF6FF739B1AC342A8D50968384601F5BE
:104FA0008051FFF753FF4FF4FC732B80012091E7F2
:104FB00045F6D816C2F20006FDF7BAFA45F60C23FC
:104FC000C2F20003186045F6E81245F6D913002135
:104FD000C2F20002C2F20003117019703378002B84
:104FE0002ED145F6D714C2F200042378002B3ED10F
:104FF0002378002BC3D047F24034C0F22004A369C9
:10500000984710B9E369984768B1FDF791FA45F6FA
:105010000C23C2F2000319684FF66762CFF6FF72E5
:10502000521AC242ABD43378002BA8D145F6D01324
:10503000C2F200031A68002AA1D1FFF793FE9EE78F
:1050400045F6D714C2F20004D2E733781BB92368BF
:105050000BB9FFF787FEFDF76BFA00F11001384638
:10506000FFF7F4FE4FF4D5732B80012032E7FDF7F4
:105070005FFA45F60C23C2F2000319684FF6676227
:10508000CFF6FF72521AC242B2D547F24039C0F28F
:105090002009D9F814309847002844D045F6E81183
:1050A000C2F200010B7801330B7045F6D918C2F239
:1050B000000898F80030D9F81820013388F800303B
:1050C00003919047039978B90B78052B0ED9337863
:1050D000002B8DD145F6D013C2F200031A68002AC6
:1050E00086D1FFF73FFE83E700230B7098F800306E
:1050F0000A2B07D947F24038D9F81830C0F22008F7
:105100009847B0B1D9F81C30984700287FF470AFA9
:1051100045F64223C2F200031A7882B94FF4EE73C7
:105120002B800120D6E645F6E811C2F20001087096
:10513000BBE7D8F81C3098470028E3D1C7E73C68A4
:10514000FDF7F6F9241A14F1120F0DD43968142260
:105150000023009344F69163891838460122C0F277
:105160002003FBF7E7FCD9E7FDF7E2F93968C1F165
:1051700002031A18ECE7C04610B545F6D71245F6FB
:105180004023C2F200020024C2F2000382B0147075
:105190001C80FDF7CDF944F6916300F5805145F68A
:1051A000DC100122C0F22003C2F200000094FBF7E1
:1051B000C1FC45F64223C2F2000301221A7002B07C
:1051C00010BDC0462DE9F04145F6D014C2F20004EE
:1051D0002368002B5BD0FBF777FD08B9BDE8F081B1
:1051E00047F2C843C0F220035A6890470028F5DB15
:1051F000FBF764FD0028F1D0FBF766FD0028EDD039
:105200001920FBF781FD47F2BC21C2F20001FFF734
:10521000A3F850B91930FBF777FD47F2E031C0F23F
:105220002001FFF799F80028D8D01220FBF764FD81
:10523000206000284AD0FFF77DFD45F6EC1044F6CB
:105240009D52C2F200000421C0F22002002300F0AF
:1052500089FC45F610260024C2F200062546374692
:1052600003E001340335102C14D00D20FBF744FD6E
:1052700073199A788242F4D11820FBF745FD61003A
:1052800009197918FFF768F80028EAD0A6E7FFF7B0
:1052900069FDA0E7124DEC1E28460322214601F0CD
:1052A000B1FDA6422546F6D10D20FBF725FDA070E5
:1052B0001820FBF729FD01462046FFF757F847F273
:1052C0002043C0F22003DA68904787E7FFF74AFDE2
:1052D00045F6EC10C2F2000000F02EFCB9E7C04623
:1052E0003D5A00202DE9F04F45F64226C2F2000655
:1052F0009A46337887B02BB945F6D413C2F200032F
:105300001A7812B1FBF7E0FC18B9052007B0BDE828
:10531000F08F47F2BC21C2F200011820FBF7FEFC1F
:105320001920FBF7F1FC47F2E031C0F22001FFF752
:1053300013F883460C20FBF7DFFC88B301210B2018
:10534000FBF7D2FC47F2C843C0F220031A6890472B
:10535000B0F10008D9DBFBF7B7FC2A2840F3B48092
:10536000FBF7AAFDFBF7B0FC47F24037C0F220077D
:105370007C680190FBF780FC0199A047404645F608
:10538000D818C2F200080124FBF742FC88F800405C
:10539000BB69984740B1002388F800300120B5E789
:1053A0001730FBF7A9FCC9E7FB6998470028F2D141
:1053B000FFF7D8FC337834700393BAF1000F26D18D
:1053C000D146FDF7B5F80446FFF7B4FC4FF6FC757F
:1053D000CFF6FF752D1BFDF7ABF8E842FBD47B69D8
:1053E00098470446002800F0A080FFF7BBFCFDF7BB
:1053F0009FF84FF6F074CFF6FF74241AFDF798F873
:10540000E042FBD409F10109B9F1060FD9D1BBF192
:10541000000518BF01250DB9FFF78CFCFDF764FAF4
:10542000FDF786F804460A20FBF766FC4EF6B079D5
:105430004FF6DE5B47F24032CFF6FF79CFF6FF7BC7
:10544000C0F220020290C4EB0909C4EB0B0B0092DE
:10545000FDF76EF810EB090F71D5FDF745FA15B998
:10546000BAF1000F3FD1FDF763F8BB680198984788
:10547000FDF75EF84FF6F374CFF6FF74241AFDF7CC
:1054800057F8E042FBD4002DE2D1BB69984720B920
:105490000099CB699847002841D0FDF749F84FF6AD
:1054A000EB74CFF6FF74241AFDF742F8E042FBD408
:1054B00003213B690DF115009847032820D0FFF721
:1054C00051FC039B337066E7FBF7C8FB0446FBF710
:1054D000F5FB0546FBF7F8FB0021C0F12B02601934
:1054E00001F0DCFC3CE7FDF723F81BEB000FBAD41E
:1054F000FFF738FC03990220317088F8005005E767
:1055000002999DF81720CBB29A42D8D1FFF72AFC16
:10551000039A00233270184688F80030F6E6009AA5
:1055200053699847002893D1B7E7FFF71BFC88F829
:105530000040FFF717FC039901203170E6E6FFF702
:1055400011FC039A002332709D420CBF02201846C2
:1055500088F80030DAE6C0462DE9F0410746884673
:10556000EAB145F6D013C2F200031B68002B25D127
:1055700014461E462046FBF7CDF90546606800F04C
:10558000FDFB1DB112200121FBF7AEFB2246384680
:1055900041463346FFF7A6FE0328044601D1BDE885
:1055A000F081384641462246012300F0D5FC002C0C
:1055B000F5D101262C46002DDCD1F0E7506800F033
:1055C000DDFB012238464146134600F0C5FCE6E704
:1055D000002270B5134604460D46FFF783FE0328EC
:1055E000024604D020462946012300F0B5FC70BDD8
:1055F00045F65A23C2F200031878421C1A7070470D
:1056000070B5837B044613F0010F0D4618D08368F4
:10561000B3B145F65C23C2F2000318600220A07308
:10562000A36804F10C009847832D14BF00230123C5
:105630000238012898BF43F0010313B90123A37373
:1056400070BD2046214600F001F8F9E72DE9F0474A
:1056500045F66026C2F20006326845F65C27131E46
:1056600018BF0123C2F2000782420CBF002303F0DF
:10567000010305468846D7F8009053B11268131EFF
:1056800018BF012395420CBF002303F00103002B38
:10569000F4D1002A30D0AB7BC3B10023AB733468A4
:1056A0004CB1A54204D0204687212A46FFF7A8FF27
:1056B0002468002CF5D1AA68B5EB080318BF0123B4
:1056C000002A0CBF002303F00103BBB9316845F683
:1056D00060248D4208BF2B68C2F2000408BF23601B
:1056E00008D011B906E0194623B10B68AB42FAD1D4
:1056F0002B680B60C7F80090BDE8F0873D60AB6891
:1057000005F10C00832100229847DFE745F65A2374
:10571000C2F200036FF07501197045F6482245F694
:1057200058237631C2F20002C2F2000311701970E0
:1057300045F6602245F65C23C2F20002C2F2000385
:10574000116019607047C0462DE9F84F45F664278F
:10575000C2F200073B78CBB145F66023C2F20003EA
:105760001C6800223A708CB10126154601E02468BD
:1057700064B1E37B002BFAD0A673E5732046822147
:105780000022FFF73DFF2468002CF2D145F6582691
:10579000C2F2000696F800A0BAF1000F2FD045F62D
:1057A0004824C2F20004217845F6682288000B01E3
:1057B0001B1AC2F2000212F803C045F65B29C2F2BE
:1057C0000009D51889F800C06A6845F65028C2F269
:1057D0000008C8F80020A86845F64C23C2F2000370
:1057E0000131186001F01F010AF1FF33217033709D
:1057F00050B1BCF1810F42D06146FFF701FF3B7809
:1058000030781818BDE8F88F45F6602BC2F2000B0F
:10581000DBF8003045F65425C2F200052B60002B62
:10582000EDD045F6642AC2F2000A3B78D3B1DBF82A
:1058300000404FF000038AF8003014B912E02468E9
:1058400084B1E37B002BFAD04FF00103A3734FF038
:105850000003E373204682210022FFF7D1FE246873
:10586000002CEED1D8F80020286899F80010FFF736
:10587000C7FE2B681A682A60002AD6D1BFE7012329
:105880008373B9E745F6642345F65822C2F2000354
:10589000C2F200021978107808187047F0B445F683
:1058A0005824C2F2000494F800C00746BCF1200F4F
:1058B0000D4616461DD045F64823C2F200031A785D
:1058C00045F65923624402F01F02C2F200031A7027
:1058D00045F6682193001201D21AC2F2000188181D
:1058E0000CF10103466087608D5400202370F0BCEA
:1058F00070470120FBE7C04670B545F65C24C2F254
:1059000000042568FFF77CFE256070BD10B545F6E4
:105910006024C2F2000422688C46131E18BF0123C3
:1059200082420CBF002303F00103CBB1114609688A
:105930000B1E18BF012388420CBF002303F0010394
:10594000002BF4D181420AD00123026020608373CE
:105950004FF00003838181216246FFF7CDFF10BD28
:105960001146EFE758B1837B013BDBB2012B06D830
:1059700045F664230122C2F20003C2731A70704715
:1059800070B50546006880B12C1D0021FFF7BEFFF1
:105990002B6847F29040C0F220005968FDF7A8FF3D
:1059A000254654F8040B0028EFD170BD30B444886C
:1059B000054654B14268137893B1002002E0135CAD
:1059C00011182BB10130A042F9DB002030BC704728
:1059D0000A46012313702A88AB6802FB0030F5E702
:1059E0001846F6E730B40546836840880C4670B127
:1059F0008B4219D02988002203EB010C04E08C446F
:105A0000C1EB0C039C4205D001328242F7DBFF2040
:105A100030BC704711466A68505C0028F8D0431EBD
:105A200053546A68505CF3E70021F4E78C468168C0
:105A3000614501D9002070470388428802FB0313A7
:105A40009C452CBF00200120F5E7C04610B5044658
:105A500000216288406801F021FA63882288A068EA
:105A6000002102FB03F201F019FA10BD10B5044643
:105A7000FCF7C2FC2368C3F101031B18606898425D
:105A80002CBF0020012010BD10B541600446FCF77A
:105A9000B3FC206010BDC0462DE9F04103880646E6
:105AA0001546CBB945F6E830C2F20000FAF7C6FE5B
:105AB000044630B1201DA168FBF722F82468002CB1
:105AC000F8D145F6EC33C2F2000301221A704FF010
:105AD0004A033380012005E04A2B05D04FF0000334
